:020000040800F2
:1000000048070020CD010008B30300089103000851
:10001000AF03000875020008A306000800000000F6
:10002000000000000000000000000000D9030008EC
:100030007902000800000000B5030008ED04000884
:10004000E7010008E7010008E7010008E7010008F0
:10005000E7010008E7010008E7010008E7010008E0
:10006000E7010008E7010008E7010008E7010008D0
:10007000E7010008E7010008E7010008E7010008C0
:10008000E7010008E7010008E7010008E7010008B0
:10009000E7010008E7010008E7010008E7010008A0
:1000A000E7010008E7010008E7010008E701000890
:1000B000E7010008E7010008E7010008E701000880
:1000C000E7010008E7010008E7010008E701000870
:1000D000E7010008BD050008E7010008E701000886
:1000E000E7010008E7010008E7010008E701000850
:1000F000E7010008E7010008E7010008E701000840
:10010000E7010008E7010008E7010008E70100082F
:10011000E7010008E7010008E7010008E70100081F
:10012000E7010008E7010008E7010008E70100080F
:1001300000F002F800F03AF80AA090E8000C8244BF
:100140008344AAF10107DA4501D100F02FF8AFF29C
:10015000090EBAE80F0013F0010F18BFFB1A43F0A5
:1001600001031847CC050000EC050000103A24BF3D
:1001700078C878C1FAD8520724BF30C830C144BF0C
:1001800004680C607047000000230024002500264E
:10019000103A28BF78C1FBD8520728BF30C148BFEA
:1001A0000B6070471FB51FBD10B510BD00F033F8D0
:1001B0001146FFF7F7FF00F093FA00F051F803B48F
:1001C000FFF7F2FF03BC00F06EFA00000948804719
:1001D00009480047FEE7FEE7FEE7FEE7FEE7FEE729
:1001E000FEE7FEE7FEE7FEE704480549054A064B41
:1001F000704700005D05000831010008480100203B
:10020000480700204803002048030020704770473B
:10021000704770477047754600F028F8AE460500F5
:100220006946534620F00700854618B020B5FFF711
:10023000DBFFBDE820404FF000064FF000074FF015
:1002400000084FF0000B21F00701AC46ACE8C009F4
:10025000ACE8C009ACE8C009ACE8C0098D467047FD
:100260000446AFF300802046FFF7A9FF004870471F
:10027000E400002000BFFEE770472DE9F041024690
:1002800000250026002000230024002791F803C049
:100290000CF00F0591F803C00CF0100CBCF1000F2E
:1002A00003D091F802C04CEA050591F800C0BCF1FA
:1002B000000F31D0146800202BE04FF0010C0CFA35
:1002C00000F3B1F800C00CEA03069E4220D183007F
:1002D0004FF00F0C0CFA03F7BC4305FA03FC4CEA91
:1002E000040491F803C0BCF1280F06D14FF0010CB3
:1002F0000CFA00FCC2F814C00AE091F803C0BCF18B
:10030000480F05D14FF0010C0CFA00FCC2F810C0E8
:10031000401C0828D1D31460B1F800C0BCF1FF0F15
:1003200034DD546800202EE000F1080C4FF0010885
:1003300008FA0CF3B1F800C00CEA03069E4221D182
:1003400083004FF00F0C0CFA03F7BC4305FA03FCD3
:100350004CEA040491F803C0BCF1280F05D100F168
:10036000080C08FA0CF8C2F8148091F803C0BCF12C
:10037000480F07D100F1080C4FF0010808FA0CF8FB
:10038000C2F81080401C0828CED35460BDE8F0812C
:1003900000BFFEE74FF0E020006900F4803109B9AA
:1003A0000120704709B10020FBE70020F9E700BFFA
:1003B000FEE770477047000029B1064A9269024380
:1003C000044B9A6104E0034A92698243014B9A61AB
:1003D0007047000000100240704710B500F002F8AE
:1003E00010BD00000CB5002001900090334800685B
:1003F00040F480303149086000BF3048006800F4A4
:10040000003000900198401C0190009818B90198A4
:10041000B0F5A06FF1D12948006800F4003010B1A8
:100420000120009001E0002000900098012843D1B5
:100430002348006840F01000214908600846006821
:1004400020F0030008600846006840F002000860E1
:100450001A4840681949486008464068486008469C
:10046000406840F4806048600846406820F47C1092
:1004700048600846406840F4E81048600846006854
:1004800040F08070086000BF0C48006800F0007009
:100490000028F9D00948406820F003000749486067
:1004A0000846406840F00200486000BF03484068CA
:1004B00000F00C000828F9D10CBD0000001002402B
:1004C00000200240042808D14FF0E021096941F0E2
:1004D00004014FF0E022116107E04FF0E0210969CB
:1004E00021F004014FF0E0221161704770470000D5
:1004F00070B505460C466FF00400FFF7E3FF2CB91A
:100500000A4800684FF4FA51B0FBF1F6012C04D10F
:10051000064800680649B0FBF1F606FB05F04FF00F
:10052000E02148610020886170BD000000000020CB
:1005300000127A004FF0E020006940F001004FF017
:10054000E021086170474FF0E020006920F00100D1
:100550004FF0E021086100208861704710B5134812
:10056000006840F0010011490860084640681049E1
:1005700008400E494860084600680E4908400B498B
:1005800008600846006820F480200860084640683B
:1005900020F4FE0048604FF41F008860FFF71DFF45
:1005A0004FF000600449086010BD000000100240D8
:1005B0000000FFF8FFFFF6FE08ED00E010B540F286
:1005C00025511D4800F03EF810B31B4800F064F8B8
:1005D000C4B21A48008800F40040C8B9174800881F
:1005E00000F4804060B10A2C03D000201349088039
:1005F00020E01248008840F400401049088019E0CB
:100600000D2C06D10D48008840F480400B4908802D
:1006100010E00A480088C0F30D0009490C5407484F
:100620000088401C0549088008460088C72801DD6D
:100630000020088010BD0000003801401800002094
:100640001C00002070B50246002400230025002075
:1006500040F66A16B14200D100BFC1F3421501F065
:100660001F03012606FA03F3012D02D196893340B8
:1006700006E0022D02D1168A334001E0968A33400B
:100680000C12012606FA04F41688344013B10CB19A
:10069000012000E0002070BD01468888C0F30800FA
:1006A000704700BFFEE7014600BF704708B5012153
:1006B0000820FFF781FE10208DF803000001ADF83F
:1006C000000003208DF8020069460348FFF7D5FDBE
:1006D00000200249086008BD000C0140A0812142B1
:1006E000FFF7E4FF21E000213220FFF701FFFFF7D1
:1006F00021FF00BFFFF74EFE0446012CFAD0FFF7A2
:1007000022FF01200949086000213220FFF7F0FE96
:10071000FFF710FF00BFFFF73DFE0446012CFAD0A3
:10072000FFF711FF002001490860DCE7A0812142AA
:1007300050070008000000201C0000006C010008A9
:100740006C0700081C0000202C070000880100082E
:1007500000A24A040000000000000000010203049F
:0C0760000607080900000000000000006F
:04000005080001CD21
:00000001FF
