:020000040800F2
:1000000080070020CD01000871470008B5040008F2
:100010006D470008750200081F500008000000002E
:10002000000000000000000000000000854C0008F7
:100030007902000800000000E5490008994D000819
:10004000E7010008E7010008E7010008E7010008F0
:10005000E7010008E7010008E7010008E7010008E0
:10006000E7010008E7010008E7010008E7010008D0
:10007000E7010008E7010008E7010008E7010008C0
:10008000E7010008E7010008E7010008E7010008B0
:10009000E7010008E7010008E7010008E7010008A0
:1000A000E7010008E7010008E7010008E701000890
:1000B000E7010008E7010008E7010008E701000880
:1000C000E7010008E7010008E7010008E701000870
:1000D000E7010008FD4D0008E7010008E7010008FE
:1000E000E7010008E7010008E7010008E701000850
:1000F000E7010008E7010008E7010008E701000840
:10010000E7010008E7010008E7010008E70100082F
:10011000E7010008E7010008E7010008E70100081F
:10012000E7010008E7010008E7010008E70100080F
:1001300000F002F800F03AF80AA090E8000C8244BF
:100140008344AAF10107DA4501D100F02FF8AFF29C
:10015000090EBAE80F0013F0010F18BFFB1A43F0A5
:1001600001031847F86A0000186B0000103A24BF1A
:1001700078C878C1FAD8520724BF30C830C144BF0C
:1001800004680C607047000000230024002500264E
:10019000103A28BF78C1FBD8520728BF30C148BFEA
:1001A0000B6070471FB51FBD10B510BD00F033F8D0
:1001B0001146FFF7F7FF04F0A5FF00F051F803B474
:1001C000FFF7F2FF03BC04F02CFF00000948804752
:1001D00009480047FEE7FEE7FEE7FEE7FEE7FEE729
:1001E000FEE7FEE7FEE7FEE704480549054A064B41
:1001F000704700009D4D000831010008800100207B
:100200008007002080030020800300207047704793
:10021000704770477047754600F028F8AE460500F5
:100220006946534620F00700854618B020B5FFF711
:10023000DBFFBDE820404FF000064FF000074FF015
:1002400000084FF0000B21F00701AC46ACE8C009F4
:10025000ACE8C009ACE8C009ACE8C0098D467047FD
:100260000446AFF300802046FFF7A9FF004870471F
:100270001C01002000BFFEE77047000051B1820062
:10028000A2F1C042126842F001038200A2F1C04212
:10029000136009E08200A2F1C0421268034B1A40C9
:1002A0008300A3F1C0431A6070470000FEFF0F00F7
:1002B000D0E901121143C268114302691143426936
:1002C000114382691143C2691143026A1143426AB0
:1002D0001143826A1143C26A1143026B11430268DF
:1002E0009200A2F1C0421160816808290BD1016817
:1002F0008900A1F1C041096841F04002016889000C
:10030000A1F1C0410A60416B0968426B526841EA41
:100310000211426B926841EA0221426B928941EAE2
:100320000241426B128A41EA0251426B127D41EA5C
:100330000261426B926911430268521C9200A2F161
:10034000C0421160C16AB1F5804F1BD1816B096851
:10035000826B526841EA0211826B926841EA022183
:10036000826B128A41EA0251826B127D41EA02617C
:10037000826B9269114302689200A2F1C042C2F8F6
:10038000041107E06FF0704201688900A1F1C041DB
:10039000C1F8042170472DE9F041024600250026EE
:1003A000002000230024002791F803C00CF00F0563
:1003B00091F803C00CF0100CBCF1000F03D091F8C1
:1003C00002C04CEA050591F800C0BCF1000F31D025
:1003D000146800202BE04FF0010C0CFA00F3B1F888
:1003E00000C00CEA03069E4220D183004FF00F0CA0
:1003F0000CFA03F7BC4305FA03FC4CEA040491F839
:1004000003C0BCF1280F06D14FF0010C0CFA00FC20
:10041000C2F814C00AE091F803C0BCF1480F05D13E
:100420004FF0010C0CFA00FCC2F810C0401C082868
:10043000D1D31460B1F800C0BCF1FF0F34DD5468B3
:1004400000202EE000F1080C4FF0010808FA0CF330
:10045000B1F800C00CEA03069E4221D183004FF0A0
:100460000F0C0CFA03F7BC4305FA03FC4CEA040436
:1004700091F803C0BCF1280F05D100F1080C08FA6F
:100480000CF8C2F8148091F803C0BCF1480F07D1F2
:1004900000F1080C4FF0010808FA0CF8C2F81080BF
:1004A000401C0828CED35460BDE8F08141617047FC
:1004B0000161704700BFFEE770B50446002617488B
:1004C0000588408845431548808846F604018842DF
:1004D00016D112488079012812D100200F49887165
:1004E0002A2048812B2088810021084603F028FF1C
:1004F00001200A4988712B2048812A20888103E045
:100500000021084603F01CFF04F0EEF8002602E08C
:1005100003480480761CAE42FAD370BD440000202C
:100520000008006C10B50446002C66D16C49887137
:10053000F02008804FF4A07048800846808849F277
:10054000413188420BD06648808846F604018842D3
:1005500005D06348808845F2103188421AD12C209A
:100560005F4908812A2048812B208881084680889D
:1005700046F60401884205D05948808845F210317A
:10058000884206D14FF4A070554908804FF4F070AE
:100590004880A1E05248808845F21051884210D12D
:1005A0004FF430504E4908814FF4285048814FF4A1
:1005B0002C5088814FF4F07008804FF448704880C8
:1005C0008AE04748808841F6631188420DD12C208B
:1005D000434908812B2048812A2088814FF4F070FC
:1005E00008804FF44870488076E022203C4908811A
:1005F00020204881212088816EE0012038498871BF
:100600004FF4A0700880F02048800846808849F2A6
:100610004131884205D03248808845F21031884205
:1006200007D12C202E4908812A2048812B2088813F
:100630003FE02B48808846F60401884207D12C20F1
:10064000274908812B2048812A20888131E02448CD
:10065000808845F21051884210D14FF43050204923
:1006600008814FF4285048814FF42C5088814FF472
:10067000487008804FF4F07048801AE0184880886D
:1006800041F6631188420DD12C20154908812A209A
:1006900048812B2088814FF4487008804FF4F07017
:1006A000488006E022200E49088121204881202030
:1006B00088810B48808846F60401884205D00848A6
:1006C000808845F21031884206D14FF4F070044919
:1006D00008804FF4A0704880002003F0BBFC10BDE0
:1006E0004400002030B503460C4615465A48808821
:1006F00049F24131884205D05748808845F210318F
:10070000884214D15449488903F0E8FF181203F0D5
:10071000DFFFD8B203F0DCFF4F49888903F0DEFF2A
:10072000201203F0D5FFE0B203F0D2FF8CE04A487C
:10073000808845F21051884220D14749488903F00A
:10074000CDFF181203F0C4FF43494989491C88B200
:1007500003F0C4FFD8B203F0BBFF3F49888903F020
:10076000BDFF201203F0B4FF3B498989491C88B2C0
:1007700003F0B4FFE0B203F0ABFF65E036488088D9
:1007800041F66311884228D13348807920B9324834
:100790000088401EC01A83B22F49488903F09EFF8B
:1007A000181203F095FFD8B203F092FF181203F06D
:1007B0008FFFD8B203F08CFF2749888903F08EFFA2
:1007C000201203F085FFE0B203F082FF201203F055
:1007D0007FFFE0B203F07CFF36E01F48808846F6DA
:1007E000040188421DD11C488079012804D11A488F
:1007F0000088401EC01A83B21749488903F06EFF73
:10080000181203F065FFD8B203F062FF124988891D
:1008100003F064FF201203F05BFFE0B203F058FF27
:1008200012E00D488079012804D10B480088401E51
:10083000C01A83B208494889194603F05FFF064988
:100840008889214603F05AFF03480089034908803C
:10085000881C058030BD000044000020FE07006CAD
:1008600000B59FB00121080204F0BEF801214FF449
:10087000B47004F0D9F80120ADF8780010208DF89C
:100880007B0003208DF87A001EA9FE48FFF783FD48
:100890004CF23370ADF8780018208DF87B000320FF
:1008A0008DF87A001EA9F848FFF775FD4FF68070A5
:1008B000ADF8780018208DF87B0003208DF87A00C1
:1008C0001EA9F248FFF767FD41F20100ADF878007C
:1008D00018208DF87B0003208DF87A001EA9EC48C3
:1008E000FFF759FD01200890002009900F200A9081
:1008F00000200B900C900D900E9001900290032020
:1009000003900020049005900690079006200F9019
:10091000002010901190102012900020139015903C
:100920001490169017904FF4805018900020199052
:100930004FF480401A9000201B9008A81C9001A83A
:100940001D900FA8FFF7B4FC01210620FFF796FCCD
:10095000322004F08BFB002003F046FBCD49888059
:1009600008468088FF280ADB084680884FF6FF711A
:10097000884204D0C7488088B0F5134F7ED1D32079
:1009800003F0ACFE03F026FBC249888003F022FB93
:10099000C049888003F01EFBBE49888008468088D5
:1009A0004FF6FF7101EA0020BA49888003F012FB7C
:1009B000B84989880843B74988800846808849F241
:1009C000413188425AD0BF2003F088FE03F002FB79
:1009D000B049888003F0FEFAAE49888003F0FAFA45
:1009E000AC49888003F0F6FAAA49888008468088D6
:1009F0004FF6FF7101EA0020A649888003F0EAFA69
:100A0000A44989880843A34988800846808846F617
:100A1000040188427AD0D42003F060FE03F0DAFAB1
:100A20009C49888003F0D6FA9A49888003F0D2FA6C
:100A300098498880084680884FF6FF7101EA0020B7
:100A40009449888003F0C6FA9249898808439149FD
:100A500088800846808845F21031884256D04FF48D
:100A60005A4003F03BFE03F0B5FA8A4988804FF400
:100A70005B4003F033FE03F0ADFA00E046E0854949
:100A80008880084680884FF6FF7101EA002081497E
:100A900088804FF45C4003F021FE03F09BFA7D490F
:100AA000898808437B49888008468088B0F5004FD4
:100AB00002D145F2105088807648808845F2105166
:100AC000884223D0A12003F009FE03F083FA714984
:100AD000888003F07FFA6F498880084680884FF647
:100AE000FF7101EA00206B49888003F073FA6949BD
:100AF00089880843674988800846808845F2617183
:100B0000884203D141F66310624988806148808839
:100B100049F2413188427CD1CF2003F0DFFD002033
:100B200003F0D6FDC12003F0D3FD302003F0D0FD4B
:100B3000ED2003F0D3FD642003F0CAFD032003F091
:100B4000C7FD122003F0C4FD812003F0C1FDE820A1
:100B500003F0C4FD852003F0BBFD102003F0B8FDB9
:100B60007A2003F0B5FDCB2003F0B8FD392003F067
:100B7000AFFD2C2003F0ACFD002003F0A9FD3420D4
:100B800003F0A6FD022003F0A3FDF72003F0A6FD6D
:100B9000202003F09DFDEA2003F0A0FD002003F0DB
:100BA00097FD002003F094FDC02003F097FD1B206B
:100BB00003F08EFDC12003F091FD012003F088FDBC
:100BC000C52003F08BFD302003F082FD302003F0C0
:100BD0007FFDC72003F082FDB72003F079FD3620AA
:100BE00003F07CFD482003F073FD3A2003F076FD0E
:100BF000552003F06DFDB12003F070FD002003F0DF
:100C000067FD1A2003F064FDB62003F067FD0A209B
:100C100000E0A5E003F05CFDA22003F059FDF22006
:100C200003F05CFD002003F053FD262003F056FD89
:100C3000012003F04DFDE02003F050FD0F2003F0F4
:100C400047FD2A2003F044FD282003F041FD082041
:100C500003F03EFD0E2003F03BFD082003F038FDBD
:100C6000542003F035FDA92003F032FD432003F0AA
:100C70002FFD0A2003F02CFD0F2003F029FD00209A
:100C80000AE00000000C014000140140001801407F
:100C9000002001404400002003F01AFD002003F072
:100CA00017FD002003F014FD002003F011FDE120EA
:100CB00003F014FD002003F00BFD152003F008FDE8
:100CC000172003F005FD072003F002FD112003F0BB
:100CD000FFFC062003F0FCFC2B2003F0F9FC56205F
:100CE00003F0F6FC3C2003F0F3FC052003F0F0FCDD
:100CF000102003F0EDFC0F2003F0EAFC3F2003F08E
:100D0000E7FC3F2003F0E4FC0F2003F0E1FC2B2084
:100D100003F0E4FC002003F0DBFC002003F0D8FC2F
:100D2000012003F0D5FC3F2003F0D2FC2A2003F081
:100D3000D5FC002003F0CCFC002003F0C9FC00200F
:100D400003F0C6FCEF2003F0C3FC112003F0C6FC47
:100D5000782004F08BF9292003F0C0FC03F01DB9C2
:100D6000FE48808846F6040188427CD1112003F0B9
:100D7000B5FC142004F07AF9D02003F0AFFC072072
:100D800003F0A6FC422003F0A3FC1D2003F0A0FC0E
:100D9000D12003F0A3FC002003F09AFC1A2003F0FA
:100DA00097FC092003F094FCD22003F097FC01206B
:100DB00003F08EFC222003F08BFCC02003F08EFC9D
:100DC000102003F085FC3B2003F082FC002003F0A0
:100DD0007FFC022003F07CFC112003F079FCC5208D
:100DE00003F07CFC032003F073FCC82003F076FCC6
:100DF000002003F06DFC252003F06AFC212003F0A5
:100E000067FC052003F064FC002003F061FC0A206D
:100E100003F05EFC652003F05BFC252003F058FC2A
:100E2000772003F055FC502003F052FC0F2003F014
:100E30004FFC002003F04CFCF82003F04FFC012095
:100E400003F046FCFE2003F049FC002003F040FCC8
:100E5000022003F03DFC202003F040FC362003F08C
:100E60003DFC082000E02CE003F032FC3A2003F0C7
:100E700035FC552003F02CFC2B2003F02FFC002028
:100E800003F026FC002003F023FC012003F020FCEB
:100E90003F2003F01DFC2A2003F020FC002003F07B
:100EA00017FC002003F014FC012003F011FCDF20EC
:100EB00003F00EFC782004F0D9F8292003F00EFC92
:100EC0004CE7A648808845F21031884240F07C8784
:100ED000ED2003F003FC012003F0FAFBFE2003F0F9
:100EE000F7FBEE2003F0FAFBDE2003F0F1FB2120FC
:100EF00003F0EEFBF12003F0F1FB012003F0E8FB2F
:100F0000DF2003F0EBFB102003F0E2FBC42003F032
:100F1000E5FB8F2003F0DCFBC62003F0DFFB0020A5
:100F200003F0D6FBE22003F0D3FBE22003F0D0FB7A
:100F3000E22003F0CDFBBF2003F0D0FBAA2003F09A
:100F4000C7FBB02003F0CAFB0D2003F0C1FB00205B
:100F500003F0BEFB0D2003F0BBFB002003F0B8FB49
:100F6000112003F0B5FB002003F0B2FB192003F0C1
:100F7000AFFB002003F0ACFB212003F0A9FB002015
:100F800003F0A6FB2D2003F0A3FB002003F0A0FB41
:100F90003D2003F09DFB002003F09AFB5D2003F051
:100FA00097FB002003F094FB5D2003F091FB0020F1
:100FB00003F08EFBB12003F091FB802003F088FB4F
:100FC000002003F085FB8B2003F082FB002003F060
:100FD0007FFB962003F07CFB002003F079FBB2201E
:100FE00003F07CFB002003F073FB002003F070FB98
:100FF000022003F06DFB002003F06AFB032003F0E6
:1010000067FB002003F064FBB32003F067FB0020C4
:1010100003F05EFB002003F05BFB002003F058FBB5
:10102000002003F055FB002003F052FB002003F0EA
:101030004FFB002003F04CFB002003F049FB002095
:1010400003F046FB002003F043FB002003F040FBCD
:10105000002003F03DFB002003F03AFB002003F0EA
:1010600037FB002003F034FB002003F031FB0020AD
:1010700003F02EFB002003F02BFB002003F028FBE5
:10108000002003F025FB002003F022FB002003F0EA
:101090001FFB002003F01CFB002003F019FBB42011
:1010A00003F01CFB8B2003F013FB002003F010FB6C
:1010B000962003F00DFB002003F00AFBA12003F0B3
:1010C00007FB002003F004FBB52003F007FB022020
:1010D00003F0FEFA002003F0FBFA032003F0F8FA15
:1010E000002003F0F5FA042003F0F2FA002003F0E8
:1010F000EFFAB62003F0F2FA002003F0E9FA00203C
:1011000003F0E6FAB72003F0E9FA002003F0E0FA72
:10111000002003F0DDFA3F2003F0DAFA002003F0AC
:10112000D7FA5E2003F0D4FA002003F0D1FA64204D
:1011300003F0CEFA002003F0CBFA8C2003F0C8FABB
:10114000002003F0C5FAAC2003F0C2FA002003F03F
:10115000BFFADC2003F0BCFA002001E044000020CC
:1011600003F0B6FA702003F0B3FA002003F0B0FAEF
:10117000902003F0ADFA002003F0AAFAEB2003F070
:10118000A7FA002003F0A4FADC2003F0A1FA002063
:1011900003F09EFAB82003F0A1FA002003F098FAB9
:1011A000002003F095FA002003F092FA002003F0EB
:1011B0008FFA002003F08CFA002003F089FA002057
:1011C00003F086FA002003F083FABA2003F086FACF
:1011D000242003F07DFA002003F07AFA002003F0C7
:1011E00077FA002003F074FAC12003F077FA202088
:1011F00003F06EFA002003F06BFA542003F068FA53
:10120000002003F065FAFF2003F062FA002003F0EB
:101210005FFAC22003F062FA0A2003F059FA0020B4
:1012200003F056FA042003F053FA002003F050FABA
:10123000C32003F053FA3C2003F04AFA002003F0E5
:1012400047FA3A2003F044FA002003F041FA39202B
:1012500003F03EFA002003F03BFA372003F038FA9F
:10126000002003F035FA3C2003F032FA002003F0AE
:101270002FFA362003F02CFA002003F029FA32204E
:1012800003F026FA002003F023FA2F2003F020FABF
:10129000002003F01DFA2C2003F01AFA002003F0BE
:1012A00017FA292003F014FA002003F011FA26207F
:1012B00003F00EFA002003F00BFA242003F008FAE2
:1012C000002003F005FA242003F002FA002003F0C6
:1012D000FFF9232003F0FCF9002003F0F9F93C208A
:1012E00003F0F6F9002003F0F3F9362003F0F0F9EB
:1012F000002003F0EDF9322003F0EAF9002003F0BA
:10130000E7F92F2003F0E4F9002003F0E1F92C20A5
:1013100003F0DEF9002003F0DBF9292003F0D8F90F
:10132000002003F0D5F9262003F0D2F9002003F0C5
:10133000CFF9242003F0CCF9002003F0C9F92420D0
:1013400003F0C6F9002003F0C3F9232003F0C0F92D
:10135000002003F0BDF9C42003F0C0F9622003F0BF
:10136000B7F9002003F0B4F9052003F0B1F900202B
:1013700003F0AEF9842003F0ABF9002003F0A8F9E4
:10138000F02003F0A5F9002003F0A2F9182003F0E3
:101390009FF9002003F09CF9A42003F099F90020A4
:1013A00003F096F9182003F093F9002003F090F968
:1013B000502003F08DF9002003F08AF90C2003F08F
:1013C00087F9002003F084F9172003F081F9002049
:1013D00003F07EF9952003F07BF9002003F078F903
:1013E000F32003F075F9002003F072F9E62003F012
:1013F0006FF9002003F06CF9C52003F06FF932207B
:1014000003F066F9002003F063F9442003F060F96B
:10141000002003F05DF9652003F05AF9002003F085
:1014200057F9762003F054F9002003F051F9882091
:1014300003F04EF9002003F04BF9C62003F04EF9FB
:10144000202003F045F9002003F042F9172003F0B3
:101450003FF9002003F03CF9012003F039F90020A6
:1014600003F036F9C72003F039F9002003F030F912
:10147000002003F02DF9002003F02AF9002003F0EA
:1014800027F9C82003F02AF9002003F021F90020F1
:1014900003F01EF9002003F01BF9002003F018F9F7
:1014A000C92003F01BF9002003F012F9002003F01B
:1014B0000FF9002003F00CF9002003F009F90020D7
:1014C00003F006F9002003F003F9002003F000F90F
:1014D000002003F0FDF8002003F0FAF8002003F0EC
:1014E000F7F8002003F0F4F8002003F0F1F80020F2
:1014F00003F0EEF8002003F0EBF8002003F0E8F82A
:10150000002003F0E5F8E02003F0E8F8162003F0EF
:10151000DFF8002003F0DCF81C2003F0D9F80020ED
:1015200003F0D6F8212003F0D3F8002003F0D0F820
:10153000362003F0CDF8002003F0CAF8462003F06F
:10154000C7F8002003F0C4F8522003F0C1F80020CF
:1015500003F0BEF8642003F0BBF8002003F0B8F8F5
:101560007A2003F0B5F8002003F0B2F88B2003F0E6
:10157000AFF8002003F0ACF8992003F0A9F80020A0
:1015800003F0A6F8A82003F0A3F8002003F0A0F8C9
:10159000B92003F09DF8002003F09AF8C42003F06E
:1015A00097F8002003F094F8CA2003F091F8002087
:1015B00003F08EF8D22003F08BF8002003F088F8B7
:1015C000D92003F085F8002003F082F8E02003F032
:1015D0007FF8002003F07CF8F32003F079F8002076
:1015E00003F076F8E12003F079F8162003F070F8A4
:1015F000002003F06DF81C2003F06AF8002003F0CF
:1016000067F8222003F064F8002003F061F8362028
:1016100003F05EF8002003F05BF8452003F058F873
:10162000002003F055F8522003F052F8002003F098
:101630004FF8642003F04CF8002003F049F87A20BA
:1016400003F046F8002003F043F88B2003F040F845
:10165000002003F03DF8992003F03AF8002003F051
:1016600037F8A82003F034F8002003F031F8B9204F
:1016700003F02EF8002003F02BF8C42003F028F824
:10168000002003F025F8CA2003F022F8002003F020
:101690001FF8D22003F01CF8002003F019F8D8201E
:1016A00003F016F8002003F013F8E02003F010F820
:1016B000002003F00DF8F32003F00AF8002003F0F7
:1016C00007F8E22003F00AF8052003F001F80020F3
:1016D00002F0FEFF0B2002F0FBFF002002F0F8FFFB
:1016E0001B2002F0F5FF002002F0F2FF342002F090
:1016F000EFFF002002F0ECFF442002F0E9FF0020A1
:1017000002F0E6FF4F2002F0E3FF002002F0E0FFCE
:10171000612002F0DDFF002002F0DAFF792002F004
:10172000D7FF002002F0D4FF882002F0D1FF002074
:1017300002F0CEFF972002F0CBFF002002F0C8FF9E
:10174000A62002F0C5FF002002F0C2FFB72002F081
:10175000BFFF002002F0BCFFC22002F0B9FF002052
:1017600002F0B6FFC72002F0B3FF002002F0B0FF86
:10177000D12002F0ADFF002002F0AAFFD62002F037
:10178000A7FF002002F0A4FFDD2002F0A1FF00204F
:1017900002F09EFFF32002F09BFF002002F098FF72
:1017A000E32002F09BFF052002F092FF002002F0F0
:1017B0008FFF0A2002F08CFF002002F089FF1C201E
:1017C00002F086FF002002F083FF332002F080FF4A
:1017D000002002F07DFF442002F07AFF002002F09A
:1017E00077FF502002F074FF002002F071FF6220AA
:1017F00002F06EFF002002F06BFF782002F068FF1D
:10180000002002F065FF882002F062FF002002F055
:101810005FFF972002F05CFF002002F059FFA62036
:1018200002F056FF002002F053FFB72002F050FFF5
:10183000002002F04DFFC22002F04AFF002002F01B
:1018400047FFC72002F044FF002002F041FFD120F3
:1018500002F03EFF002002F03BFFD52002F038FFEF
:10186000002002F035FFDD2002F032FF002002F000
:101870002FFFF32002F02CFF002002F029FFE420CC
:1018800002F02CFF012002F023FF002002F020FFD5
:10189000012002F01DFF002002F01AFF022002F0DA
:1018A00017FF002002F014FF2A2002F011FF002091
:1018B00002F00EFF3C2002F00BFF002002F008FFB8
:1018C0004B2002F005FF002002F002FF5D2002F035
:1018D000FFFE002002F0FCFE742002F0F9FE002062
:1018E00002F0F6FE842002F0F3FE002002F0F0FE8B
:1018F000932002F0EDFE002002F0EAFEA22002F0AA
:10190000E7FE002002F0E4FEB32002F0E1FE00203A
:1019100002F0DEFEBE2002F0DBFE002002F0D8FE68
:10192000C42002F0D5FE002002F0D2FECD2002F04D
:10193000CFFE002002F0CCFED32002F0C9FE002032
:1019400002F0C6FEDD2002F0C3FE002002F0C0FE61
:10195000F32002F0BDFE002002F0BAFEE52002F006
:10196000BDFE002002F0B4FE002002F0B1FE002017
:1019700002F0AEFE002002F0ABFE022002F0A8FE54
:10198000002002F0A5FE292002F0A2FE002002F0B5
:101990009FFE3C2002F09CFE002002F099FE4B20AE
:1019A00002F096FE002002F093FE5D2002F090FE11
:1019B000002002F08DFE742002F08AFE002002F06A
:1019C00087FE842002F084FE002002F081FE932036
:1019D00002F07EFE002002F07BFEA22002F078FEE4
:1019E000002002F075FEB32002F072FE002002F02B
:1019F0006FFEBE2002F06CFE002002F069FEC420E3
:101A000002F066FE002002F063FECD2002F060FED0
:101A1000002002F05DFED32002F05AFE002002F00A
:101A200057FEDC2002F054FE002002F051FEF320AD
:101A300002F04EFE002002F04BFEE62002F04EFEC9
:101A4000112002F045FE002002F042FE342002F098
:101A50003FFE002002F03CFE562002F039FE00203E
:101A600002F036FE762002F033FE002002F030FE57
:101A7000772002F02DFE002002F02AFE662002F000
:101A800027FE002002F024FE882002F021FE002024
:101A900002F01EFE992002F01BFE002002F018FE4C
:101AA000BB2002F015FE002002F012FE992002F089
:101AB0000FFE002002F00CFE662002F009FE00205E
:101AC00002F006FE552002F003FE002002F000FEA8
:101AD000552002F0FDFD002002F0FAFD452002F045
:101AE000F7FD002002F0F4FD432002F0F1FD00209C
:101AF00002F0EEFD442002F0EBFD002002F0E8FDD4
:101B0000E72002F0EBFD322002F0E2FD002002F0BF
:101B1000DFFD552002F0DCFD002002F0D9FD76202B
:101B200002F0D6FD002002F0D3FD662002F0D0FDC9
:101B3000002002F0CDFD672002F0CAFD002002F077
:101B4000C7FD672002F0C4FD002002F0C1FD872020
:101B500002F0BEFD002002F0BBFD992002F0B8FDAE
:101B6000002002F0B5FDBB2002F0B2FD002002F023
:101B7000AFFD992002F0ACFD002002F0A9FD772016
:101B800002F0A6FD002002F0A3FD442002F0A0FD1B
:101B9000002002F09DFD562002F09AFD002002F088
:101BA00097FD232002F094FD002002F091FD3320E8
:101BB00002F08EFD002002F08BFD452002F088FD32
:101BC000002002F085FDE82002F088FD002002F0F0
:101BD0007FFD002002F07CFD992002F079FD0020BD
:101BE00002F076FD872002F073FD002002F070FD08
:101BF000882002F06DFD002002F06AFD772002F0DF
:101C000067FD002002F064FD662002F061FD002007
:101C100002F05EFD882002F05BFD002002F058FD1E
:101C2000AA2002F055FD002002F052FDBB2002F078
:101C30004FFD002002F04CFD992002F049FD0020EC
:101C400002F046FD662002F043FD002002F040FD58
:101C5000552002F03DFD002002F03AFD552002F033
:101C600037FD002002F034FD442002F031FD002059
:101C700002F02EFD442002F02BFD002002F028FD92
:101C8000552002F025FD002002F022FDE92002F09F
:101C900025FDAA2002F01CFD002002F019FD002005
:101CA00002F016FD002002F013FD002002F016FDE8
:101CB000AA2002F00DFDCF2002F010FD002002F05E
:101CC00007FD002002F004FD002002F001FD0020CD
:101CD00002F0FEFC002002F0FBFC002002F0F8FC09
:101CE000002002F0F5FC002002F0F2FC002002F0DF
:101CF000EFFC002002F0ECFC002002F0E9FC0020E8
:101D000002F0E6FC002002F0E3FC002002F0E0FC20
:101D1000002002F0DDFC002002F0DAFC002002F0DE
:101D2000D7FCF02002F0DAFC002002F0D1FC5020B9
:101D300002F0CEFC002002F0CBFC002002F0C8FC38
:101D4000002002F0C5FCF32002F0C8FC002002F0E5
:101D5000BFFCF92002F0C2FC062002F0B9FC102002
:101D600002F0B6FC292002F0B3FC002002F0B0FC27
:101D70003A2002F0B3FC552002F0AAFC112002F038
:101D8000ADFC642003F072F9292002F0A7FC352095
:101D900002F0A4FC002002F09BFC512002F09EFC0B
:101DA000FF2002F095FC532002F098FC2C2002F05A
:101DB0008FFC552002F092FC822002F089FC2C203E
:101DC00002F08CFC02F0E9B8FE48808845F2105120
:101DD00088427DD155214FF4704002F08FFCAA213A
:101DE0004FF2010002F08AFC52214FF2020002F091
:101DF00085FC08214FF2030002F080FC01214FF224
:101E0000040002F07BFC0D214FF4304002F076FC20
:101E10000D214BF2010002F071FC0D214BF202008A
:101E200002F06CFC34214FF4364002F067FC3421A0
:101E30004BF2016002F062FC34214BF2026002F0CE
:101E40005DFC0D214FF4314002F058FC0D214BF2A6
:101E5000011002F053FC0D214BF2021002F04EFC77
:101E600034214FF4374002F049FC34214BF2017029
:101E700002F044FC34214BF2027002F03FFC0021DE
:101E80004FF4324002F03AFC00214BF2012002F004
:101E900035FC00214BF2022002F030FC24214FF4EB
:101EA000384002F02BFC24214BF6010002F026FC06
:101EB00024214BF6020002F021FC01214FF43F40A7
:101EC00002F01CFC0F214FF4334002F017FC00E03D
:101ED000FDE30F214BF2013002F010FC0F214BF219
:101EE000023002F00BFC34214FF4394002F006FCC2
:101EF00034214BF6011002F001FC34214BF60210A4
:101F000002F0FCFB08214FF4354002F0F7FB0821FA
:101F10004BF2015002F0F2FB08214BF2025002F0AA
:101F2000EDFB03214FF4424002F0E8FB24214FF483
:101F30003A4002F0E3FB24214BF6012002F0DEFBE5
:101F400024214BF6022002F0D9FB00214FF43C4043
:101F500002F0D4FB78214BF6014002F0CFFB0021C8
:101F60004BF6024002F0CAFB00214FF43D4002F064
:101F7000C5FB78214BF6015002F0C0FB00214BF667
:101F8000025002F0BBFB00214FF43E4002F0B6FBD2
:101F900064214BF6016002F0B1FB00214FF4514087
:101FA00002F0ACFB33214DF2011002F0A7FB00213F
:101FB0004DF2021002F0A2FB34214DF2031002F0A8
:101FC0009DFB00214DF2041002F098FB3A214DF2E6
:101FD000051002F093FB00214DF2061002F08EFB7B
:101FE0004A214DF2071002F089FB00214DF2081042
:101FF00002F084FB5C214DF2091002F07FFB00210E
:102000004DF20A1002F07AFB81214DF20B1002F022
:1020100075FB00214DF20C1002F070FBA6214DF271
:102020000D1002F06BFB00214DF20E1002F066FB6A
:10203000E5214DF20F1002F061FB01214DF210106D
:1020400002F05CFB13214DF2111002F057FB01214D
:102050004DF2121002F052FB54214DF2131002F017
:102060004DFB01214DF2141002F048FB82214DF28C
:10207000151002F043FB01214DF2161002F03EFB59
:10208000CA214DF2171002F039FB02214DF218104F
:1020900002F034FB00214DF2191002F02FFB022157
:1020A0004DF21A1002F02AFB01214DF21B1002F032
:1020B00025FB02214DF21C1002F020FB34214DF2D1
:1020C0001D1002F01BFB02214DF21E1002F016FB48
:1020D00067214DF21F1002F011FB02214DF220107A
:1020E00002F00CFB84214DF2211002F007FB0221CB
:1020F0004DF2221002F002FBA4214DF2231002F057
:10210000FDFA02214DF2241002F0F8FAB7214DF247
:10211000251002F0F3FA02214DF2261002F0EEFA39
:10212000CF214DF2271002F0E9FA02214DF22810DA
:1021300002F0E4FADE214DF2291002F0DFFA02216A
:102140004DF22A1002F0DAFAF2214DF22B1002F0D1
:10215000D5FA02214DF22C1002F0D0FAFE214DF2F8
:102160002D1002F0CBFA03214DF22E1002F0C6FA28
:1021700010214DF22F1002F0C1FA03214DF2301060
:1021800002F0BCFA33214DF2311002F0B7FA03210C
:102190004DF2321002F0B2FA6D214DF2331002F01E
:1021A000ADFA00214FF4524002F0A8FA33214DF26B
:1021B000012002F0A3FA00214DF2022002F09EFA63
:1021C000342101E0440000204DF2032002F096FA91
:1021D00000214DF2042002F091FA3A214DF205203F
:1021E00002F08CFA00214DF2062002F087FA4A2113
:1021F0004DF2072002F082FA00214DF2082002F091
:102200007DFA5C214DF2092002F078FA00214DF2AE
:102210000A2002F073FA81214DF20B2002F06EFACF
:1022200000214DF20C2002F069FAA6214DF20D209A
:1022300002F064FA00214DF20E2002F05FFAE5216F
:102240004DF20F2002F05AFA01214DF2102002F057
:1022500055FA13214DF2112002F050FA01214DF2EE
:10226000122002F04BFA54214DF2132002F046FAEC
:1022700001214DF2142002F041FA82214DF2152085
:1022800002F03CFA01214DF2162002F037FACA2181
:102290004DF2172002F032FA02214DF2182002F01E
:1022A0002DFA00214DF2192002F028FA02214DF2F8
:1022B0001A2002F023FA01214DF21B2002F01EFA2F
:1022C00002214DF21C2002F019FA34214DF21D209A
:1022D00002F014FA02214DF21E2002F00FFA6721DB
:1022E0004DF21F2002F00AFA02214DF2202002F0E6
:1022F00005FA84214DF2212002F000FA02214DF26C
:10230000222002F0FBF9A4214DF2232002F0F6F97D
:1023100002214DF2242002F0F1F9B7214DF22520DF
:1023200002F0ECF902214DF2262002F0E7F9CF216C
:102330004DF2272002F0E2F902214DF2282002F0AE
:10234000DDF9DE214DF2292002F0D8F902214DF20B
:102350002A2002F0D3F9F2214DF22B2002F0CEF91F
:1023600002214DF22C2002F0C9F9FE214DF22D2060
:1023700002F0C4F903214DF22E2002F0BFF9102122
:102380004DF22F2002F0BAF903214DF2302002F075
:10239000B5F933214DF2312002F0B0F903214DF2AD
:1023A000322002F0ABF96D214DF2332002F0A6F994
:1023B00000214FF4534002F0A1F933214DF20130D6
:1023C00002F09CF900214DF2023002F097F934211D
:1023D0004DF2033002F092F900214DF2043002F088
:1023E0008DF93A214DF2053002F088F900214DF2C5
:1023F000063002F083F94A214DF2073002F07EF9EF
:1024000000214DF2083002F079F95C214DF20930DB
:1024100002F074F900214DF20A3002F06FF98121C7
:102420004DF20B3002F06AF900214DF20C3002F04F
:1024300065F9A6214DF20D3002F060F900214DF250
:102440000E3002F05BF9E5214DF20F3002F056F943
:1024500001214DF2103002F051F913214DF21130EB
:1024600002F04CF901214DF2123002F047F95421EB
:102470004DF2133002F042F901214DF2143002F016
:102480003DF982214DF2153002F038F901214DF26B
:10249000163002F033F9CA214DF2173002F02EF94E
:1024A00002214DF2183002F029F900214DF21930C5
:1024B00002F024F902214DF21A3002F01FF9012135
:1024C0004DF21B3002F01AF902214DF21C3002F0DD
:1024D00015F934214DF21D3002F010F902214DF2B0
:1024E0001E3002F00BF967214DF21F3002F006F9A1
:1024F00002214DF2203002F001F984214DF2213009
:1025000002F0FCF802214DF2223002F0F7F8A4218B
:102510004DF2233002F0F2F802214DF2243002F0A5
:10252000EDF8B7214DF2253002F0E8F802214DF226
:10253000263002F0E3F8CF214DF2273002F0DEF82A
:1025400002214DF2283002F0D9F8DE214DF2293077
:1025500002F0D4F802214DF22A3002F0CFF8F22135
:102560004DF22B3002F0CAF802214DF22C3002F06D
:10257000C5F8FE214DF22D3002F0C0F803214DF2D6
:102580002E3002F0BBF810214DF22F3002F0B6F8D9
:1025900003214DF2303002F0B1F833214DF23130E9
:1025A00002F0ACF803214DF2323002F0A7F86D21B1
:1025B0004DF2333002F0A2F800214FF4544002F003
:1025C0009DF833214DF2014002F098F800214DF2C0
:1025D000024002F093F834214DF2034002F08EF8ED
:1025E00000214DF2044002F089F83A214DF20540F5
:1025F00002F084F800214DF2064002F07FF84A21F3
:102600004DF2074002F07AF800214DF2084002F046
:1026100075F85C214DF2094002F070F800214DF28E
:102620000A4002F06BF881214DF20B4002F066F88F
:1026300000214DF20C4002F061F8A6214DF20D4050
:1026400002F05CF800214DF20E4002F057F8E5214F
:102650004DF20F4002F052F801214DF2104002F00D
:102660004DF813214DF2114002F048F801214DF2CE
:10267000124002F043F854214DF2134002F03EF8AC
:1026800001214DF2144002F039F882214DF215403B
:1026900002F034F801214DF2164002F02FF8CA2161
:1026A0004DF2174002F02AF802214DF2184002F0D4
:1026B00025F800214DF2194002F020F802214DF2D8
:1026C0001A4002F01BF801214DF21B4000E006E326
:1026D00002F014F802214DF21C4002F00FF83421F0
:1026E0004DF21D4002F00AF802214DF21E4002F0A8
:1026F00005F867214DF21F4002F000F802214DF26B
:10270000204001F0FBFF84214DF2214001F0F6FF53
:1027100002214DF2224001F0F1FFA4214DF22340AD
:1027200001F0ECFF02214DF2244001F0E7FFB72158
:102730004DF2254001F0E2FF02214DF2264001F06A
:10274000DDFFCF214DF2274001F0D8FF02214DF2ED
:10275000284001F0D3FFDE214DF2294001F0CEFFE9
:1027600002214DF22A4001F0C9FFF2214DF22B4027
:1027700001F0C4FF02214DF22C4001F0BFFFFE2109
:102780004DF22D4001F0BAFF03214DF22E4001F031
:10279000B5FF10214DF22F4001F0B0FF03214DF2A3
:1027A000304001F0ABFF33214DF2314001F0A6FF84
:1027B00003214DF2324001F0A1FF6D214DF2334073
:1027C00001F09CFF00214FF4554001F097FF3321A9
:1027D0004DF2015001F092FF00214DF2025001F044
:1027E0008DFF34214DF2035001F088FF00214DF29E
:1027F000045001F083FF3A214DF2055001F07EFFB5
:1028000000214DF2065001F079FF4A214DF20750A8
:1028100001F074FF00214DF2085001F06FFF5C21C0
:102820004DF2095001F06AFF00214DF20A5001F00B
:1028300065FF81214DF20B5001F060FF00214DF248
:102840000C5001F05BFFA6214DF20D5001F056FF38
:1028500000214DF20E5001F051FFE5214DF20F50D5
:1028600001F04CFF01214DF2105001F047FF132100
:102870004DF2115001F042FF01214DF2125001F0D2
:102880003DFF54214DF2135001F038FF01214DF26C
:10289000145001F033FF82214DF2155001F02EFF4C
:1028A00001214DF2165001F029FFCA214DF21750B7
:1028B00001F024FF02214DF2185001F01FFF00210A
:1028C0004DF2195001F01AFF02214DF21A5001F099
:1028D00015FF01214DF21B5001F010FF02214DF2B6
:1028E0001C5001F00BFF34214DF21D5001F006FF8A
:1028F00002214DF21E5001F001FF67214DF21F50E1
:1029000001F0FCFE02214DF2205001F0F7FE84217F
:102910004DF2215001F0F2FE02214DF2225001F061
:10292000EDFEA4214DF2235001F0E8FE02214DF20C
:10293000245001F0E3FEB7214DF2255001F0DEFEF8
:1029400002214DF2265001F0D9FECF214DF2275041
:1029500001F0D4FE02214DF2285001F0CFFEDE211D
:102960004DF2295001F0CAFE02214DF22A5001F029
:10297000C5FEF2214DF22B5001F0C0FE02214DF2B6
:102980002C5001F0BBFEFE214DF22D5001F0B6FEA1
:1029900003214DF22E5001F0B1FE10214DF22F50C7
:1029A00001F0ACFE03214DF2305001F0A7FE3321BF
:1029B0004DF2315001F0A2FE03214DF2325001F0F0
:1029C0009DFE6D214DF2335001F098FE00214FF431
:1029D000564001F093FE33214DF2016001F08EFE6E
:1029E00000214DF2026001F089FE34214DF20360B6
:1029F00001F084FE00214DF2046001F07FFE3A21D7
:102A00004DF2056001F07AFE00214DF2066001F002
:102A100075FE4A214DF2076001F070FE00214DF273
:102A2000086001F06BFE5C214DF2096001F066FE6A
:102A300000214DF20A6001F061FE81214DF20B6030
:102A400001F05CFE00214DF20C6001F057FEA62162
:102A50004DF20D6001F052FE00214DF20E6001F0CA
:102A60004DFEE5214DF20F6001F048FE01214DF2CF
:102A7000106001F043FE13214DF2116001F03EFEA3
:102A800001214DF2126001F039FE54214DF2136024
:102A900001F034FE01214DF2146001F02FFE82217D
:102AA0004DF2156001F02AFE01214DF2166001F091
:102AB00025FECA214DF2176001F020FE02214DF2E1
:102AC000186001F01BFE00214DF2196001F016FEA6
:102AD00002214DF21A6001F011FE01214DF21B603E
:102AE00001F00CFE02214DF21C6001F007FE3421C2
:102AF0004DF21D6001F002FE02214DF21E6001F058
:102B0000FDFD67214DF21F6001F0F8FD02214DF23D
:102B1000206001F0F3FD84214DF2216001F0EEFD13
:102B200002214DF2226001F0E9FDA4214DF2236063
:102B300001F0E4FD02214DF2246001F0DFFDB72138
:102B40004DF2256001F0DAFD02214DF2266001F020
:102B5000D5FDCF214DF2276001F0D0FD02214DF2CD
:102B6000286001F0CBFDDE214DF2296001F0C6FDA9
:102B700002214DF22A6001F0C1FDF2214DF22B60DD
:102B800001F0BCFD02214DF22C6001F0B7FDFE21E9
:102B90004DF22D6001F0B2FD03214DF22E6001F0E7
:102BA000ADFD10214DF22F6001F0A8FD03214DF283
:102BB000306001F0A3FD33214DF2316001F09EFD44
:102BC00003214DF2326001F099FD6D214DF2336029
:102BD00001F094FD55214FF4704001F08FFDAA21C2
:102BE0004FF2010001F08AFD52214FF2020001F084
:102BF00085FD08214FF2030001F080FD00214FF216
:102C0000040001F07BFDCC214FF4314001F076FD52
:102C100000214BF2011001F071FD05214FF4364007
:102C200001F06CFD70214FF4374001F067FD702119
:102C30004BF2017001F062FD01214FF4384001F0C8
:102C40005DFD03214BF6010001F058FD03214BF619
:102C5000020001F053FD03214BF6030001F04EFD8D
:102C600002214FF43C4001F049FD00214BF60140A8
:102C700001F044FD00214BF6024001F03FFDD02160
:102C80004FF4494001F03AFD02214CF6011001F0E9
:102C900035FD50214CF6021001F030FD50214CF66C
:102CA000031001F02BFD50214CF6041001F026FD1D
:102CB00000214FF4545001F021FD55214FF468508C
:102CC00001F01CFD4FF4885001F008FD782002F05F
:102CD000F3F94FF4245001F001FD01F05EB9FE4814
:102CE000808849F2253188427ED147F6F001E520FF
:102CF00001F004FD4FF48071012001F0FFFC4FF45E
:102D0000E061022001F0FAFC41F23001032001F001
:102D1000F5FC0021042001F0F1FC40F20221082022
:102D200001F0ECFC0021092001F0E8FC00210A2060
:102D300001F0E4FC00210C2001F0E0FC00210D205A
:102D400001F0DCFC00210F2001F0D8FC0021102054
:102D500001F0D4FC0721112001F0D0FC0021122049
:102D600001F0CCFC0021132001F0C8FC0021072059
:102D700001F0C4FC41F29061102001F0BFFC40F270
:102D80002721112001F0BAFC9D21122001F0B6FC90
:102D90004FF4C851132001F0B1FC2521292001F086
:102DA000ADFC0D212B2001F0A9FC0721302001F002
:102DB000A5FC40F20331312001F0A0FC03213220B8
:102DC00001F09CFC40F20621352001F097FC08211F
:102DD000362001F093FC40F20641372001F08EFCD2
:102DE0004FF44171382000E057E001F087FC0721E3
:102DF000392001F083FC40F202613C2001F07EFCAE
:102E000008213D2001F07AFC0021502001F076FCE1
:102E1000EF21512001F072FC0021522001F06EFCE4
:102E200040F23F11532001F069FC4FF4274160202C
:102E300001F064FC0121612001F060FC00216A20A6
:102E400001F05CFC0021802001F058FC0021812071
:102E500001F054FC0021822001F050FC002183206D
:102E600001F04CFC0021842001F048FC0021852069
:102E700001F044FC1021902001F040FC4FF4C061AF
:102E8000922001F03BFC40F23311072001F036FCA8
:102E90002221002001F032FC1FE78F48808849F290
:102EA000283188427ED141F28F01EC2001F026FCCE
:102EB00041F23421EF2001F021FC4FF48071012018
:102EC00001F01CFC4FF4E061022001F017FC41F21C
:102ED0003001032001F012FC0021042001F00EFC5F
:102EE00040F20221082001F009FC0021092001F034
:102EF00005FC00210A2001F001FC01210C2001F059
:102F0000FDFB00210D2001F0F9FB00210F2001F055
:102F1000F5FB0021102001F0F1FB0721112001F049
:102F2000EDFB0021122001F0E9FB0021132001F04C
:102F3000E5FB0121072001F0E1FB322002F096F8C9
:102F400041F29041102001F0D9FB40F227211120DD
:102F500001F0D4FB322002F089F88A21122001F01E
:102F6000CDFB322002F082F84FF4D051132001F053
:102F7000C5FB0621292001F0C1FB0D212B2001F00A
:102F8000BDFB322002F072F80021202001F0B6FBD8
:102F90000021212001F0B2FB322002F067F800216D
:102FA000302000E074E001F0A9FB40F20461312020
:102FB00001F0A4FB40F20531322001F09FFB00211B
:102FC000352001F09BFB40F60941362001F096FBCD
:102FD0004FF40171372001F091FB40F201313820AC
:102FE00001F08CFB40F20771392001F087FB0021D2
:102FF0003C2001F083FB40F60A213D2001F07EFBDE
:10300000322002F033F80021502001F077FBEF214D
:10301000512001F073FB0021522001F06FFB40F2C0
:103020003F11532001F06AFB4FF42741602001F06B
:1030300065FB0121612001F061FB00216A2001F0A4
:103040005DFB0021802001F059FB0021812001F06F
:1030500055FB0021822001F051FB0021832001F06B
:103060004DFB0021842001F049FB0021852001F067
:1030700045FB1021902001F041FB4FF4C0619220EC
:1030800001F03CFB40F23311072001F037FB24E64E
:103090001148808849F2203188427DD100210846BC
:1030A00001F02CFB4FF48071012001F027FB4FF45D
:1030B000E061022001F022FB41F23001032001F027
:1030C0001DFB0021042001F019FB40F20221082021
:1030D00001F014FB002101E044000020092001F070
:1030E0000DFB00210A2001F009FB01210C2001F059
:1030F00005FB00210D2001F001FB00210F2001F054
:10310000FDFA322001F0B2FF40F20111072001F078
:10311000F5FA322001F0AAFF4FF48651102001F099
:10312000EDFA0721112001F0E9FA4FF4887112201D
:1031300001F0E4FA4FF43061132001F0DFFA0021CE
:10314000292001F0DBFA44F210012B2001F0D6FA1D
:103150000021502001F0D2FAEF21512001F0CEFAE7
:103160000021522001F0CAFA40F23F11532001F031
:10317000C5FA4FF41C51602001F0C0FA0121612012
:1031800001F0BCFA00216A2001F0B8FA0021802089
:1031900001F0B4FA002100E031E0812001F0AEFA44
:1031A0000021822001F0AAFA0021832001F0A6FA72
:1031B0000021842001F0A2FA0021852001F09EFA6E
:1031C0001021902001F09AFA0021922001F096FA45
:1031D0000121932001F092FA4FF48871952001F0BB
:1031E0008DFA0021972001F089FA0021982001F042
:1031F00085FA40F27311072001F080FA6DE5FE4870
:10320000808849F2313188427DD141F21401E720B2
:1032100001F074FA4FF48071012001F06FFA4FF45D
:103220000071022001F06AFA41F23801032001F036
:1032300065FA40F20221082001F060FA002109201D
:1032400001F05CFA00210A2001F058FA00210C205C
:1032500001F054FA00210D2001F050FA00210F2056
:1032600001F04CFA0021102001F048FA072111204A
:1032700001F044FA0021122001F040FA002113204D
:1032800001F03CFAC82001F0F1FE41F290611020FB
:1032900001F034FA40F22721112001F02FFA3220F8
:1032A00001F0E4FE0C21122001F028FA322001F096
:1032B000DDFE4FF40061132001F020FA11212920D6
:1032C00001F01CFA0B212B2001F018FA322001F03A
:1032D000CDFE0021202001F011FA40F23F11212003
:1032E00001F00CFA0021302001F008FA4FF483714C
:1032F000312001F003FA0021322001F0FFF94FF4F0
:103300000171352000E064E001F0F8F941F20A6152
:10331000362001F0F3F940F20771372001F0EEF9A1
:103320004FF48371382001F0E9F940F20771392038
:1033300001F0E4F940F202413C2001F0DFF940F6EF
:103340000F413D2001F0DAF90021502001F0D6F9BB
:10335000EF21512001F0D2F90021522001F0CEF9E5
:1033600040F23F11532001F0C9F94FF41C51602085
:1033700001F0C4F90121612001F0C0F900216A20A7
:1033800001F0BCF90021802001F0B8F90021812072
:1033900001F0B4F90021822001F0B0F9002183206E
:1033A00001F0ACF90021842001F0A8F9002185206A
:1033B00001F0A4F91021902001F0A0F94FF4C061B0
:1033C000922001F09BF940F23311072001F096F9A9
:1033D00083E48948808845F2084188427ED14FF4D1
:1033E0008071012001F08AF94FF4E061022001F0C0
:1033F00085F941F23001032001F080F90021042019
:1034000001F07CF940F20721082001F077F9002152
:10341000092001F073F900210A2001F06FF9002161
:103420000C2001F06BF900210D2001F067F900215B
:103430000F2001F063F9142001F018FE41F2B06191
:10344000102001F05BF90121112001F057F9012151
:10345000172001F053F94FF49C71122001F04EF93E
:103460004FF40061132001F049F90921292001F0EE
:1034700045F909212A2001F041F90021A42001F099
:103480003DF90021502001F039F9EF21512001F0E0
:1034900035F90021522001F031F940F23F1153205B
:1034A00001F02CF94FF41C51602001F027F90121A3
:1034B000612001F023F900216A2001F01FF90021A9
:1034C000802001F01BF90021812001F017F9002173
:1034D000822001F013F90021832000E023E001F0B5
:1034E0000DF90021842001F009F90021852001F067
:1034F00005F91321902001F001F90021922001F03B
:10350000FDF80321932001F0F9F84FF4887195201C
:1035100001F0F4F840F27311072001F0EFF83220C7
:1035200001F0A4FDB8E43448808841F20551884296
:103530007ED10021072001F0E1F8322001F096FD54
:103540004FF48E71122001F0D9F80121A42001F06E
:10355000D5F80F21082001F0D1F808210A2001F048
:10356000CDF808210D2001F0C9F840F20771302094
:1035700001F0C4F80721312001F0C0F840F20361E6
:10358000322001F0BBF84FF4E061332001F0B6F8CF
:1035900040F20221342001F0B1F80221352001F07F
:1035A000ADF841F60F71362001F0A8F840F207712E
:1035B000372001F0A3F80021382001F09FF8002106
:1035C000392001F09BF840F207713A2001F096F89B
:1035D00000213B2001F092F807213C2001F08EF8F9
:1035E00000213D2001F08AF8322001F03FFD012149
:1035F000072001F083F801E044000020012117209A
:1036000001F07CF8322001F031FD4FF4BD51102063
:1036100001F074F840F21721112001F06FF84FF417
:103620008F71122001F06AF84FF47061132000E0EE
:1036300097E001F063F800212A2001F05FF80A21E9
:10364000292001F05BF84FF49F71122001F056F829
:103650000021502001F052F8EF21512001F04EF8E6
:103660000021522001F04AF840F23F11532001F0AE
:1036700045F84FF41C51602001F040F80121612011
:1036800001F03CF800216A2001F038F80021802088
:1036900001F034F80021812001F030F8002182206F
:1036A00001F02CF80021832001F028F8002184206B
:1036B00001F024F80021852001F020F8132190204A
:1036C00001F01CF84FF44071922001F017F8052129
:1036D000932001F013F80021952001F00FF800214C
:1036E000972001F00BF80021982001F007F84FF423
:1036F0008071012001F002F84FF4E061022000F037
:10370000FDFF41F23801032000F0F8FF0021042002
:1037100000F0F4FF00210C2000F0F0FF00210F204A
:1037200000F0ECFF0021202000F0E8FF0021212024
:1037300000F0E4FF2121072000F0E0FF142001F059
:1037400095FC6121072000F0D9FF142001F08EFCC8
:1037500040F27311072000F0D1FF142001F086FC25
:1037600095E4FE4880884BF2055188427ED10021C5
:10377000084600F0C3FF0021084600F0BFFF00210B
:10378000084600F0BBFF0021084600F0B7FF01210A
:10379000A42000F0B3FF142001F068FC4FF41C518A
:1037A000602000F0ABFF40F20221082000F0A6FFED
:1037B0004FF40571302000F0A1FF43F21571312064
:1037C00000F09CFF40F20461322000F097FF40F6C9
:1037D0001661332000F092FF42F21121342000F0F4
:1037E0008DFF4FF4A851352000F088FF48F20751B3
:1037F000362000F083FF41F20741372000F07EFFC2
:1038000041F20341382000F079FF2021392000F0F7
:1038100075FF1A21902000F071FF0021102000F0A8
:103820006DFF0721112000F069FF0021122000F038
:1038300065FF0021132000F061FF142001F016FC49
:103840004FF4E661102000F059FF40F237111120CB
:1038500000F054FF142001F009FC4FF4DC71122039
:1038600000F04CFF142001F001FC00E083E04FF475
:103870007061132000F042FF80212A2000F03EFFFB
:103880004821292000F03AFF142001F0EFFB4FF40B
:103890008071012000F032FF4FF4E061022000F05F
:1038A0002DFF41F23801032000F028FF40F20221F1
:1038B000082000F023FF00210A2000F01FFF002154
:1038C0000C2000F01BFF00210D2000F017FF30211D
:1038D0000E2000F013FF0021502000F00FFFEF2119
:1038E000512000F00BFF0021522000F007FF40F2B2
:1038F0003F11532000F002FF4FF41C51602000F0F4
:10390000FDFE0121612000F0F9FE00216A2000F097
:10391000F5FE1121902000F0F1FE4FF4C0619220DD
:1039200000F0ECFE40F20241932000F0E7FE02219D
:10393000942000F0E3FE142001F098FB0121072001
:1039400000F0DCFE142001F091FB6121072000F063
:10395000D5FE40F27311072000F0D0FE0021202098
:1039600000F0CCFE0021212000F0C8FE2221002022
:1039700000F0C4FE11E3794880884CF2055188427A
:103980007ED10021084600F0B9FE0021084600F073
:10399000B5FE142001F06AFB0021084600F0AEFEDF
:1039A0000021084600F0AAFE0021084600F0A6FE0D
:1039B0000021084600F0A2FE0121A42000F09EFE96
:1039C000142001F053FB4FF41C51602000F096FED0
:1039D00040F60601082000F091FE40F2037130200D
:1039E00000F08CFE0121312000F088FE04213220FD
:1039F00000F084FE4FF48171332000F07FFE4FF41D
:103A00004071342000F07AFE40F20311352000F0BE
:103A100075FE1F21362000F071FE40F20371372041
:103A200000F06CFE0121382000F068FE04213920EE
:103A300000F064FE1521902000F060FE4FF48261DA
:103A4000102000F05BFE40F24721112000F056FEEE
:103A50004FF4DE71122000F051FE4FF4606113202C
:103A600000F04CFE782001F001FB4FF48071012042
:103A700000F044FE4FF40071022000F03FFE00E031
:103A800050E041F23001032000F038FE08210A2006
:103A900000F034FE00210C2000F030FE20210E202A
:103AA00000F02CFE00210F2000F028FE0021202035
:103AB00000F024FE0021212000F020FE3D212A20DC
:103AC00000F01CFE142001F0D1FA2D21292000F075
:103AD00015FE0021502000F011FE4DF2EF015120A3
:103AE00000F00CFE0021522000F008FE40F23F11D1
:103AF000532000F003FE0021612000F0FFFD0021B3
:103B00006A2000F0FBFD4FF44071922000F0F6FDBA
:103B10000521932000F0F2FD4FF48071072000F0A2
:103B2000EDFD3AE20D48808844F2315188427CD163
:103B30000121002000F0E2FD0A2001F097FA41F295
:103B40002861102000F0DAFD0E21122000F0D6FDD1
:103B500040F63921132000F0D1FD01E0440000209F
:103B60000A2001F083FA4021112000F0C7FD502106
:103B7000152000F0C3FD0A2001F078FA1E21122062
:103B800000F0BCFD0A2001F071FA4FF4B151102091
:103B900000F0B4FD42F63921132000F0AFFD0A20F9
:103BA00001F064FA4FF48071012000F0A7FD4FF49A
:103BB0004071022000F0A2FD41F23801032000F024
:103BC0009DFD40F20221082000F098FD08210A2006
:103BD00000F094FD0021302000F090FD40F2024101
:103BE000312000F08BFD4FF48371322000F086FD10
:103BF00040F20351332000F081FD4FF482713420F4
:103C000000F07CFD40F20131352000F077FD40F2FC
:103C10000771362000F072FD40F20531372000F0C8
:103C20006DFD4FF40271382000E040E000F066FDC9
:103C300040F60B71392000F061FD0221412000F0B7
:103C40005DFD4FF41C51602000F058FD0121612002
:103C500000F054FD4FF40471902000F04FFD4FF43C
:103C60008571922000F04AFD0421932000F046FD6A
:103C70004FF48071A02000F041FD0121072000F0E9
:103C80003DFD2121072000F039FD2321072000F010
:103C900035FD3321072000F031FD40F233110720BC
:103CA00000F02CFD0021A02000F028FD75E1C148A6
:103CB000808844F2355188427ED13021152000F0B1
:103CC0001DFD10219A2000F019FD2021112000F087
:103CD00015FD43F22841102000F010FD02211220B2
:103CE00000F00CFD41F23801132000F007FD282000
:103CF00001F0BCF91221084600F000FD282001F077
:103D0000B5F943F22041102000F0F8FC43F23801ED
:103D1000132000F0F3FC462001F0A8F90021302028
:103D200000F0ECFC40F20241312000F0E7FC40F2F0
:103D30000731322000F0E2FC4FF44171332000F0F3
:103D4000DDFC0421342000F0D9FC40F20141352093
:103D500000F0D4FC40F20771362000F0CFFC40F2B6
:103D60000531372000F0CAFC4FF4C261382000F062
:103D7000C5FC4FF4C261392000F0C0FC4FF48071E3
:103D8000012000F0BBFC4FF44071022000F0B6FCB3
:103D900041F23001032000F0B1FC40F60801082098
:103DA00000F0ACFC08210A2000F0A8FC4FF41C51E4
:103DB000602000F0A3FC00E031E00121612000F070
:103DC0009DFC4FF49F71902000F098FC4FF480719F
:103DD000922000F093FC4FF48071932000F08EFC51
:103DE0004FF44051A02000F089FC1021A32000F0E6
:103DF00085FC0121072000F081FC2121072000F033
:103E00007DFC2321072000F079FC3321072000F0FE
:103E100075FC40F23311072000F070FCBDE06548EE
:103E2000808841F663118842F8D1E22000F056FC08
:103E30001D2000F04DFC022000F04AFC042000F0A0
:103E400047FC642001F038F9E02000F047FC012035
:103E500000F03EFC0A2001F009F9E02000F03EFCF1
:103E6000032000F035FC0C2001F000F9012000F0E7
:103E700035FC0A2001F0FAF8E62000F02FFC2F2094
:103E800000F026FCFF2000F023FCFF2000F020FCC7
:103E9000B02000F023FC202000F01AFC002000F0ED
:103EA00017FC032000F014FC40F21F3000F010FC5F
:103EB000012000F00DFC40F2DF1000F009FC0020B2
:103EC00000F006FCB42000F009FC042000F000FC27
:103ED00040F21F4000F0FCFB002000F0F9FB2E2018
:103EE00000F0F6FB002000F0F3FB002000F0F0FBF8
:103EF000002000F0EDFB002000F0EAFBB62000F00F
:103F0000EDFB022000F0E4FB4FF4037000F0E0FB57
:103F1000002000F0DDFB172000F0DAFB152000F098
:103F2000D7FB002000F0D4FB002000F0D1FBF020F4
:103F300000F0D4FB032000F0CBFB292000F0CEFBE7
:103F4000D02000F0CBFB002000F0C2FBBE2000F030
:103F5000C5FB052000F0BCFBFE2000F0B9FB0120F2
:103F600000F0B6FB002000F0B3FB002000F0B0FB37
:103F7000002000F0ADFBB82000F0B0FB032000F003
:103F8000A7FB012000F0A4FBBA2000F0A7FB012052
:103F900000F09EFB642000F033F80020FCF7C2FA2A
:103FA0000120054908604FF6FF70FCF785FA1FB045
:103FB00000BD0000440000208081214210B502466F
:103FC000012000E050430B00A1F10104E1B2F9D15E
:103FD00010BD000008B5034800880090BDF800003F
:103FE00008BD00000008006C10B50446204600F033
:103FF00075FB052001F060F8FFF7ECFF10BD000035
:104000002DE9F0470446BE2000F068FB052000F0D3
:104010005FFB204601F031F907464FF066320C4B4A
:1040200001F03EF9054601F0FBF81FFA80F9484619
:1040300000F04EFB012000F04BFBFF2000F048FB9E
:10404000002000F045FB002000F042FBBDE8F087B7
:104050006666044070B5044600230026B7488079A0
:1040600001280BD1B548808846F60401884205D066
:10407000B248808841F66311884208D1AF48807900
:10408000F0B9AE48808841F66311884218D1082CF7
:1040900015D2DFE804F00406080A0C0E10120624FC
:1040A0000DE007240BE0042409E0052407E00124C7
:1040B00005E0002403E0032401E0022400BF00BF68
:1040C0009E48808849F24131884217D09B488088B9
:1040D00046F60401884211D09848808845F2103194
:1040E00088420BD09548808845F21051884205D00F
:1040F0009248808841F6631188427DD1082C1CD2F9
:10410000DFE804F00406090C0F12151800BF14E0D4
:1041100043F0800311E043F040030EE043F0C0039E
:104120000BE043F0200308E043F0600305E043F0B8
:10413000A00302E043F0E00300BF00BF7F48808897
:1041400045F21051884202D14FF4585600E036260D
:104150007A48808845F2103188420DD077488088AF
:1041600045F21051884207D07448808841F66311A7
:10417000884201D043F008037048808846F6040165
:10418000884201D143F002031946304600F0B6FAE6
:104190006A48808841F6631188421DD003F02000F0
:1041A00068B16648008865494988884214DA6348DE
:1041B0000588408861490880084645800CE05F48D2
:1041C00000885E494988884206DD5C480588408849
:1041D0005A490880084645805848808845F2105161
:1041E000884254D15549488900F078FA002000F0FF
:1041F0006FFA5249498900E078E0491C88B200F022
:104200006DFA002000F064FA4C494989891C88B293
:1042100000F064FA49490988491EC1F30F2000F0F3
:1042200057FA46494989C91C88B200F057FA4349F0
:104230000978491EC8B200F04BFA4049888900F05D
:104240004DFA002000F044FA3C498989491C88B2A3
:1042500000F044FA002000F03BFA38498989891CB3
:1042600088B200F03BFA35494988491EC1F30F2056
:1042700000F02EFA31498989C91C88B200F02EFA63
:104280002E498978491EC8B200F022FA55E02B4920
:10429000488900F023FA002000F01AFA002000F00C
:1042A00017FA26490988491EC1F30F2000F010FAB9
:1042B00022490978491EC8B200F00AFA1F498889C4
:1042C00000F00CFA002000F003FA002000F000FAE1
:1042D0001A494988491EC1F30F2000F0F9F917491E
:1042E0008978491EC8B200F0F3F926E0082C1CD2E8
:1042F000DFE804F004070A0D0F12151843F030032D
:1043000013E043F0100310E043F020030DE000BF82
:104310000BE043F0380308E043F0280305E043F0E6
:10432000180302E043F0080300BF00BF032643F474
:1043300080531946304600F0E1F970BD440000207A
:1043400010B503460C466748808849F241318842DF
:1043500005D06448808845F21031884214D1614903
:10436000488900F0BBF9181200F0B2F9D8B200F099
:10437000AFF95C49888900F0B1F9201200F0A8F982
:10438000E0B200F0A5F9ABE05648808846F604019B
:1043900088421DD153488079012804D151480088B2
:1043A000401EC01A83B24F49488900F097F918128D
:1043B00000F08EF9D8B200F08BF94A49888900F0F4
:1043C0008DF9201200F084F9E0B200F081F987E065
:1043D0004448808841F66311884247D1414880793A
:1043E000A8B940480088401EC01A83B23D49488998
:1043F00000F074F9002000F06BF9002000F068F97B
:10440000181200F065F9D8B200F062F916E03549EB
:10441000488900F063F9181200F05AF9D8B200F098
:1044200057F930490988491EC1F30F2000F050F9AF
:104430002C490978491EC8B200F04AF929498889EF
:1044400000F04CF9201200F043F9E0B200F040F91E
:1044500024494988491EC1F30F2000F039F9214948
:104460008978491EC8B200F033F939E01D488088C8
:1044700045F21051884220D11A49488900F02EF99E
:10448000181200F025F917494989491C88B200F033
:1044900025F9D8B200F01CF91249888900F01EF9FC
:1044A000201200F015F90F498989491C88B200F0E3
:1044B00015F9E0B200F00CF912E00A488079012801
:1044C00004D108480088401EC01A83B205494889B3
:1044D000194600F013F903498889214600F00EF9C6
:1044E00010BD0000440000202DE9F84F80460E4624
:1044F00017461C46B3462046E31704EB5373DB1004
:1045000021464FEAE47C04EB5C7C4FEAEC0CA4EB24
:10451000CC0CBCF1000F02D04FF0010C01E04FF0C9
:10452000000C6344224604EBD27C4FEA6C0C03FB84
:104530000CF3DBB20093A7F12000C7B2002556E0D0
:104540000C2C07D107EB47002B4901EB800010F83A
:10455000059013E0102C05D1284800EB071010F847
:1045600005900BE0182C07D107EBC700244901EB9D
:10457000800010F8059001E0BDE8F88F4FF0000AC8
:104580002FE009F0800030B11E48028831464046D5
:10459000FCF7A8F807E00A9828B91B4802883146BA
:1045A0004046FCF79FF84FEA49604FEA1069701CDB
:1045B00086B216484088B04200DCDDE7A6EB0B006F
:1045C000A0420AD15E4608F101001FFA80F80F48A8
:1045D0000088404500DCCFE706E00AF1010000F06A
:1045E000FF0ABAF1080FCCDB00BF681CC5B2009807
:1045F0008542A5DB00BFBFE79C54000810590008A6
:10460000005F000832000020340000204400002039
:104610002DE9FF4F82B0064692461F46DDE90F485E
:104620000020019000254DE0781B401EC1B20A20F9
:10463000FFF7C4FCBAFBF0F00A21B0FBF1F201FB7A
:104640001209019850BB781EA84227DDB9F1000F6E
:1046500022D108F0800078B108F00100A34604EBF5
:10466000DB71491001FB0561009088B223463022BE
:104670000399FFF739FF0EE008F00100A34604EBB1
:10468000DB71491001FB0561009088B223462022AE
:104690000399FFF729FF13E00120019008F00100C2
:1046A000A34604EBDB71491001FB0561009088B261
:1046B00009F13001CAB223460399FFF715FF00BF85
:1046C000681CC5B2BD42AFDB06B0BDE8F08F00008C
:1046D00001490880704700000008006C014908800B
:1046E00070470000FE07006C0248008902490880FC
:1046F0007047000044000020FE07006C024A108052
:10470000921C118070470000FE07006C08B5012163
:10471000082000F089F90121402000F085F91020DF
:104720008DF803002020ADF8000003208DF8020072
:1047300069460C48FBF72FFE20210A48FBF7B8FE1C
:1047400010208DF803002020ADF8000003208DF824
:10475000020069460448FBF71EFE20210248FBF7D1
:10476000A7FE08BD000C01400018014000BFFEE795
:104770007047000010B5002011490860052211495A
:104780002A2000F075F80121212000F08FF8012186
:10479000222000F08BF82021312000F087F828211A
:1047A000252000F083F80F21262000F07FF80F214C
:1047B000202000F07BF801200349C1F8A00110BDC2
:1047C000A001244228000020000024422DE9F041ED
:1047D00007460D46164600200A490860384600F094
:1047E000DDF98046002405E0FF2000F0D7F92855C8
:1047F000601CC4B2B442F7DB0120024908604046A5
:10480000BDE8F0819C01244270B5044600200749B0
:104810000860204600F0C2F9FF2000F0BFF905460D
:1048200001200349C1F89C01284670BD9C01244227
:104830000000244270B50446102000F0D7F907208C
:10484000FFF7E2FF05462946272000F02FF805F084
:10485000400050B1202221466120FFF7B7FFFF2121
:10486000E22000F023F8012070BD0020FCE70000EA
:104870002DE9F04107460D46164600200A4908601A
:10488000384600F08BF98046002404E0285D00F0F3
:1048900085F9601CC4B2B442F8DB0120024908600B
:1048A0004046BDE8F08100009C01244270B50546F9
:1048B0000C46002007490860284600F06FF90646BC
:1048C000204600F06BF901200349C1F89C013046F5
:1048D00070BD00009C0124420000244270B50021FC
:1048E00000230F22C47804B3154C246804F4E06458
:1048F000C4F5E064210AC1F10403CA40447804FA13
:1049000003F184781440214309010E4C0678A15527
:10491000047804F01F050124AC4005786D11AD004A
:1049200005F1E025C5F8004109E0047804F01F0511
:104930000124AC40044D0678761145F8264070BD40
:104940000CED00E000E400E080E100E008B50121AA
:104950004FF4847000F068F810208DF803004FF4D5
:10496000C070ADF8000003208DF8020069461948B8
:10497000FBF711FD28208DF803004020ADF8000062
:1049800003208DF8020069461248FBF704FD4FF43E
:104990008050ADF8000010208DF8030003208DF842
:1049A000020069460C48FBF7F6FC4FF480510A48B8
:1049B000FBF77EFD4FF4E0710648FBF777FD00F052
:1049C000ADF801200549086000200549C1F8A001A3
:1049D00008BD000000200140000C01409C01244261
:1049E000000024427047000029B1064A5269024380
:1049F000044B5A6104E0034A52698243014B5A61F5
:104A0000704700000010024029B1064AD2690243F3
:104A1000044BDA6104E0034AD2698243014BDA6154
:104A2000704700000010024029B1064A9269024313
:104A3000044B9A6104E0034A92698243014B9A61F4
:104A4000704700000010024030B500210022002411
:104A500000232D4D6D6805F00C0121B1042905D00E
:104A6000082923D105E0294D056022E0274D056086
:104A70001FE0254D6D6805F47012234D6D6805F437
:104A80008034022505EB92421CB9214D5543056047
:104A90000BE01D4D6D6805F400351DB11C4D5543EF
:104AA000056002E0194D5543056002E0174D0560B1
:104AB00000BF00BF144D6D6805F0F0010909154DE8
:104AC0006B5C0568DD4045600F4D6D6805F4E06185
:104AD000090A104D6B5C4568DD4085600A4D6D68C4
:104AE00005F46051C90A0B4D6B5C4568DD40C5603B
:104AF000054D6D6805F44041890B074D6B5CC56839
:104B0000B5FBF3F5056130BD0010024000127A00DC
:104B100000093D00140000202400002000B587B0EB
:104B200001210820FFF780FF01218803FFF76CFFB8
:104B300018208DF807004FF46040ADF80400032002
:104B40008DF8060001A91348FBF725FC1820ADF8E5
:104B500014000020ADF81000ADF80E000720ADF8ED
:104B600018000020ADF80C00ADF80800ADF81600F4
:104B70004FF48270ADF80A004FF40070ADF81200E7
:104B800002A9054800F060F80121034800F042F84E
:104B900007B000BD000C01400038004070B505466C
:104BA00005E0601CC4B2C82C01DD002070BD0221EC
:104BB0000D4800F03BF80028F3D0002429460A48AD
:104BC00000F040F805E0601CC4B2C82C01DD0020F4
:104BD000ECE70121044800F029F80028F3D002484E
:104BE00000F02DF8C0B2E1E70038004010B50446EF
:104BF000074800884FF6C7710840054908800846F5
:104C00000088204308800121014800F003F810BD0E
:104C10000038004021B1028842F04002028004E0E6
:104C200002884FF6BF731A40028070470246002088
:104C300013890B400BB1012000E0002070470146B2
:104C4000888970478181704710B50022028802F47C
:104C500041520B884C8823438C882343CC882343C0
:104C60000C8923434C8923438C892343CC892343D8
:104C70001A430280838B4FF2FF74234083830B8A95
:104C8000038210BD704710B500F002F810BD00009F
:104C90000CB50020019000903348006840F480304B
:104CA0003149086000BF3048006800F400300090CF
:104CB0000198401C0190009818B90198B0F5A06FB8
:104CC000F1D12948006800F4003010B101200090B3
:104CD00001E0002000900098012843D1234800689B
:104CE00040F01000214908600846006820F00300E9
:104CF00008600846006840F0020008601A484068F2
:104D0000194948600846406848600846406840F4D1
:104D1000806048600846406820F47C10486008467F
:104D2000406840F4E81048600846006840F0807031
:104D3000086000BF0C48006800F000700028F9D03F
:104D40000948406820F00300074948600846406869
:104D500040F00200486000BF0348406800F00C00CB
:104D60000828F9D10CBD00000010024000200240CC
:104D7000042808D14FF0E021096941F004014FF007
:104D8000E022116107E04FF0E021096921F0040100
:104D90004FF0E022116170477047000010B51348D2
:104DA000006840F001001149086008464068104959
:104DB00008400E494860084600680E4908400B4903
:104DC00008600846006820F48020086008464068B3
:104DD00020F4FE0048604FF41F008860FFF753FF87
:104DE0004FF000600449086010BD00000010024050
:104DF0000000FFF8FFFFF6FE08ED00E010B540F2FE
:104E000025511D4800F04AF810B31B4800F002F984
:104E1000C4B21A48008800F40040C8B91748008896
:104E200000F4804060B10A2C03D0002013490880B0
:104E300020E01248008840F400401049088019E042
:104E40000D2C06D10D48008840F480400B490880A5
:104E500010E00A480088C0F30D0009490C540748C7
:104E60000088401C0549088008460088C72801DDE5
:104E70000020088010BD00000038014040000020E4
:104E80005200002021B1828942F40052828104E064
:104E900082894DF6FF731A408281704770B50246D1
:104EA000002400230025002040F66A16B14200D1FC
:104EB00000BFC1F3421501F01F03012606FA03F3F8
:104EC000012D02D19689334006E0022D02D1168AC7
:104ED000334001E0968A33400C12012606FA04F4AE
:104EE0001688344013B10CB1012000E0002070BDE1
:104EF000F0B50346002400260025002040F66A177E
:104F0000B94200D100BF1846C1F3421401F01F0698
:104F1000012707FA06F5012C01D10C3004E0022C20
:104F200001D1103000E014301AB107682F43076038
:104F300002E00768AF430760F0BD00002DE9F047CD
:104F400086B005460E460024A24600BFA1460027B3
:104F5000B08900B100BF2F462C8A4CF6FF70044088
:104F6000F08804432C82AC894EF6F3100440B088DC
:104F700031890843718908430443AC81AC8A4FF6F8
:104F8000FF400440B0890443AC8201A8FFF75CFDF8
:104F90001F48874202D1DDF810A001E0DDF80CA027
:104FA000A88900F4004040B10AEBCA0000EB0A10E7
:104FB00031684900B0FBF1F807E00AEBCA0000EBEA
:104FC0000A1031688900B0FBF1F86420B8FBF0F0FA
:104FD00004012009642101FB1089A88900F4004024
:104FE00040B1322000EBC900B0FBF1F000F0070047
:104FF000044308E0322000EB09106421B0FBF1F01B
:1050000000F00F0004432C8106B0BDE8F0870000DB
:105010000038014001468888C0F30800704700BF8F
:10502000FEE7014600BF704710B56FF00400FFF7C0
:105030009FFE0A4800680A49B0FBF1F00949087070
:105040000846007800EB4001C1EBC0104FF6FF713D
:1050500001EAC0000449088010BD000000000020E3
:1050600000127A0036000020380000200146114A64
:1050700012884A434FF0E0235A6100229A611A468F
:10508000126942F001021A6100BF4FF0E02210697C
:1050900000F001021AB100F48032002AF5D04FF07E
:1050A000E022126922F001024FF0E0231A6100228F
:1050B0009A617047380000200146114A12784A432D
:1050C0004FF0E0235A6100229A611A46126942F0B9
:1050D00001021A6100BF4FF0E022106900F00102E6
:1050E0001AB100F48032002AF5D04FF0E0221269A4
:1050F00022F001024FF0E0231A6100229A6170470A
:10510000360000200EB5FFF701FBFFF78DFFFFF71C
:105110001DFC4FF4E13000F033F8FBF7A1FB29E070
:10512000FFF728FB02A8FFF785FB044600201821A3
:105130000323CDE900109DF808209F215A20FFF796
:1051400067FA0020182101232246CDE90010C8216A
:105150005A20FFF75DFA0120074908604FF4967066
:10516000FFF784FF00200549C1F894014FF49670C1
:10517000FFF77CFFD4E700009481214200802142A8
:1051800010B586B00446012144F20400FFF74CFC40
:105190004FF40070ADF8140003208DF816001820AD
:1051A0008DF8170005A91C48FBF7F5F84FF480604F
:1051B000ADF8140004208DF8170005A91648FBF778
:1051C000EAF825208DF8000003208DF801008DF805
:1051D000020001208DF803006846FFF77FFB019471
:1051E0000020ADF80800ADF80A00ADF80C00ADF8ED
:1051F00010000C20ADF80E0001A90848FFF79EFE34
:10520000012240F225510548FFF772FE01210348B3
:10521000FFF738FE06B010BD00080140003801401D
:105220004FEA1153A3F58063D3F11E03A8BFD3F156
:10523000200C08DB4FF0004242EAC12252EA5052F1
:1052400032FA03F0704709420BD4102BC4BF002080
:10525000704703F5787CBCF1FF3F05D04FF0FF307D
:1052600070474FF00000704770B500F0C3F800BF02
:105270004992248000207047F0E7B0FA80F310FADA
:1052800003F10AD0C3F11D0303F580634FEA4150D7
:105290004FEA035202EBD12170474FF000007047F4
:1052A000DFF848C170B51CEA111E1EBF1CEA1315B9
:1052B0009EEA0C0F95EA0C0F00F06F8081EA030460
:1052C00023EA4C134EEAD47E21EA4C1141F48011BA
:1052D00043F48013AE44A1FB024CA0FB0365AEF186
:1052E0007F7E361955EB0C05A1FB034C4CF10003F6
:1052F000A0FB021C16EB0C06654153F100030942AA
:1053000018BF46F0010613F4007F0BD14FEA0331BA
:105310004FEA0530340341EA155140EA16506FF068
:1053200003020AE04FEAC3214FEAC520F40241EA32
:10533000555140EA56506FF0020202EB2E4201EB4B
:10534000025585EACE710AD05FEA440C18BF24F0FA
:10535000004450F1000041F1000120EAD47040F215
:10536000FE7C624500D270BDA84214BF4FF080445D
:105370004FF04044002E08BF0024BEF1806FA8BF4C
:10538000A1F1C041BDE8704080F282804FF0000082
:1053900001F1C04101F0004170479EEA0C0F0CEA98
:1053A000131518BF95EA0C0F06D04FF0000081EAE4
:1053B000030E0EF0004170BD00F01CF88900013EA4
:1053C00000F007B800F009B84FEA430C5FEA5C5CF4
:1053D00008D081EA030100F05BB84FEA410C5FEAB4
:1053E0005C5CF6D14FF00000014970470000FF07F8
:1053F0000000F87F0EF1020E2EF0030E5EF8046B33
:10540000364205D4012A43EB030515F5001F12D8D7
:10541000012841EB010C1CF5001F0CD80ED14FEAFE
:10542000D17C15F5001F0CEB4C0C0CF1020C08BFE5
:105430004CEBD37C04E04FF0080C01E04FEAD37C46
:105440000CEB4C0526FA05F606F00706B6F1040C3F
:1054500006D20EEB860CBDE870404CF0010C6047A4
:10546000DFE80CF0090B02024FF000414FF00000A2
:10547000A1F5002170BD19461046012851EB010429
:1054800018BFD4F5001484BF002001F0004170BDA6
:105490000808A0F500114FEA310170470000000034
:1054A0000000000000000000000000003F4000007D
:1054B000000000000000300040003000400000000C
:1054C00009000BC03D000BC03D00090018C024407E
:1054D0007FE0224031800000180024C01B000D80B6
:1054E0003240018003801C4027401C800740004060
:1054F000100060000000000000000000000000003C
:1055000000001F80204040200000402020401F80DD
:1055100000000000090006001F80060009000000CE
:10552000040004003F80040004000000001000603C
:10553000000000000000000004000400040004005B
:105540000400000000000040000000000000000017
:10555000002001C006003800400000001F802040ED
:10556000204020401F800000000010403FC000404D
:105570000000000018C021402240244018400000D4
:1055800010802040244024401B80000002000D00B9
:1055900011003FC0014000003C80244024402440D2
:1055A000238000001F8024402440344003800000FA
:1055B0003000200027C03800200000001B8024405D
:1055C000244024401B8000001C0022C022402240B6
:1055D0001F800000000000000840000000000000E4
:1055E0000000000004600000000000000000040053
:1055F0000A0011002080404009000900090009004C
:105600000900000000004040208011000A00040052
:105610001800200023402400180000001F802040B4
:10562000274029401F400000004007C039000F00FC
:1056300001C0004020403FC0244024401B800000A7
:105640001F802040204020403080000020403FC08C
:10565000204020401F80000020403FC024402E40BA
:1056600030C0000020403FC024402E003000000029
:105670000F001080204022403380020020403FC0B5
:10568000040004003FC02040204020403FC0204094
:10569000204000000060202020203FC0200020008B
:1056A00020403FC024400B0030C0204020403FC07D
:1056B00020400040004000C03FC03C0003C03C0010
:1056C0003FC0000020403FC00C4023003FC02000EE
:1056D0001F802040204020401F80000020403FC00D
:1056E00024402400180000001F802140214020E0B9
:1056F0001FA0000020403FC02440260019C00040E9
:1057000018C0244024402240318000003000204056
:105710003FC020403000000020003F80004000409B
:105720003F80200020003E0001C00700380020001C
:10573000380007C03C0007C038000000204039C0D6
:10574000060039C0204000002000384007C0384023
:1057500020000000304021C02640384020C000001A
:10576000000000007FE040204020000000007000AA
:105770000C000380004000000000402040207FE03B
:105780000000000000002000400020000000000099
:1057900000100010001000100010001000000000A9
:1057A00040000000000000000000028005400540AD
:1057B00003C0004020003FC00440044003800000BC
:1057C0000000038004400440064000000000038005
:1057D000044024403FC000400000038005400540D5
:1057E00003400000000004401FC02440244020006B
:1057F000000002E0055005500650042020403FC044
:105800000440040003C000400000044027C00040E2
:105810000000000000100010041027E0000000004D
:1058200020403FC00140070004C004402040204009
:105830003FC000400040000007C0040007C0040053
:1058400003C00000044007C00440040003C000403F
:10585000000003800440044003800000041007F0AF
:105860000450044003800000000003800440045002
:1058700007F00010044007C00240040004000000CC
:10588000000006400540054004C000000000040080
:105890001F800440004000000400078000400440D6
:1058A00007C000400400070004C001800600040097
:1058B000060001C0070001C006000000044006C049
:1058C000010006C0044000000410071004E001803D
:1058D000060004000000044005C00640044000002B
:1058E0000000000004007BE04020000000000000F9
:1058F0000000FFF000000000000040207BE00400FA
:105900000000000040008000400020002000400017
:105910000000000000000000000000000000000087
:105920000000000000001FCC000C00000000000080
:105930000000080030006000080030006000000037
:10594000022003FC1E20022003FC1E200220000077
:1059500000000E1811043FFF10840C7800000000B6
:105960000F0010840F3800C00778188400780000FA
:1059700000780F8410C411240E9800E400840008FD
:105980000800680070000000000000000000000037
:1059900000000000000007E018182004400200008A
:1059A000000040022004181807E00000000000007A
:1059B0000240024001800FF00180024002400000DE
:1059C0000080008000800FF80080008000800000D0
:1059D0000001000D000E00000000000000000000AB
:1059E0000000008000800080008000800080008037
:1059F0000000000C000C000000000000000000008F
:105A00000000000600180060018006001800200059
:105A1000000007F0080810041004080807F0000050
:105A20000000080408041FFC00040004000000003B
:105A300000000E0C10141024104411840E0C0000F1
:105A400000000C1810041104110412880C700000DE
:105A5000000000E00320042408241FFC00240000B0
:105A600000001F98108411041104108810700000A9
:105A7000000007F008881104110418880070000065
:105A800000001C00100010FC13001C00100000009F
:105A900000000E3811441084108411440E380000A8
:105AA00000000700088C10441044088807F000002C
:105AB000000000000000030C030C000000000000C8
:105AC00000000000000101060000000000000000CE
:105AD00000000080014002200410080810040000AB
