:020000040800F2
:1000000050070020CD01000819050008A3030008CF
:1000100015050008750200089B0700080000000095
:100020000000000000000000000000003D05000886
:1000300079020008000000001B05000851060008B6
:10004000E7010008E7010008E7010008E7010008F0
:10005000E7010008E7010008E7010008E7010008E0
:10006000E7010008E7010008E7010008E7010008D0
:10007000E7010008E7010008E7010008E7010008C0
:10008000E7010008E7010008E7010008E7010008B0
:10009000E7010008E7010008E7010008E7010008A0
:1000A000E7010008E7010008E7010008E701000890
:1000B000E7010008E7010008E7010008E701000880
:1000C000E7010008E7010008E7010008E701000870
:1000D000E7010008B5060008E7010008E70100088D
:1000E000E7010008E7010008E7010008E701000850
:1000F000E7010008E7010008E7010008E701000840
:10010000E7010008E7010008E7010008E70100082F
:10011000E7010008E7010008E7010008E70100081F
:10012000E7010008E7010008E7010008E70100080F
:1001300000F002F800F03AF80AA090E8000C8244BF
:100140008344AAF10107DA4501D100F02FF8AFF29C
:10015000090EBAE80F0013F0010F18BFFB1A43F0A5
:10016000010318477407000094070000103A24BFE9
:1001700078C878C1FAD8520724BF30C830C144BF0C
:1001800004680C607047000000230024002500264E
:10019000103A28BF78C1FBD8520728BF30C148BFEA
:1001A0000B6070471FB51FBD10B510BD00F033F8D0
:1001B0001146FFF7F7FF00F057FB00F051F803B4CA
:1001C000FFF7F2FF03BC00F0EAFA0000094880479D
:1001D00009480047FEE7FEE7FEE7FEE7FEE7FEE729
:1001E000FEE7FEE7FEE7FEE704480549054A064B41
:1001F000704700005506000831010008500100203A
:100200005007002050030020500300207047704723
:10021000704770477047754600F028F8AE460500F5
:100220006946534620F00700854618B020B5FFF711
:10023000DBFFBDE820404FF000064FF000074FF015
:1002400000084FF0000B21F00701AC46ACE8C009F4
:10025000ACE8C009ACE8C009ACE8C0098D467047FD
:100260000446AFF300802046FFF7A9FF004870471F
:10027000EC00002000BFFEE770472DE9F041024688
:1002800000250026002000230024002791F803C049
:100290000CF00F0591F803C00CF0100CBCF1000F2E
:1002A00003D091F802C04CEA050591F800C0BCF1FA
:1002B000000F31D0146800202BE04FF0010C0CFA35
:1002C00000F3B1F800C00CEA03069E4220D183007F
:1002D0004FF00F0C0CFA03F7BC4305FA03FC4CEA91
:1002E000040491F803C0BCF1280F06D14FF0010CB3
:1002F0000CFA00FCC2F814C00AE091F803C0BCF18B
:10030000480F05D14FF0010C0CFA00FCC2F810C0E8
:10031000401C0828D1D31460B1F800C0BCF1FF0F15
:1003200034DD546800202EE000F1080C4FF0010885
:1003300008FA0CF3B1F800C00CEA03069E4221D182
:1003400083004FF00F0C0CFA03F7BC4305FA03FCD3
:100350004CEA040491F803C0BCF1280F05D100F168
:10036000080C08FA0CF8C2F8148091F803C0BCF12C
:10037000480F07D100F1080C4FF0010808FA0CF8FB
:10038000C2F81080401C0828CED35460BDE8F0812C
:100390000246002093680B400BB1012000E00020D2
:1003A000704700BFFEE7000010B5044614B90120F5
:1003B0002E4908702D48007800283BD010212C4889
:1003C000FFF7E6FF78B108212948FFF7E1FF50B1B8
:1003D00004212748FFF7DCFF28B101212548FFF75A
:1003E000D7FF012826D1032000F018FA00201F496A
:1003F000087010211E48FFF7CBFF08B9012010BD7F
:1004000008211B48FFF7C4FF08B90220F7E70421C1
:100410001748FFF7BDFF08B90320F0E70121154891
:10042000FFF7B6FF012801D10420E8E701200F49BA
:10043000087019E010210E48FFF7AAFF012813D118
:1004400008210B48FFF7A4FF01280DD1042108481B
:10045000FFF79EFF012807D101210648FFF798FF0B
:1004600010B90120014908700020C8E714000020DD
:10047000001801400008014008B50121442000F0A7
:100480004DF848208DF803001C20ADF800006946A7
:100490000648FFF7F2FE28208DF803000120ADF892
:1004A000000069460248FFF7E8FE08BD0018014059
:1004B000000801401448806940F008001249886132
:1004C0000846806940F0400088611048006820F4C8
:1004D00070000E4908600846006840F4401008604B
:1004E0000B48006820F4700009490860084600685D
:1004F00040F440100860202004491031086004498D
:10050000103108607047000000100240000C0140EC
:100510000018014000BFFEE77047704729B1064A46
:1005200092690243044B9A6104E0034A9269824350
:10053000014B9A617047000000100240704710B5EF
:1005400000F002F810BD00000CB5002001900090F2
:100550003348006840F480303149086000BF3048BB
:10056000006800F4003000900198401C0190009851
:1005700018B90198B0F5A06FF1D12948006800F4CE
:10058000003010B10120009001E0002000900098A0
:10059000012843D12348006840F010002149086039
:1005A0000846006820F0030008600846006840F034
:1005B000020008601A4840681949486008464068C7
:1005C00048600846406840F48060486008464068DB
:1005D00020F47C1048600846406840F4E810486009
:1005E0000846006840F08070086000BF0C48006852
:1005F00000F000700028F9D00948406820F003009E
:10060000074948600846406840F00200486000BF63
:100610000348406800F00C000828F9D10CBD000028
:100620000010024000200240042808D14FF0E021D1
:10063000096941F004014FF0E022116107E04FF039
:10064000E021096921F004014FF0E02211617047B7
:100650007047000010B51348006840F001001149D0
:10066000086008464068104908400E49486008463E
:1006700000680E4908400B4908600846006820F4ED
:10068000802008600846406820F4FE0048604FF46F
:100690001F008860FFF753FF4FF0006004490860B7
:1006A00010BD0000001002400000FFF8FFFFF6FE42
:1006B00008ED00E010B540F225511D4800F03EF86D
:1006C00010B31B4800F064F8C4B21A48008800F464
:1006D0000040C8B91748008800F4804060B10A2C77
:1006E00003D000201349088020E01248008840F41D
:1006F00000401049088019E00D2C06D10D480088F3
:1007000040F480400B49088010E00A480088C0F39C
:100710000D0009490C5407480088401C0549088011
:1007200008460088C72801DD0020088010BD0000B1
:1007300000380140200000202400002070B502464F
:10074000002400230025002040F66A16B14200D1A3
:1007500000BFC1F3421501F01F03012606FA03F39F
:10076000012D02D19689334006E0022D02D1168A6E
:10077000334001E0968A33400C12012606FA04F455
:100780001688344013B10CB1012000E0002070BD88
:1007900001468888C0F30800704700BFFEE70146A5
:1007A00000BF704708B501210820FFF7B7FE1020F1
:1007B0008DF803000001ADF8000003208DF8020061
:1007C00069460348FFF759FD00200249086008BD4B
:1007D000000C0140A081214210B56FF00400FFF72A
:1007E00023FF0A4800680A49B0FBF1F00949087084
:1007F0000846007800EB4001C1EBC0104FF6FF71D6
:1008000001EAC0000449088010BD0000000000207B
:1008100000127A0016000020180000200146114A3C
:1008200012884A434FF0E0235A6100229A611A4627
:10083000126942F001021A6100BF4FF0E022106914
:1008400000F001021AB100F48032002AF5D04FF016
:10085000E022126922F001024FF0E0231A61002227
:100860009A61704718000020FFF7B6FFFFF722FEDD
:10087000FFF798FFFFF700FE28E00120FFF794FD47
:1008800004461CB3012C06D0022C08D0032C0AD03D
:10089000042C1AD114E000200D49086015E0012055
:1008A0000B49086011E0012009490C3108604FF440
:1008B000FA70FFF7B3FF00200649C1F8A00104E079
:1008C000002003490C31086000BF00BFD5E70000DD
:1008D0009481214200802142F80800080000002095
:1008E000240000006C0100081C09000824000020FE
:1008F0002C0700008801000800A24A040000000044
:1009000000000000010203040607080901000000BE
:0C091000000000000000000000000000DB
:0400000508000131BD
:00000001FF
