:020000040800F2
:1000000040180020CD0100081D480008C304000866
:100010001948000875020008DF4E000800000000C3
:10002000000000000000000000000000454B000838
:10003000790200080000000091480008594C0008AF
:10004000E7010008E7010008E7010008E7010008F0
:10005000E7010008E7010008E7010008E7010008E0
:10006000E7010008E7010008E7010008E7010008D0
:10007000E7010008E7010008E7010008E7010008C0
:10008000E7010008E7010008E7010008E7010008B0
:10009000E7010008E7010008E7010008E7010008A0
:1000A000E7010008E7010008E7010008E701000890
:1000B000E7010008E7010008E7010008E701000880
:1000C000E7010008E7010008E7010008E701000870
:1000D000E7010008BD4C0008E7010008E70100083F
:1000E000E7010008E7010008E7010008E701000850
:1000F000E7010008E7010008E7010008E701000840
:10010000E7010008E7010008E7010008E70100082F
:10011000E7010008E7010008E7010008E70100081F
:10012000E7010008E7010008E7010008E70100080F
:1001300000F002F800F03AF80AA090E8000C8244BF
:100140008344AAF10107DA4501D100F02FF8AFF29C
:10015000090EBAE80F0013F0010F18BFFB1A43F0A5
:1001600001031847B86C0000D86C0000103A24BF97
:1001700078C878C1FAD8520724BF30C830C144BF0C
:1001800004680C607047000000230024002500264E
:10019000103A28BF78C1FBD8520728BF30C148BFEA
:1001A0000B6070471FB51FBD10B510BD00F033F8D0
:1001B0001146FFF7F7FF05F067F800F051F803B4B8
:1001C000FFF7F2FF03BC04F0D3FF000009488047AB
:1001D00009480047FEE7FEE7FEE7FEE7FEE7FEE729
:1001E000FEE7FEE7FEE7FEE704480549054A064B41
:1001F000704700005D4C00083101000840120020EB
:100200004018002040140020401400207047704720
:10021000704770477047754600F028F8AE460500F5
:100220006946534620F00700854618B020B5FFF711
:10023000DBFFBDE820404FF000064FF000074FF015
:1002400000084FF0000B21F00701AC46ACE8C009F4
:10025000ACE8C009ACE8C009ACE8C0098D467047FD
:100260000446AFF300802046FFF7A9FF004870471F
:10027000DC11002000BFFEE77047000051B1820092
:10028000A2F1C042126842F001038200A2F1C04212
:10029000136009E08200A2F1C0421268034B1A40C9
:1002A0008300A3F1C0431A6070470000FEFF0F00F7
:1002B000D0E901121143C268114302691143426936
:1002C000114382691143C2691143026A1143426AB0
:1002D0001143826A1143C26A1143026B11430268DF
:1002E0009200A2F1C0421160816808290BD1016817
:1002F0008900A1F1C041096841F04002016889000C
:10030000A1F1C0410A60416B0968426B526841EA41
:100310000211426B926841EA0221426B928941EAE2
:100320000241426B128A41EA0251426B127D41EA5C
:100330000261426B926911430268521C9200A2F161
:10034000C0421160C16AB1F5804F1BD1816B096851
:10035000826B526841EA0211826B926841EA022183
:10036000826B128A41EA0251826B127D41EA02617C
:10037000826B9269114302689200A2F1C042C2F8F6
:10038000041107E06FF0704201688900A1F1C041DB
:10039000C1F8042170472DE9F041024600250026EE
:1003A000002000230024002791F803C00CF00F0563
:1003B00091F803C00CF0100CBCF1000F03D091F8C1
:1003C00002C04CEA050591F800C0BCF1000F31D025
:1003D000146800202BE04FF0010C0CFA00F3B1F888
:1003E00000C00CEA03069E4220D183004FF00F0CA0
:1003F0000CFA03F7BC4305FA03FC4CEA040491F839
:1004000003C0BCF1280F06D14FF0010C0CFA00FC20
:10041000C2F814C00AE091F803C0BCF1480F05D13E
:100420004FF0010C0CFA00FCC2F810C0401C082868
:10043000D1D31460B1F800C0BCF1FF0F34DD5468B3
:1004400000202EE000F1080C4FF0010808FA0CF330
:10045000B1F800C00CEA03069E4221D183004FF0A0
:100460000F0C0CFA03F7BC4305FA03FC4CEA040436
:1004700091F803C0BCF1280F05D100F1080C08FA6F
:100480000CF8C2F8148091F803C0BCF1480F07D1F2
:1004900000F1080C4FF0010808FA0CF8C2F81080BF
:1004A000401C0828CED35460BDE8F08102460020ED
:1004B00093680B400BB1012000E000207047016100
:1004C000704700BFFEE7000010B5044614B90120D4
:1004D0002E4908702D48007800283BD010212C4868
:1004E000FFF7E4FF78B108212948FFF7DFFF50B19B
:1004F00004212748FFF7DAFF28B101212548FFF73B
:10050000D5FF012826D1032004F072FE00201F49E8
:10051000087010211E48FFF7C9FF08B9012010BD5F
:1005200008211B48FFF7C2FF08B90220F7E70421A2
:100530001748FFF7BBFF08B90320F0E70121154872
:10054000FFF7B4FF012801D10420E8E701200F499B
:10055000087019E010210E48FFF7A8FF012813D1F9
:1005600008210B48FFF7A2FF01280DD104210848FC
:10057000FFF79CFF012807D101210648FFF796FFEE
:1005800010B90120014908700020C8E77800002058
:10059000001801400008014008B50121442004F082
:1005A00099F948208DF803001C20ADF80000694639
:1005B0000648FFF7F0FE28208DF803000120ADF873
:1005C000000069460248FFF7E6FE08BD001801403A
:1005D0000008014070B50446002617480588408889
:1005E00045431548808846F60401884216D11248D2
:1005F0008079012812D100200F4988712A20488172
:100600002B2088810021084603F01CFF01200A49A5
:1006100088712B2048812A20888103E00021084628
:1006200003F010FF04F0B6F8002602E0034804804F
:10063000761CAE42FAD370BD040100200008006CA5
:1006400010B50446002C66D16C498871F0200880F2
:100650004FF4A07048800846808849F241318842B2
:100660000BD06648808846F60401884205D063486E
:10067000808845F2103188421AD12C205F490881C8
:100680002A2048812B2088810846808846F604016C
:10069000884205D05948808845F21031884206D1F9
:1006A0004FF4A070554908804FF4F0704880A1E0E5
:1006B0005248808845F21051884210D14FF4305092
:1006C0004E4908814FF4285048814FF42C508881BE
:1006D0004FF4F07008804FF4487048808AE0474833
:1006E000808841F6631188420DD12C20434908814E
:1006F0002B2048812A2088814FF4F07008804FF425
:100700004870488076E022203C49088120204881BA
:10071000212088816EE00120384988714FF4A07053
:100720000880F02048800846808849F2413188429C
:1007300005D03248808845F21031884207D12C20FC
:100740002E4908812A2048812B2088813FE02B48B0
:10075000808846F60401884207D12C202749088169
:100760002B2048812A20888131E02448808845F266
:100770001051884210D14FF43050204908814FF475
:10078000285048814FF42C5088814FF448700880DD
:100790004FF4F07048801AE01848808841F66311E1
:1007A00088420DD12C20154908812A2048812B2010
:1007B00088814FF4487008804FF4F070488006E05C
:1007C00022200E49088121204881202088810B4861
:1007D000808846F60401884205D00848808845F2A2
:1007E0001031884206D14FF4F070044908804FF46C
:1007F000A0704880002003F0AFFC10BD0401002071
:1008000030B503460C4615465A48808849F24131B6
:10081000884205D05748808845F21031884214D16B
:100820005449488903F0B0FF181203F0A7FFD8B26B
:1008300003F0A4FF4F49888903F0A6FF201203F0BC
:100840009DFFE0B203F09AFF8CE04A48808845F2B1
:100850001051884220D14749488903F095FF18126A
:1008600003F08CFF43494989491C88B203F08CFF8F
:10087000D8B203F083FF3F49888903F085FF201237
:1008800003F07CFF3B498989491C88B203F07CFF57
:10089000E0B203F073FF65E03648808841F66311EB
:1008A000884228D13348807920B932480088401ED8
:1008B000C01A83B22F49488903F066FF181203F06B
:1008C0005DFFD8B203F05AFF181203F057FFD8B2F9
:1008D00003F054FF2749888903F056FF201203F0E4
:1008E0004DFFE0B203F04AFF201203F047FFE0B2F1
:1008F00003F044FF36E01F48808846F60401884232
:100900001DD11C488079012804D11A480088401E56
:10091000C01A83B21749488903F036FF181203F052
:100920002DFFD8B203F02AFF1249888903F02CFF6B
:10093000201203F023FFE0B203F020FF12E00D4885
:100940008079012804D10B480088401EC01A83B268
:1009500008494889194603F027FF06498889214636
:1009600003F022FF0348008903490880881C0580A2
:1009700030BD000004010020FE07006C00B59FB0F0
:100980000121080203F086FF01214FF4B47003F047
:10099000A1FF0120ADF8780010208DF87B00032026
:1009A0008DF87A001EA9FE48FFF7F5FC4CF2337073
:1009B000ADF8780018208DF87B0003208DF87A00C0
:1009C0001EA9F848FFF7E7FC4FF68070ADF87800F5
:1009D00018208DF87B0003208DF87A001EA9F248BC
:1009E000FFF7D9FC41F20100ADF8780018208DF82E
:1009F0007B0003208DF87A001EA9EC48FFF7CBFCA2
:100A000001200890002009900F200A9000200B90F0
:100A10000C900D900E900190029003200390002006
:100A2000049005900690079006200F9000201090EB
:100A30001190102012900020139015901490169091
:100A400017904FF480501890002019904FF4804078
:100A50001A9000201B9008A81C9001A81D900FA8B8
:100A6000FFF726FC01210620FFF708FC322004F0E6
:100A7000BFFB002003F03AFBCD4988800846808800
:100A8000FF280ADB084680884FF6FF71884204D0B1
:100A9000C7488088B0F5134F7ED1D32003F074FE91
:100AA00003F01AFBC249888003F016FBC049888016
:100AB00003F012FBBE498880084680884FF6FF711C
:100AC00001EA0020BA49888003F006FBB84989880A
:100AD0000843B74988800846808849F241318842F6
:100AE0005AD0BF2003F050FE03F0F6FAB0498880D8
:100AF00003F0F2FAAE49888003F0EEFAAC49888040
:100B000003F0EAFAAA498880084680884FF6FF7108
:100B100001EA0020A649888003F0DEFAA44989880A
:100B20000843A34988800846808846F60401884225
:100B30007AD0D42003F028FE03F0CEFA9C498880B6
:100B400003F0CAFA9A49888003F0C6FA9849888067
:100B5000084680884FF6FF7101EA0020944988809A
:100B600003F0BAFA92498988084391498880084677
:100B7000808845F21031884256D04FF45A4003F035
:100B800003FE03F0A9FA8A4988804FF45B4003F022
:100B9000FBFD03F0A1FA00E046E0854988800846A5
:100BA00080884FF6FF7101EA0020814988804FF468
:100BB0005C4003F0E9FD03F08FFA7D498988084322
:100BC0007B49888008468088B0F5004F02D145F205
:100BD000105088807648808845F21051884223D092
:100BE000A12003F0D1FD03F077FA7149888003F06A
:100BF00073FA6F498880084680884FF6FF7101EAD2
:100C000000206B49888003F067FA694989880843A6
:100C1000674988800846808845F26171884203D11F
:100C200041F66310624988806148808849F2413109
:100C300088427CD1CF2003F0A7FD002003F09EFD69
:100C4000C12003F09BFD302003F098FDED2003F060
:100C50009BFD642003F092FD032003F08FFD122022
:100C600003F08CFD812003F089FDE82003F08CFD6A
:100C7000852003F083FD102003F080FD7A2003F02F
:100C80007DFDCB2003F080FD392003F077FD2C2083
:100C900003F074FD002003F071FD342003F06EFDBD
:100CA000022003F06BFDF72003F06EFD202003F01F
:100CB00065FDEA2003F068FD002003F05FFD0020E1
:100CC00003F05CFDC02003F05FFD1B2003F056FD28
:100CD000C12003F059FD012003F050FDC52003F0B1
:100CE00053FD302003F04AFD302003F047FDC720BC
:100CF00003F04AFDB72003F041FD362003F044FD28
:100D0000482003F03BFD3A2003F03EFD552003F060
:100D100035FDB12003F038FD002003F02FFD1A202F
:100D200003F02CFDB62003F02FFD0A2000E0A5E023
:100D300003F024FDA22003F021FDF22003F024FDA6
:100D4000002003F01BFD262003F01EFD012003F010
:100D500015FDE02003F018FD0F2003F00FFD2A2001
:100D600003F00CFD282003F009FD082003F006FD28
:100D70000E2003F003FD082003F000FD542003F0D3
:100D8000FDFCA92003F0FAFC432003F0F7FC0A2045
:100D900003F0F4FC0F2003F0F1FC00200AE0000057
:100DA000000C0140001401400018014000200140E7
:100DB0000401002003F0E2FC002003F0DFFC00202F
:100DC00003F0DCFC002003F0D9FCE12003F0DCFCA4
:100DD000002003F0D3FC152003F0D0FC172003F013
:100DE000CDFC072003F0CAFC112003F0C7FC06204D
:100DF00003F0C4FC2B2003F0C1FC562003F0BEFC22
:100E00003C2003F0BBFC052003F0B8FC102003F0ED
:100E1000B5FC0F2003F0B2FC3F2003F0AFFC3F20F5
:100E200003F0ACFC0F2003F0A9FC2B2003F0ACFC7A
:100E3000002003F0A3FC002003F0A0FC012003F03D
:100E40009DFC3F2003F09AFC2A2003F09DFC00202B
:100E500003F094FC002003F091FC002003F08EFCD2
:100E6000EF2003F08BFC112003F08EFC782004F0BF
:100E7000BFF9292003F088FC03F01DB9FE488088E3
:100E800046F6040188427CD1112003F07DFC142039
:100E900004F0AEF9D02003F077FC072003F06EFCDD
:100EA000422003F06BFC1D2003F068FCD12003F00E
:100EB0006BFC002003F062FC1A2003F05FFC0920A9
:100EC00003F05CFCD22003F05FFC012003F056FC31
:100ED000222003F053FCC02003F056FC102003F046
:100EE0004DFC3B2003F04AFC002003F047FC0220AD
:100EF00003F044FC112003F041FCC52003F044FC46
:100F0000032003F03BFCC82003F03EFC002003F06C
:100F100035FC252003F032FC212003F02FFC0520B6
:100F200003F02CFC002003F029FC0A2003F026FC2F
:100F3000652003F023FC252003F020FC772003F03C
:100F40001DFC502003F01AFC0F2003F017FC0020BA
:100F500003F014FCF82003F017FC012003F00EFC52
:100F6000FE2003F011FC002003F008FC022003F037
:100F700005FC202003F008FC362003F005FC0820C7
:100F800000E02CE003F0FAFB3A2003F0FDFB5520D3
:100F900003F0F4FB2B2003F0F7FB002003F0EEFB43
:100FA000002003F0EBFB012003F0E8FB3F2003F0FF
:100FB000E5FB2A2003F0E8FB002003F0DFFB002024
:100FC00003F0DCFB012003F0D9FBDF2003F0D6FBAC
:100FD000782004F00DF9292003F0D6FB4CE7A64851
:100FE000808845F21031884240F07C87ED2003F084
:100FF000CBFB012003F0C2FBFE2003F0BFFBEE2081
:1010000003F0C2FBDE2003F0B9FB212003F0B6FBA6
:10101000F12003F0B9FB012003F0B0FBDF2003F067
:10102000B3FB102003F0AAFBC42003F0ADFB8F201C
:1010300003F0A4FBC62003F0A7FB002003F09EFBF7
:10104000E22003F09BFBE22003F098FBE22003F098
:1010500095FBBF2003F098FBAA2003F08FFBB02084
:1010600003F092FB0D2003F089FB002003F086FBC8
:101070000D2003F083FB002003F080FB112003F020
:101080007DFB002003F07AFB192003F077FB0020A2
:1010900003F074FB212003F071FB002003F06EFBD2
:1010A0002D2003F06BFB002003F068FB3D2003F0D4
:1010B00065FB002003F062FB5D2003F05FFB002076
:1010C00003F05CFB5D2003F059FB002003F056FBAE
:1010D000B12003F059FB802003F050FB002003F007
:1010E0004DFB8B2003F04AFB002003F047FB9620CA
:1010F00003F044FB002003F041FBB22003F044FB6B
:10110000002003F03BFB002003F038FB022003F03B
:1011100035FB002003F032FB032003F02FFB0020FF
:1011200003F02CFBB32003F02FFB002003F026FB81
:10113000002003F023FB002003F020FB002003F03D
:101140001DFB002003F01AFB002003F017FB00201A
:1011500003F014FB002003F011FB002003F00EFB52
:10116000002003F00BFB002003F008FB002003F03D
:1011700005FB002003F002FB002003F0FFFA002033
:1011800003F0FCFA002003F0F9FA002003F0F6FA6D
:10119000002003F0F3FA002003F0F0FA002003F03F
:1011A000EDFA002003F0EAFA002003F0E7FA00204D
:1011B00003F0E4FA002003F0E1FAB42003F0E4FACB
:1011C0008B2003F0DBFA002003F0D8FA962003F01E
:1011D000D5FA002003F0D2FAA12003F0CFFA0020C4
:1011E00003F0CCFAB52003F0CFFA022003F0C6FAE0
:1011F000002003F0C3FA032003F0C0FA002003F03C
:10120000BDFA042003F0BAFA002003F0B7FAB620C2
:1012100003F0BAFA002003F0B1FA002003F0AEFAAE
:10122000B72003F0B1FA002003F0A8FA002003F081
:10123000A5FA3F2003F0A2FA002003F09FFA5E20F7
:1012400003F09CFA002003F099FA642003F096FA68
:10125000002003F093FA8C2003F090FA002003F0B2
:101260008DFAAC2003F08AFA002003F087FADC2024
:1012700003F084FA002001E00401002003F07EFA6C
:10128000702003F07BFA002003F078FA902003F03E
:1012900075FA002003F072FAEB2003F06FFA0020D9
:1012A00003F06CFADC2003F069FA002003F066FA20
:1012B000B82003F069FA002003F060FA002003F080
:1012C0005DFA002003F05AFA002003F057FA0020DC
:1012D00003F054FA002003F051FA002003F04EFA14
:1012E000002003F04BFABA2003F04EFA242003F05A
:1012F00045FA002003F042FA002003F03FFA0020F4
:1013000003F03CFAC12003F03FFA202003F036FA44
:10131000002003F033FA542003F030FA002003F0E9
:101320002DFAFF2003F02AFA002003F027FAC2204A
:1013300003F02AFA0A2003F021FA002003F01EFA33
:10134000042003F01BFA002003F018FAC32003F076
:101350001BFA3C2003F012FA002003F00FFA3A20A7
:1013600003F00CFA002003F009FA392003F006FA22
:10137000002003F003FA372003F000FA002003F006
:10138000FDF93C2003F0FAF9002003F0F7F93620CC
:1013900003F0F4F9002003F0F1F9322003F0EEF944
:1013A000002003F0EBF92F2003F0E8F9002003F010
:1013B000E5F92C2003F0E2F9002003F0DFF9292001
:1013C00003F0DCF9002003F0D9F9262003F0D6F968
:1013D000002003F0D3F9242003F0D0F9002003F01B
:1013E000CDF9242003F0CAF9002003F0C7F9232027
:1013F00003F0C4F9002003F0C1F93C2003F0BEF96A
:10140000002003F0BBF9362003F0B8F9002003F008
:10141000B5F9322003F0B2F9002003F0AFF92F2024
:1014200003F0ACF9002003F0A9F92C2003F0A6F991
:10143000002003F0A3F9292003F0A0F9002003F015
:101440009DF9262003F09AF9002003F097F9242053
:1014500003F094F9002003F091F9242003F08EF9B1
:10146000002003F08BF9232003F088F9002003F01B
:1014700085F9C42003F088F9622003F07FF9002089
:1014800003F07CF9052003F079F9002003F076F9E8
:10149000842003F073F9002003F070F9F02003F0CA
:1014A0006DF9002003F06AF9182003F067F90020B5
:1014B00003F064F9A42003F061F9002003F05EF961
:1014C000182003F05BF9002003F058F9502003F0D6
:1014D00055F9002003F052F90C2003F04FF90020D9
:1014E00003F04CF9172003F049F9002003F046F906
:1014F000952003F043F9002003F040F9F32003F0B6
:101500003DF9002003F03AF9E62003F037F9002016
:1015100003F034F9C52003F037F9322003F02EF937
:10152000002003F02BF9442003F028F9002003F0F9
:1015300025F9652003F022F9002003F01FF9762039
:1015400003F01CF9002003F019F9882003F016F9C4
:10155000002003F013F9C62003F016F9202003F051
:101560000DF9002003F00AF9172003F007F9002015
:1015700003F004F9012003F001F9002003F0FEF864
:10158000C72003F001F9002003F0F8F8002003F071
:10159000F5F8002003F0F2F8002003F0EFF8C8207F
:1015A00003F0F2F8002003F0E9F8002003F0E6F879
:1015B000002003F0E3F8002003F0E0F8C92003F076
:1015C000E3F8002003F0DAF8002003F0D7F8002059
:1015D00003F0D4F8002003F0D1F8002003F0CEF897
:1015E000002003F0CBF8002003F0C8F8002003F03F
:1015F000C5F8002003F0C2F8002003F0BFF8002077
:1016000003F0BCF8002003F0B9F8002003F0B6F8AE
:10161000002003F0B3F8002003F0B0F8002003F03E
:10162000ADF8E02003F0B0F8162003F0A7F8002092
:1016300003F0A4F81C2003F0A1F8002003F09EF8AA
:10164000212003F09BF8002003F098F8362003F0E7
:1016500095F8002003F092F8462003F08FF8002060
:1016600003F08CF8522003F089F8002003F086F88C
:10167000642003F083F8002003F080F87A2003F060
:101680007DF8002003F07AF88B2003F077F8002033
:1016900003F074F8992003F071F8002003F06EF85D
:1016A000A82003F06BF8002003F068F8B92003F0DD
:1016B00065F8002003F062F8C42003F05FF8002012
:1016C00003F05CF8CA2003F059F8002003F056F844
:1016D000D22003F053F8002003F050F8D92003F093
:1016E0004DF8002003F04AF8E02003F047F800200E
:1016F00003F044F8F32003F041F8002003F03EF833
:10170000E12003F041F8162003F038F8002003F040
:1017100035F81C2003F032F8002003F02FF82220C7
:1017200003F02CF8002003F029F8362003F026F807
:10173000002003F023F8452003F020F8002003F0F8
:101740001DF8522003F01AF8002003F017F8642067
:1017500003F014F8002003F011F87A2003F00EF8DB
:10176000002003F00BF88B2003F008F8002003F0B2
:1017700005F8992003F002F8002002F0FFFFA820EE
:1017800002F0FCFF002002F0F9FFB92002F0F6FFA2
:10179000002002F0F3FFC42002F0F0FF002002F06E
:1017A000EDFFCA2002F0EAFF002002F0E7FFD2209E
:1017B00002F0E4FF002002F0E1FFD82002F0DEFF9B
:1017C000002002F0DBFFE02002F0D8FF002002F052
:1017D000D5FFF32002F0D2FF002002F0CFFFE2207D
:1017E00002F0D2FF052002F0C9FF002002F0C6FF80
:1017F0000B2002F0C3FF002002F0C0FF1B2002F00C
:10180000BDFF002002F0BAFF342002F0B7FF002035
:1018100002F0B4FF442002F0B1FF002002F0AEFF5E
:101820004F2002F0ABFF002002F0A8FF612002F081
:10183000A5FF002002F0A2FF792002F09FFF002008
:1018400002F09CFF882002F099FF002002F096FF32
:10185000972002F093FF002002F090FFA62002F0F4
:101860008DFF002002F08AFFB72002F087FF0020E2
:1018700002F084FFC22002F081FF002002F07EFF10
:10188000C72002F07BFF002002F078FFD12002F099
:1018900075FF002002F072FFD62002F06FFF0020DB
:1018A00002F06CFFDD2002F069FF002002F066FF0D
:1018B000F32002F063FF002002F060FFE32002F05B
:1018C00063FF052002F05AFF002002F057FF0A20B4
:1018D00002F054FF002002F051FF1C2002F04EFFE6
:1018E000002002F04BFF332002F048FF002002F0FE
:1018F00045FF442002F042FF002002F03FFF50204D
:1019000002F03CFF002002F039FF622002F036FFB7
:10191000002002F033FF782002F030FF002002F0B8
:101920002DFF882002F02AFF002002F027FF9720D9
:1019300002F024FF002002F021FFA62002F01EFF8B
:10194000002002F01BFFB72002F018FF002002F079
:1019500015FFC22002F012FF002002F00FFFC72087
:1019600002F00CFF002002F009FFD12002F006FF78
:10197000002002F003FFD52002F000FF002002F05B
:10198000FDFEDD2002F0FAFE002002F0F7FEF3205B
:1019900002F0F4FE002002F0F1FEE42002F0F4FE7A
:1019A000012002F0EBFE002002F0E8FE012002F030
:1019B000E5FE002002F0E2FE022002F0DFFE002041
:1019C00002F0DCFE2A2002F0D9FE002002F0D6FE52
:1019D0003C2002F0D3FE002002F0D0FE4B2002F0AB
:1019E000CDFE002002F0CAFE5D2002F0C7FE0020FE
:1019F00002F0C4FE742002F0C1FE002002F0BEFE20
:101A0000842002F0BBFE002002F0B8FE932002F01A
:101A1000B5FE002002F0B2FEA22002F0AFFE0020D0
:101A200002F0ACFEB32002F0A9FE002002F0A6FEF8
:101A3000BE2002F0A3FE002002F0A0FEC42002F0AF
:101A40009DFE002002F09AFECD2002F097FE0020BD
:101A500002F094FED32002F091FE002002F08EFEF0
:101A6000DD2002F08BFE002002F088FEF32002F061
:101A700085FE002002F082FEE52002F085FE0020B7
:101A800002F07CFE002002F079FE002002F076FEDB
:101A9000002002F073FE022002F070FE002002F02F
:101AA0006DFE292002F06AFE002002F067FE3C2055
:101AB00002F064FE002002F061FE4B2002F05EFEA8
:101AC000002002F05BFE5D2002F058FE002002F0D4
:101AD00055FE742002F052FE002002F04FFE8420DA
:101AE00002F04CFE002002F049FE932002F046FE78
:101AF000002002F043FEA22002F040FE002002F08F
:101B00003DFEB32002F03AFE002002F037FEBE2078
:101B100002F034FE002002F031FEC42002F02EFE5E
:101B2000002002F02BFECD2002F028FE002002F063
:101B300025FED32002F022FE002002F01FFEDC2052
:101B400002F01CFE002002F019FEF32002F016FE47
:101B5000002002F013FEE62002F016FE112002F033
:101B60000DFE002002F00AFE342002F007FE0020E5
:101B700002F004FE562002F001FE002002F0FEFDFD
:101B8000762002F0FBFD002002F0F8FD772002F045
:101B9000F5FD002002F0F2FD662002F0EFFD0020CE
:101BA00002F0ECFD882002F0E9FD002002F0E6FDE5
:101BB000992002F0E3FD002002F0E0FDBB2002F0DE
:101BC000DDFD002002F0DAFD992002F0D7FD0020B3
:101BD00002F0D4FD662002F0D1FD002002F0CEFD1F
:101BE000552002F0CBFD002002F0C8FD552002F088
:101BF000C5FD002002F0C2FD452002F0BFFD00201F
:101C000002F0BCFD432002F0B9FD002002F0B6FD59
:101C1000442002F0B3FD002002F0B0FDE72002F006
:101C2000B3FD322002F0AAFD002002F0A7FD5520EE
:101C300002F0A4FD002002F0A1FD762002F09EFD3E
:101C4000002002F09BFD662002F098FD002002F0CB
:101C500095FD672002F092FD002002F08FFD6720C5
:101C600002F08CFD002002F089FD872002F086FD45
:101C7000002002F083FD992002F080FD002002F098
:101C80007DFDBB2002F07AFD002002F077FD992057
:101C900002F074FD002002F071FD772002F06EFD6D
:101CA000002002F06BFD442002F068FD002002F0ED
:101CB00065FD562002F062FD002002F05FFD23204A
:101CC00002F05CFD002002F059FD332002F056FDC9
:101CD000002002F053FD452002F050FD002002F0EC
:101CE0004DFDE82002F050FD002002F047FD0020ED
:101CF00002F044FD992002F041FD002002F03EFD7B
:101D0000872002F03BFD002002F038FD882002F021
:101D100035FD002002F032FD772002F02FFD00207B
:101D200002F02CFD662002F029FD002002F026FDC5
:101D3000882002F023FD002002F020FDAA2002F0FE
:101D40001DFD002002F01AFDBB2002F017FD00204F
:101D500002F014FD992002F011FD002002F00EFDAA
:101D6000662002F00BFD002002F008FD552002F075
:101D700005FD002002F002FD552002F0FFFC0020CE
:101D800002F0FCFC442002F0F9FC002002F0F6FC1A
:101D9000442002F0F3FC002002F0F0FC552002F099
:101DA000EDFC002002F0EAFCE92002F0EDFCAA20A4
:101DB00002F0E4FC002002F0E1FC002002F0DEFC76
:101DC000002002F0DBFC002002F0DEFCAA2002F082
:101DD000D5FCCF2002F0D8FC002002F0CFFC002080
:101DE00002F0CCFC002002F0C9FC002002F0C6FC8E
:101DF000002002F0C3FC002002F0C0FC002002F032
:101E0000BDFC002002F0BAFC002002F0B7FC00206C
:101E100002F0B4FC002002F0B1FC002002F0AEFCA5
:101E2000002002F0ABFC002002F0A8FC002002F031
:101E3000A5FC002002F0A2FC002002F09FFCF02094
:101E400002F0A2FC002002F099FC502002F096FC67
:101E5000002002F093FC002002F090FC002002F031
:101E60008DFCF32002F090FC002002F087FCF920AA
:101E700002F08AFC062002F081FC102002F07EFCB9
:101E8000292002F07BFC002002F078FC3A2002F0CE
:101E90007BFC552002F072FC112002F075FC6420DE
:101EA00003F0A6F9292002F06FFC352002F06CFC4B
:101EB000002002F063FC512002F066FCFF2002F0DB
:101EC0005DFC532002F060FC2C2002F057FC5520F2
:101ED00002F05AFC822002F051FC2C2002F054FC4B
:101EE00002F0E9B8FE48808845F2105188427DD161
:101EF00055214FF4704002F057FCAA214FF2010027
:101F000002F052FC52214FF2020002F04DFC082177
:101F10004FF2030002F048FC01214FF2040002F0EE
:101F200043FC0D214FF4304002F03EFC0D214BF2FA
:101F3000010002F039FC0D214BF2020002F034FCEA
:101F400034214FF4364002F02FFC34214BF2016073
:101F500002F02AFC34214BF2026002F025FC0D2134
:101F60004FF4314002F020FC0D214BF2011002F041
:101F70001BFC0D214BF2021002F016FC34214FF431
:101F8000374002F011FC34214BF2017002F00CFCDE
:101F900034214BF2027002F007FC00214FF4324072
:101FA00002F002FC00214BF2012002F0FDFB0021B7
:101FB0004BF2022002F0F8FB24214FF4384002F0EB
:101FC000F3FB24214BF6010002F0EEFB24214BF63B
:101FD000020002F0E9FB01214FF43F4002F0E4FB74
:101FE0000F214FF4334002F0DFFB00E0FDE30F214F
:101FF0004BF2013002F0D8FB0F214BF2023002F01D
:10200000D3FB34214FF4394002F0CEFB34214BF6A0
:10201000011002F0C9FB34214BF6021002F0C4FBA0
:1020200008214FF4354002F0BFFB08214BF201506C
:1020300002F0BAFB08214BF2025002F0B5FB03217B
:102040004FF4424002F0B0FB24214FF43A4002F03A
:10205000ABFB24214BF6012002F0A6FB24214BF61A
:10206000022002F0A1FB00214FF43C4002F09CFB57
:1020700078214BF6014002F097FB00214BF602401D
:1020800002F092FB00214FF43D4002F08DFB7821DD
:102090004BF6015002F088FB00214BF6025002F093
:1020A00083FB00214FF43E4002F07EFB64214BF69F
:1020B000016002F079FB00214FF4514002F074FB03
:1020C00033214DF2011002F06FFB00214DF202109E
:1020D00002F06AFB34214DF2031002F065FB00218F
:1020E0004DF2041002F060FB3A214DF2051002F0AF
:1020F0005BFB00214DF2061002F056FB4A214DF227
:10210000071002F051FB00214DF2081002F04CFBC9
:102110005C214DF2091002F047FB00214DF20A103C
:1021200002F042FB81214DF20B1002F03DFB002139
:102130004DF20C1002F038FBA6214DF20D1002F00A
:1021400033FB00214DF20E1002F02EFBE5214DF283
:102150000F1002F029FB01214DF2101002F024FBB8
:1021600013214DF2111002F01FFB01214DF212104C
:1021700002F01AFB54214DF2131002F015FB01215D
:102180004DF2141002F010FB82214DF2151002F0F6
:102190000BFB01214DF2161002F006FBCA214DF295
:1021A000171002F001FB02214DF2181002F0FCFAA8
:1021B00000214DF2191002F0F7FA02214DF21A1027
:1021C00002F0F2FA01214DF21B1002F0EDFA0221A9
:1021D0004DF21C1002F0E8FA34214DF21D1002F00D
:1021E000E3FA02214DF21E1002F0DEFA67214DF2F1
:1021F0001F1002F0D9FA02214DF2201002F0D4FA99
:1022000084214DF2211002F0CFFA02214DF222106A
:1022100002F0CAFAA4214DF2231002F0C5FA0221FD
:102220004DF2241002F0C0FAB7214DF2251002F051
:10223000BBFA02214DF2261002F0B6FACF214DF280
:10224000271002F0B1FA02214DF2281002F0ACFA88
:10225000DE214DF2291002F0A7FA02214DF22A10D8
:1022600002F0A2FAF2214DF22B1002F09DFA0221A7
:102270004DF22C1002F098FAFE214DF22D1002F0D2
:1022800093FA03214DF22E1002F08EFA10214DF236
:102290002F1002F089FA03214DF2301002F084FA77
:1022A00033214DF2311002F07FFA03214DF232104A
:1022B00002F07AFA6D214DF2331002F075FA002126
:1022C0004FF4524002F070FA33214DF2012002F037
:1022D0006BFA00214DF2022002F066FA342101E08F
:1022E000040100204DF2032002F05EFA00214DF2BD
:1022F000042002F059FA3A214DF2052002F054FA76
:1023000000214DF2062002F04FFA4A214DF207203B
:1023100002F04AFA00214DF2082002F045FA5C2151
:102320004DF2092002F040FA00214DF20A2002F09D
:102330003BFA81214DF20B2002F036FA00214DF2DA
:102340000C2002F031FAA6214DF20D2002F02CFAF9
:1023500000214DF20E2002F027FAE5214DF20F2068
:1023600002F022FA01214DF2102002F01DFA132191
:102370004DF2112002F018FA01214DF2122002F064
:1023800013FA54214DF2132002F00EFA01214DF2FE
:10239000142002F009FA82214DF2152002F004FA0D
:1023A00001214DF2162002F0FFF9CA214DF217204B
:1023B00002F0FAF902214DF2182002F0F5F900219D
:1023C0004DF2192002F0F0F902214DF21A2002F02C
:1023D000EBF901214DF21B2002F0E6F902214DF24A
:1023E0001C2002F0E1F934214DF21D2002F0DCF94D
:1023F00002214DF21E2002F0D7F967214DF21F2075
:1024000002F0D2F902214DF2202002F0CDF9842110
:102410004DF2212002F0C8F902214DF2222002F0F3
:10242000C3F9A4214DF2232002F0BEF902214DF29E
:10243000242002F0B9F9B7214DF2252002F0B4F9B9
:1024400002214DF2262002F0AFF9CF214DF22720D4
:1024500002F0AAF902214DF2282002F0A5F9DE21AE
:102460004DF2292002F0A0F902214DF22A2002F0BB
:102470009BF9F2214DF22B2002F096F902214DF248
:102480002C2002F091F9FE214DF22D2002F08CF962
:1024900003214DF22E2002F087F910214DF22F205A
:1024A00002F082F903214DF2302002F07DF9332150
:1024B0004DF2312002F078F903214DF2322002F082
:1024C00073F96D214DF2332002F06EF900214FF4C3
:1024D000534002F069F933214DF2013002F064F902
:1024E00000214DF2023002F05FF934214DF2033049
:1024F00002F05AF900214DF2043002F055F93A2168
:102500004DF2053002F050F900214DF2063002F094
:102510004BF94A214DF2073002F046F900214DF205
:10252000083002F041F95C214DF2093002F03CF92B
:1025300000214DF20A3002F037F981214DF20B30C3
:1025400002F032F900214DF20C3002F02DF9A621F3
:102550004DF20D3002F028F900214DF20E3002F05C
:1025600023F9E5214DF20F3002F01EF901214DF261
:10257000103002F019F913214DF2113002F014F964
:1025800001214DF2123002F00FF954214DF21330B7
:1025900002F00AF901214DF2143002F005F982210E
:1025A0004DF2153002F000F901214DF2163002F023
:1025B000FBF8CA214DF2173002F0F6F802214DF275
:1025C000183002F0F1F800214DF2193002F0ECF869
:1025D00002214DF21A3002F0E7F801214DF21B30D2
:1025E00002F0E2F802214DF21C3002F0DDF8342155
:1025F0004DF21D3002F0D8F802214DF21E3002F0EB
:10260000D3F867214DF21F3002F0CEF802214DF2CF
:10261000203002F0C9F884214DF2213002F0C4F8D4
:1026200002214DF2223002F0BFF8A4214DF22330F6
:1026300002F0BAF802214DF2243002F0B5F8B721C9
:102640004DF2253002F0B0F802214DF2263002F0B2
:10265000ABF8CF214DF2273002F0A6F802214DF25F
:10266000283002F0A1F8DE214DF2293002F09CF86A
:1026700002214DF22A3002F097F8F2214DF22B3070
:1026800002F092F802214DF22C3002F08DF8FE217A
:102690004DF22D3002F088F803214DF22E3002F079
:1026A00083F810214DF22F3002F07EF803214DF215
:1026B000303002F079F833214DF2313002F074F805
:1026C00003214DF2323002F06FF86D214DF23330BC
:1026D00002F06AF800214FF4544002F065F833210B
:1026E0004DF2014002F060F800214DF2024002F08C
:1026F0005BF834214DF2034002F056F800214DF210
:10270000044002F051F83A214DF2054002F04CF835
:1027100000214DF2064002F047F84A214DF20740F1
:1027200002F042F800214DF2084002F03DF85C2131
:102730004DF2094002F038F800214DF20A4002F053
:1027400033F881214DF20B4002F02EF800214DF2BA
:102750000C4002F029F8A6214DF20D4002F024F8B9
:1027600000214DF20E4002F01FF8E5214DF20F401E
:1027700002F01AF801214DF2104002F015F8132171
:102780004DF2114002F010F801214DF2124002F01A
:102790000BF854214DF2134002F006F801214DF2DE
:1027A000144002F001F882214DF2154001F0FCFFC7
:1027B00001214DF2164001F0F7FFCA214DF21740FA
:1027C00001F0F2FF02214DF2184001F0EDFF00216F
:1027D0004DF2194001F0E8FF02214DF21A4001F0DC
:1027E000E3FF01214DF21B4000E006E301F0DCFFB6
:1027F00002214DF21C4001F0D7FF34214DF21D4063
:1028000001F0D2FF02214DF21E4001F0CDFF672101
:102810004DF21F4001F0C8FF02214DF2204001F0AF
:10282000C3FF84214DF2214001F0BEFF02214DF291
:10283000224001F0B9FFA4214DF2234001F0B4FF82
:1028400002214DF2244001F0AFFFB7214DF22540A7
:1028500001F0AAFF02214DF2264001F0A5FFCF2191
:102860004DF2274001F0A0FF02214DF2284001F077
:102870009BFFDE214DF2294001F096FF02214DF22F
:102880002A4001F091FFF2214DF22B4001F08CFF24
:1028900002214DF22C4001F087FFFE214DF22D4028
:1028A00001F082FF03214DF22E4001F07DFF102147
:1028B0004DF22F4001F078FF03214DF2304001F03E
:1028C00073FF33214DF2314001F06EFF03214DF2D1
:1028D000324001F069FF6D214DF2334001F064FF99
:1028E00000214FF4554001F05FFF33214DF20150BC
:1028F00001F05AFF00214DF2025001F055FF342142
:102900004DF2035001F050FF00214DF2045001F050
:102910004BFF3A214DF2055001F046FF00214DF2E8
:10292000065001F041FF4A214DF2075001F03CFFF3
:1029300000214DF2085001F037FF5C214DF20950A3
:1029400001F032FF00214DF20A5001F02DFF8121EC
:102950004DF20B5001F028FF00214DF20C5001F018
:1029600023FFA6214DF20D5001F01EFF00214DF274
:102970000E5001F019FFE5214DF20F5001F014FF48
:1029800001214DF2105001F00FFF13214DF21150B3
:1029900001F00AFF01214DF2125001F005FF542110
:1029A0004DF2135001F000FF01214DF2145001F0DF
:1029B000FBFE82214DF2155001F0F6FE01214DF291
:1029C000165001F0F1FECA214DF2175001F0ECFE55
:1029D00002214DF2185001F0E7FE00214DF219508E
:1029E00001F0E2FE02214DF21A5001F0DDFE01215C
:1029F0004DF21B5001F0D8FE02214DF21C5001F0A7
:102A0000D3FE34214DF21D5001F0CEFE02214DF2D5
:102A10001E5001F0C9FE67214DF21F5001F0C4FEA7
:102A200002214DF2205001F0BFFE84214DF22150D1
:102A300001F0BAFE02214DF2225001F0B5FEA421B0
:102A40004DF2235001F0B0FE02214DF2245001F06E
:102A5000ABFEB7214DF2255001F0A6FE02214DF24A
:102A6000265001F0A1FECF214DF2275001F09CFE2F
:102A700002214DF2285001F097FEDE214DF229503F
:102A800001F092FE02214DF22A5001F08DFEF2215A
:102A90004DF22B5001F088FE02214DF22C5001F036
:102AA00083FEFE214DF22D5001F07EFE03214DF2FA
:102AB0002E5001F079FE10214DF22F5001F074FEDE
:102AC00003214DF2305001F06FFE33214DF23150B1
:102AD00001F06AFE03214DF2325001F065FE6D21D6
:102AE0004DF2335001F060FE00214FF4564001F0EA
:102AF0005BFE33214DF2016001F056FE00214DF2E4
:102B0000026001F051FE34214DF2036001F04CFEF1
:102B100000214DF2046001F047FE3A214DF20560BC
:102B200001F042FE00214DF2066001F03DFE4A2117
:102B30004DF2076001F038FE00214DF2086001F00F
:102B400033FE5C214DF2096001F02EFE00214DF2B2
:102B50000A6001F029FE81214DF20B6001F024FE94
:102B600000214DF20C6001F01FFEA6214DF20D6018
:102B700001F01AFE00214DF20E6001F015FEE52174
:102B80004DF20F6001F010FE01214DF2106001F0D6
:102B90000BFE13214DF2116001F006FE01214DF2F2
:102BA000126001F001FE54214DF2136001F0FCFDB2
:102BB00001214DF2146001F0F7FD82214DF2156004
:102BC00001F0F2FD01214DF2166001F0EDFDCA2188
:102BD0004DF2176001F0E8FD02214DF2186001F09E
:102BE000E3FD00214DF2196001F0DEFD02214DF2FE
:102BF0001A6001F0D9FD01214DF21B6001F0D4FDF6
:102C000002214DF21C6001F0CFFD34214DF21D6018
:102C100001F0CAFD02214DF21E6001F0C5FD6721E1
:102C20004DF21F6001F0C0FD02214DF2206001F065
:102C3000BBFD84214DF2216001F0B6FD02214DF271
:102C4000226001F0B1FDA4214DF2236001F0ACFD42
:102C500002214DF2246001F0A7FDB7214DF225605D
:102C600001F0A2FD02214DF2266001F09DFDCF2171
:102C70004DF2276001F098FD02214DF2286001F02D
:102C800093FDDE214DF2296001F08EFD02214DF20F
:102C90002A6001F089FDF2214DF22B6001F084FDE4
:102CA00002214DF22C6001F07FFDFE214DF22D60DE
:102CB00001F07AFD03214DF22E6001F075FD102127
:102CC0004DF22F6001F070FD03214DF2306001F0F4
:102CD0006BFD33214DF2316001F066FD03214DF2B1
:102CE000326001F061FD6D214DF2336001F05CFD59
:102CF00055214FF4704001F057FDAA214FF2010019
:102D000001F052FD52214FF2020001F04DFD082169
:102D10004FF2030001F048FD00214FF2040001F0E2
:102D200043FDCC214FF4314001F03EFD00214BF238
:102D3000011001F039FD05214FF4364001F034FD5A
:102D400070214FF4374001F02FFD70214BF20170DC
:102D500001F02AFD01214FF4384001F025FD032147
:102D60004BF6010001F020FD03214BF6020001F0BB
:102D70001BFD03214BF6030001F016FD02214FF469
:102D80003C4001F011FD00214BF6014001F00CFD2B
:102D900000214BF6024001F007FDD0214FF44940DD
:102DA00001F002FD02214CF6011001F0FDFC502162
:102DB0004CF6021001F0F8FC50214CF6031001F023
:102DC000F3FC50214CF6041001F0EEFC00214FF40E
:102DD000545001F0E9FC55214FF4685001F0E4FC37
:102DE0004FF4885001F0D0FC782002F027FA4FF41D
:102DF000245001F0C9FC01F05EB9FE48808849F218
:102E0000253188427ED147F6F001E52001F0CCFC67
:102E10004FF48071012001F0C7FC4FF4E061022003
:102E200001F0C2FC41F23001032001F0BDFC0021A1
:102E3000042001F0B9FC40F20221082001F0B4FCAA
:102E40000021092001F0B0FC00210A2001F0ACFCB7
:102E500000210C2001F0A8FC00210D2001F0A4FCB1
:102E600000210F2001F0A0FC0021102001F09CFCAB
:102E70000721112001F098FC0021122001F094FCA0
:102E80000021132001F090FC0021072001F08CFCB0
:102E900041F29061102001F087FC40F227211120BF
:102EA00001F082FC9D21122001F07EFC4FF4C851FC
:102EB000132001F079FC2521292001F075FC0D215A
:102EC0002B2001F071FC0721302001F06DFC40F255
:102ED0000331312001F068FC0321322001F064FC51
:102EE00040F20621352001F05FFC0821362001F078
:102EF0005BFC40F20641372001F056FC4FF4417173
:102F0000382000E057E001F04FFC0721392001F0A4
:102F10004BFC40F202613C2001F046FC08213D20C0
:102F200001F042FC0021502001F03EFCEF21512035
:102F300001F03AFC0021522001F036FC40F23F1132
:102F4000532001F031FC4FF42741602001F02CFCAC
:102F50000121612001F028FC00216A2001F024FCFD
:102F60000021802001F020FC0021812001F01CFCC8
:102F70000021822001F018FC0021832001F014FCC4
:102F80000021842001F010FC0021852001F00CFCC0
:102F90001021902001F008FC4FF4C061922001F054
:102FA00003FC40F23311072001F0FEFB2221002038
:102FB00001F0FAFB1FE78F48808849F228318842E8
:102FC0007ED141F28F01EC2001F0EEFB41F2342181
:102FD000EF2001F0E9FB4FF48071012001F0E4FBE8
:102FE0004FF4E061022001F0DFFB41F230010320E9
:102FF00001F0DAFB0021042001F0D6FB40F20221AF
:10300000082001F0D1FB0021092001F0CDFB0021B7
:103010000A2001F0C9FB01210C2001F0C5FB0021B1
:103020000D2001F0C1FB00210F2001F0BDFB0021AC
:10303000102001F0B9FB0721112001F0B5FB0021A0
:10304000122001F0B1FB0021132001F0ADFB0121A2
:10305000072001F0A9FB322002F0CAF841F29041AA
:10306000102001F0A1FB40F22721112001F09CFB70
:10307000322002F0BDF88A21122001F095FB3220A7
:1030800002F0B6F84FF4D051132001F08DFB062169
:10309000292001F089FB0D212B2001F085FB322036
:1030A00002F0A6F80021202001F07EFB0021212063
:1030B00001F07AFB322002F09BF80021302000E082
:1030C00074E001F071FB40F20461312001F06CFB0F
:1030D00040F20531322001F067FB0021352001F07C
:1030E00063FB40F60941362001F05EFB4FF40171AD
:1030F000372001F059FB40F20131382001F054FB38
:1031000040F20771392001F04FFB00213C2001F013
:103110004BFB40F60A213D2001F046FB322002F035
:1031200067F80021502001F03FFBEF21512001F012
:103130003BFB0021522001F037FB40F23F115320AE
:1031400001F032FB4FF42741602001F02DFB0121FB
:10315000612001F029FB00216A2001F025FB0021FC
:10316000802001F021FB0021812001F01DFB0021C6
:10317000822001F019FB0021832001F015FB0021C2
:10318000842001F011FB0021852001F00DFB1021AE
:10319000902001F009FB4FF4C061922001F004FB84
:1031A00040F23311072001F0FFFA24E6114880882D
:1031B00049F2203188427DD10021084601F0F4FA1D
:1031C0004FF48071012001F0EFFA4FF4E06102202A
:1031D00001F0EAFA41F23001032001F0E5FA0021A2
:1031E000042001F0E1FA40F20221082001F0DCFAAB
:1031F000002101E004010020092001F0D5FA00219E
:103200000A2001F0D1FA01210C2001F0CDFA0021B1
:103210000D2001F0C9FA00210F2001F0C5FA32207B
:1032200001F0E6FF40F20111072001F0BDFA322063
:1032300001F0DEFF4FF48651102001F0B5FA0721AE
:10324000112001F0B1FA4FF48871122001F0ACFAAC
:103250004FF43061132001F0A7FA0021292001F07A
:10326000A3FA44F210012B2001F09EFA0021502015
:1032700001F09AFAEF21512001F096FA0021522034
:1032800001F092FA40F23F11532001F08DFA4FF411
:103290001C51602001F088FA0121612001F084FABC
:1032A00000216A2001F080FA0021802001F07CFAE0
:1032B000002100E031E0812001F076FA0021822037
:1032C00001F072FA0021832001F06EFA00218420BF
:1032D00001F06AFA0021852001F066FA10219020A1
:1032E00001F062FA0021922001F05EFA01219320A0
:1032F00001F05AFA4FF48871952001F055FA002137
:10330000972001F051FA0021982001F04DFA40F287
:103310007311072001F048FA6DE5FE48808849F2F4
:10332000313188427DD141F21401E72001F03CFAAD
:103330004FF48071012001F037FA4FF40071022040
:1033400001F032FA41F23801032001F02DFA40F287
:103350000221082001F028FA0021092001F024FAB6
:1033600000210A2001F020FA00210C2001F01CFAB3
:1033700000210D2001F018FA00210F2001F014FAAD
:103380000021102001F010FA0721112001F00CFAA1
:103390000021122001F008FA0021132001F004FAA4
:1033A000C82001F025FF41F29061102001F0FCF9E6
:1033B00040F22721112001F0F7F9322001F018FF27
:1033C0000C21122001F0F0F9322001F011FF4FF42E
:1033D0000061132001F0E8F91121292001F0E4F93E
:1033E0000B212B2001F0E0F9322001F001FF002138
:1033F000202001F0D9F940F23F11212001F0D4F949
:103400000021302001F0D0F94FF48371312001F018
:10341000CBF90021322001F0C7F94FF401713520BA
:1034200000E064E001F0C0F941F20A61362001F0E9
:10343000BBF940F20771372001F0B6F94FF4837100
:10344000382001F0B1F940F20771392001F0ACF9F0
:1034500040F202413C2001F0A7F940F60F413D2027
:1034600001F0A2F90021502001F09EF9EF21512036
:1034700001F09AF90021522001F096F940F23F1133
:10348000532001F091F94FF41C51602001F08CF9A8
:103490000121612001F088F900216A2001F084F9FE
:1034A0000021802001F080F90021812001F07CF9C9
:1034B0000021822001F078F90021832001F074F9C5
:1034C0000021842001F070F90021852001F06CF9C1
:1034D0001021902001F068F94FF4C061922001F0B2
:1034E00063F940F23311072001F05EF983E4894863
:1034F000808845F2084188427ED14FF480710120D6
:1035000001F052F94FF4E061022001F04DF941F26F
:103510003001032001F048F90021042001F044F9B2
:1035200040F20721082001F03FF90021092001F0B5
:103530003BF900210A2001F037F900210C2001F0AD
:1035400033F900210D2001F02FF900210F2001F0A7
:103550002BF9142001F04CFE41F2B061102001F073
:1035600023F90121112001F01FF90121172001F099
:103570001BF94FF49C71122001F016F94FF4006111
:10358000132001F011F90921292001F00DF9092179
:103590002A2001F009F90021A42001F005F90021F9
:1035A000502001F001F9EF21512001F0FDF8002138
:1035B000522001F0F9F840F23F11532001F0F4F8E5
:1035C0004FF41C51602001F0EFF80121612001F05F
:1035D000EBF800216A2001F0E7F80021802001F0DB
:1035E000E3F80021812001F0DFF80021822001F0C2
:1035F000DBF80021832000E023E001F0D5F8002172
:10360000842001F0D1F80021852001F0CDF81321AC
:10361000902001F0C9F80021922001F0C5F80321A3
:10362000932001F0C1F84FF48871952001F0BCF8A7
:1036300040F27311072001F0B7F8322001F0D8FDF5
:10364000B8E43448808841F2055188427ED1002197
:10365000072001F0A9F8322001F0CAFD4FF48E7165
:10366000122001F0A1F80121A42001F09DF80F2102
:10367000082001F099F808210A2001F095F80821A6
:103680000D2001F091F840F20771302001F08CF824
:103690000721312001F088F840F20361322001F067
:1036A00083F84FF4E061332001F07EF840F202210C
:1036B000342001F079F80221352001F075F841F647
:1036C0000F71362001F070F840F20771372001F0D9
:1036D0006BF80021382001F067F80021392001F053
:1036E00063F840F207713A2001F05EF800213B20B8
:1036F00001F05AF807213C2001F056F800213D2046
:1037000001F052F8322001F073FD0121072001F091
:103710004BF801E0040100200121172001F044F8DA
:10372000322001F065FD4FF4BD51102001F03CF84E
:1037300040F21721112001F037F84FF48F71122059
:1037400001F032F84FF47061132000E097E001F0CF
:103750002BF800212A2001F027F80A21292001F066
:1037600023F84FF49F71122001F01EF80021502021
:1037700001F01AF8EF21512001F016F80021522033
:1037800001F012F840F23F11532001F00DF84FF410
:103790001C51602001F008F80121612001F004F8BB
:1037A00000216A2001F000F80021802000F0FCFFD9
:1037B0000021812000F0F8FF0021822000F0F4FFBA
:1037C0000021832000F0F0FF0021842000F0ECFFB6
:1037D0000021852000F0E8FF1321902000F0E4FF95
:1037E0004FF44071922000F0DFFF0521932000F09C
:1037F000DBFF0021952000F0D7FF0021972000F08B
:10380000D3FF0021982000F0CFFF4FF480710120FA
:1038100000F0CAFF4FF4E061022000F0C5FF41F262
:103820003801032000F0C0FF0021042000F0BCFF9D
:1038300000210C2000F0B8FF00210F2000F0B4FFA1
:103840000021202000F0B0FF0021212000F0ACFF7B
:103850002121072000F0A8FF142001F0C9FC6121FC
:10386000072000F0A1FF142001F0C2FC40F2731108
:10387000072000F099FF142001F0BAFC95E4FE48FF
:1038800080884BF2055188427ED10021084600F025
:103890008BFF0021084600F087FF0021084600F05A
:1038A00083FF0021084600F07FFF0121A42000F0E3
:1038B0007BFF142001F09CFC4FF41C51602000F0B1
:1038C00073FF40F20221082000F06EFF4FF40571F3
:1038D000302000F069FF43F21571312000F064FFE1
:1038E00040F20461322000F05FFF40F616613320A1
:1038F00000F05AFF42F21121342000F055FF4FF43E
:10390000A851352000F050FF48F20751362000F052
:103910004BFF41F20741372000F046FF41F20341DF
:10392000382000F041FF2021392000F03DFF1A210E
:10393000902000F039FF0021102000F035FF072112
:10394000112000F031FF0021122000F02DFF002196
:10395000132000F029FF142001F04AFC4FF4E66127
:10396000102000F021FF40F23711112000F01CFF61
:10397000142001F03DFC4FF4DC71122000F014FF24
:10398000142001F035FC00E083E04FF47061132057
:1039900000F00AFF80212A2000F006FF482129209C
:1039A00000F002FF142001F023FC4FF4807101208D
:1039B00000F0FAFE4FF4E061022000F0F5FE41F263
:1039C0003801032000F0F0FE40F20221082000F050
:1039D000EBFE00210A2000F0E7FE00210C2000F0A1
:1039E000E3FE00210D2000F0DFFE30210E2000F06C
:1039F000DBFE0021502000F0D7FEEF21512000F027
:103A0000D3FE0021522000F0CFFE40F23F115320A0
:103A100000F0CAFE4FF41C51602000F0C5FE0121E9
:103A2000612000F0C1FE00216A2000F0BDFE1121DE
:103A3000902000F0B9FE4FF4C061922000F0B4FE77
:103A400040F20241932000F0AFFE0221942000F0EA
:103A5000ABFE142001F0CCFB0121072000F0A4FEF6
:103A6000142001F0C5FB6121072000F09DFE40F20B
:103A70007311072000F098FE0021202000F094FE32
:103A80000021212000F090FE2221002000F08CFE79
:103A900011E3794880884CF2055188427ED100219B
:103AA000084600F081FE0021084600F07DFE14204B
:103AB00001F09EFB0021084600F076FE002108463A
:103AC00000F072FE0021084600F06EFE002108465C
:103AD00000F06AFE0121A42000F066FE142001F02F
:103AE00087FB4FF41C51602000F05EFE40F606019B
:103AF000082000F059FE40F20371302000F054FE1F
:103B00000121312000F050FE0421322000F04CFE53
:103B10004FF48171332000F047FE4FF440713420A0
:103B200000F042FE40F20311352000F03DFE1F215F
:103B3000362000F039FE40F20371372000F034FEE9
:103B40000121382000F030FE0421392000F02CFE45
:103B50001521902000F028FE4FF48261102000F023
:103B600023FE40F24721112000F01EFE4FF4DE71CB
:103B7000122000F019FE4FF46061132000F014FED3
:103B8000782001F035FB4FF48071012000F00CFE2D
:103B90004FF40071022000F007FE00E050E041F217
:103BA0003001032000F000FE08210A2000F0FCFD97
:103BB00000210C2000F0F8FD20210E2000F0F4FD83
:103BC00000210F2000F0F0FD0021202000F0ECFD8E
:103BD0000021212000F0E8FD3D212A2000F0E4FD35
:103BE000142001F005FB2D21292000F0DDFD00212E
:103BF000502000F0D9FD4DF2EF01512000F0D4FD2E
:103C00000021522000F0D0FD40F23F11532000F07F
:103C1000CBFD0021612000F0C7FD00216A2000F0EB
:103C2000C3FD4FF44071922000F0BEFD05219320AA
:103C300000F0BAFD4FF48071072000F0B5FD3AE2C4
:103C40000D48808844F2315188427CD10121002006
:103C500000F0AAFD0A2001F0CBFA41F22861102001
:103C600000F0A2FD0E21122000F09EFD40F6392149
:103C7000132000F099FD01E0040100200A2001F06A
:103C8000B7FA4021112000F08FFD5021152000F0DF
:103C90008BFD0A2001F0ACFA1E21122000F084FDF9
:103CA0000A2001F0A5FA4FF4B151102000F07CFD7C
:103CB00042F63921132000F077FD0A2001F098FA2E
:103CC0004FF48071012000F06FFD4FF4407102202D
:103CD00000F06AFD41F23801032000F065FD40F27A
:103CE0000221082000F060FD08210A2000F05CFDA0
:103CF0000021302000F058FD40F20241312000F058
:103D000053FD4FF48371322000F04EFD40F2035119
:103D1000332000F049FD4FF48271342000F044FD5F
:103D200040F20131352000F03FFD40F207713620AE
:103D300000F03AFD40F20531372000F035FD4FF438
:103D40000271382000E040E000F02EFD40F60B71DB
:103D5000392000F029FD0221412000F025FD4FF41B
:103D60001C51602000F020FD0121612000F01CFDAD
:103D70004FF40471902000F017FD4FF485719220EC
:103D800000F012FD0421932000F00EFD4FF480712D
:103D9000A02000F009FD0121072000F005FD2121F0
:103DA000072000F001FD2321072000F0FDFC332156
:103DB000072000F0F9FC40F23311072000F0F4FC7A
:103DC0000021A02000F0F0FC75E1C148808844F299
:103DD000355188427ED13021152000F0E5FC1021BC
:103DE0009A2000F0E1FC2021112000F0DDFC43F2DC
:103DF0002841102000F0D8FC0221122000F0D4FC51
:103E000041F23801132000F0CFFC282001F0F0F936
:103E10001221084600F0C8FC282001F0E9F943F21D
:103E20002041102000F0C0FC43F23801132000F0C4
:103E3000BBFC462001F0DCF90021302000F0B4FC8E
:103E400040F20241312000F0AFFC40F20731322055
:103E500000F0AAFC4FF44171332000F0A5FC0421CE
:103E6000342000F0A1FC40F20141352000F09CFC20
:103E700040F20771362000F097FC40F20531372000
:103E800000F092FC4FF4C261382000F08DFC4FF43A
:103E9000C261392000F088FC4FF48071012000F0ED
:103EA00083FC4FF44071022000F07EFC41F23001AF
:103EB000032000F079FC40F60801082000F074FCB3
:103EC00008210A2000F070FC4FF41C51602000F023
:103ED0006BFC00E031E00121612000F065FC4FF453
:103EE0009F71902000F060FC4FF48071922000F0F0
:103EF0005BFC4FF48071932000F056FC4FF440516E
:103F0000A02000F051FC1021A32000F04DFC012165
:103F1000072000F049FC2121072000F045FC232167
:103F2000072000F041FC3321072000F03DFC40F267
:103F30003311072000F038FCBDE06548808841F669
:103F400063118842F8D1E22000F01EFC1D2000F031
:103F500015FC022000F012FC042000F00FFC64208D
:103F600001F06CF9E02000F00FFC012000F006FCED
:103F70000A2001F03DF9E02000F006FC032000F0EB
:103F8000FDFB0C2001F034F9012000F0FDFB0A20BC
:103F900001F02EF9E62000F0F7FB2F2000F0EEFBF9
:103FA000FF2000F0EBFBFF2000F0E8FBB02000F06A
:103FB000EBFB202000F0E2FB002000F0DFFB032001
:103FC00000F0DCFB40F21F3000F0D8FB012000F0D5
:103FD000D5FB40F2DF1000F0D1FB002000F0CEFB5B
:103FE000B42000F0D1FB042000F0C8FB40F21F40D9
:103FF00000F0C4FB002000F0C1FB2E2000F0BEFB4F
:10400000002000F0BBFB002000F0B8FB002000F017
:10401000B5FB002000F0B2FBB62000F0B5FB02209B
:1040200000F0ACFB4FF4037000F0A8FB002000F0A0
:10403000A5FB172000F0A2FB152000F09FFB00203D
:1040400000F09CFB002000F099FBF02000F09CFBAE
:10405000032000F093FB292000F096FBD02000F015
:1040600093FB002000F08AFBBE2000F08DFB0520B2
:1040700000F084FBFE2000F081FB012000F07EFBBD
:10408000002000F07BFB002000F078FB002000F017
:1040900075FBB82000F078FB032000F06FFB0120D7
:1040A00000F06CFBBA2000F06FFB012000F066FB13
:1040B000642000F027F80020FCF7C2FA012005492F
:1040C00008604FF6FF70FCF785FA1FB000BD0000D6
:1040D000040100208081214208B503480088009037
:1040E000BDF8000008BD00000008006C10B50446D3
:1040F000204600F049FB052001F0A0F8FFF7ECFF97
:1041000010BD00002DE9F0470446BE2000F03CFB46
:10411000052000F033FB204601F08FF907464FF0F1
:1041200066320C4B01F09CF9054601F059F91FFA73
:1041300080F9484600F022FB012000F01FFBFF2021
:1041400000F01CFB002000F019FB002000F016FB23
:10415000BDE8F0876666044070B50446002300267B
:10416000B748807901280BD1B548808846F604010C
:10417000884205D0B248808841F66311884208D150
:10418000AF488079F0B9AE48808841F66311884223
:1041900018D1082C15D2DFE804F00406080A0C0E2A
:1041A000101206240DE007240BE0042409E0052486
:1041B00007E0012405E0002403E0032401E00224D9
:1041C00000BF00BF9E48808849F24131884217D025
:1041D0009B48808846F60401884211D09848808820
:1041E00045F2103188420BD09548808845F2105135
:1041F000884205D09248808841F6631188427DD17B
:10420000082C1CD2DFE804F00406090C0F12151864
:1042100000BF14E043F0800311E043F040030EE0E0
:1042200043F0C0030BE043F0200308E043F06003D9
:1042300005E043F0A00302E043F0E00300BF00BF4D
:104240007F48808845F21051884202D14FF4585679
:1042500000E036267A48808845F2103188420DD039
:104260007748808845F21051884207D0744880888A
:1042700041F66311884201D043F0080370488088FA
:1042800046F60401884201D143F002031946304644
:1042900000F08AFA6A48808841F6631188421DD08E
:1042A00003F0200068B16648008865494988884263
:1042B00014DA6348058840886149088008464580CB
:1042C0000CE05F4800885E494988884206DD5C480A
:1042D000058840885A4908800846458058488088A3
:1042E00045F21051884254D15549488900F04CFAA2
:1042F000002000F043FA5249498900E078E0491C67
:1043000088B200F041FA002000F038FA4C4949899F
:10431000891C88B200F038FA49490988491EC1F35E
:104320000F2000F02BFA46494989C91C88B200F0D9
:104330002BFA43490978491EC8B200F01FFA4049D8
:10434000888900F021FA002000F018FA3C49898998
:10435000491C88B200F018FA002000F00FFA384922
:104360008989891C88B200F00FFA35494988491EAD
:10437000C1F30F2000F002FA31498989C91C88B2C3
:1043800000F002FA2E498978491EC8B200F0F6F909
:1043900055E02B49488900F0F7F9002000F0EEF9CC
:1043A000002000F0EBF926490988491EC1F30F20CF
:1043B00000F0E4F922490978491EC8B200F0DEF99C
:1043C0001F49888900F0E0F9002000F0D7F90020AB
:1043D00000F0D4F91A494988491EC1F30F2000F0B2
:1043E000CDF917498978491EC8B200F0C7F926E00F
:1043F000082C1CD2DFE804F004070A0D0F12151870
:1044000043F0300313E043F0100310E043F02003C7
:104410000DE000BF0BE043F0380308E043F0280351
:1044200005E043F0180302E043F0080300BF00BFBB
:10443000032643F480531946304600F0B5F970BDA9
:104440000401002010B503460C466748808849F2F5
:104450004131884205D06448808845F21031884255
:1044600014D16149488900F08FF9181200F086F9DB
:10447000D8B200F083F95C49888900F085F92012F0
:1044800000F07CF9E0B200F079F9ABE056488088A2
:1044900046F6040188421DD153488079012804D191
:1044A00051480088401EC01A83B24F49488900F025
:1044B0006BF9181200F062F9D8B200F05FF94A49BE
:1044C000888900F061F9201200F058F9E0B200F09C
:1044D00055F987E04448808841F66311884247D106
:1044E00041488079A8B940480088401EC01A83B26C
:1044F0003D49488900F048F9002000F03FF90020CC
:1045000000F03CF9181200F039F9D8B200F036F991
:1045100016E03549488900F037F9181200F02EF9F5
:10452000D8B200F02BF930490988491EC1F30F2099
:1045300000F024F92C490978491EC8B200F01EF990
:104540002949888900F020F9201200F017F9E0B21B
:1045500000F014F924494988491EC1F30F2000F0E6
:104560000DF921498978491EC8B200F007F939E0F0
:104570001D48808845F21051884220D11A49488947
:1045800000F002F9181200F0F9F817494989491C9E
:1045900088B200F0F9F8D8B200F0F0F81249888932
:1045A00000F0F2F8201200F0E9F80F498989491C5F
:1045B00088B200F0E9F8E0B200F0E0F812E00A4852
:1045C0008079012804D108480088401EC01A83B2AF
:1045D00005494889194600F0E7F8034988892146CA
:1045E00000F0E2F810BD0000040100202DE9F84FB2
:1045F00080460E4617461C46B3462046E31704EB9A
:104600005373DB1021464FEAE47C04EB5C7C4FEAF9
:10461000EC0CA4EBCC0CBCF1000F02D04FF0010C61
:1046200001E04FF0000C6344224604EBD27C4FEAD9
:104630006C0C03FB0CF3DBB20093A7F12000C7B2B4
:10464000002556E00C2C07D107EB47002B4901EB66
:10465000800010F8059013E0102C05D1284800EBDD
:10466000071010F805900BE0182C07D107EBC700D6
:10467000244901EB800010F8059001E0BDE8F88FB7
:104680004FF0000A2FE009F0800030B11E48028888
:1046900031464046FCF7B4F807E00A9828B91B48B1
:1046A000028831464046FCF7ABF84FEA49604FEAD2
:1046B0001069701C86B216484088B04200DCDDE705
:1046C000A6EB0B00A0420AD15E4608F101001FFADA
:1046D00080F80F480088404500DCCFE706E00AF18B
:1046E000010000F0FF0ABAF1080FCCDB00BF681C24
:1046F000C5B200988542A5DB00BFBFE75C56000845
:10470000D05A0008C06000087A0000207C00002019
:10471000040100202DE9F84704460D4690469946CD
:10472000DDE9096704F0FF0A08EB04001FFA80F8CE
:1047300009EB05001FFA80F916E0444502DB5446F8
:10474000A81985B24D4500DB14E0002000903A78AE
:10475000334629462046FFF749FF304606EBD07125
:1047600004EB61018CB27F1C38787E2802DC38783B
:104770002028E2DA00BFBDE8F88700000149088080
:10478000704700000008006C014908807047000075
:10479000FE07006C0248008902490880704700004B
:1047A00004010020FE07006C024A1080921C118058
:1047B00070470000FE07006C1448806940F0080054
:1047C000124988610846806940F0400088611048BD
:1047D000006820F470000E4908600846006840F444
:1047E000401008600B48006820F470000949086018
:1047F0000846006840F44010086020200449103149
:104800000860044910310860704700000010024041
:10481000000C01400018014000BFFEE77047000097
:1048200070B5002100230F22C47804B3154C24680E
:1048300004F4E064C4F5E064210AC1F10403CA4051
:10484000447804FA03F184781440214309010E4CA2
:104850000678A155047804F01F050124AC400578C2
:104860006D11AD0005F1E025C5F8004109E00478BF
:1048700004F01F050124AC40044D0678761145F87C
:10488000264070BD0CED00E000E400E080E100E0B7
:104890007047000029B1064A52690243044B5A612D
:1048A00004E0034A52698243014B5A617047000099
:1048B0000010024029B1064AD2690243044BDA6172
:1048C00004E0034AD2698243014BDA617047000079
:1048D0000010024029B1064A92690243044B9A61D2
:1048E00004E0034A92698243014B9A6170470000D9
:1048F0000010024030B500210022002400232D4D7D
:104900006D6805F00C0121B1042905D0082923D1D7
:1049100005E0294D056022E0274D05601FE0254D8B
:104920006D6805F47012234D6D6805F4803402251E
:1049300005EB92421CB9214D554305600BE01D4D1E
:104940006D6805F400351DB11C4D5543056002E04E
:10495000194D5543056002E0174D056000BF00BFCB
:10496000144D6D6805F0F0010909154D6B5C056883
:10497000DD4045600F4D6D6805F4E061090A104D9A
:104980006B5C4568DD4085600A4D6D6805F46051DB
:10499000C90A0B4D6B5C4568DD40C560054D6D680F
:1049A00005F44041890B074D6B5CC568B5FBF3F519
:1049B000056130BD0010024000127A0000093D0080
:1049C0007E0000208E00002000B587B00121880302
:1049D000FFF770FF01210820FFF77CFF18208DF8FA
:1049E00007004FF46040ADF8040003208DF8060086
:1049F00001A91848FBF7CFFC4FF460411548FBF7BD
:104A00005EFD3020ADF814000120ADF8100002204A
:104A1000ADF80E000720ADF818000020ADF80C002E
:104A2000ADF80800ADF816004FF48270ADF80A003A
:104A30004FF40070ADF8120002A9074800F064F8C6
:104A40000121054800F046F8FF2000F007F807B004
:104A500000BD0000000C01400038004070B5054664
:104A600005E0601CC4B2C82C01DD002070BD02212D
:104A70000D4800F03BF80028F3D0002429460A48EE
:104A800000F040F805E0601CC4B2C82C01DD002035
:104A9000ECE70121044800F029F80028F3D002488F
:104AA00000F02DF8C0B2E1E70038004010B5044630
:104AB000074800884FF6C771084005490880084636
:104AC0000088204308800121014800F003F810BD50
:104AD0000038004021B1028842F04002028004E028
:104AE00002884FF6BF731A400280704702460020CA
:104AF00013890B400BB1012000E0002070470146F4
:104B0000888970478181704710B50022028802F4BD
:104B100041520B884C8823438C882343CC88234301
:104B20000C8923434C8923438C892343CC89234319
:104B30001A430280838B4FF2FF74234083830B8AD6
:104B4000038210BD704710B500F002F810BD0000E0
:104B50000CB50020019000903348006840F480308C
:104B60003149086000BF3048006800F40030009010
:104B70000198401C0190009818B90198B0F5A06FF9
:104B8000F1D12948006800F4003010B101200090F4
:104B900001E0002000900098012843D123480068DC
:104BA00040F01000214908600846006820F003002A
:104BB00008600846006840F0020008601A48406833
:104BC000194948600846406848600846406840F413
:104BD000806048600846406820F47C1048600846C1
:104BE000406840F4E81048600846006840F0807073
:104BF000086000BF0C48006800F000700028F9D081
:104C00000948406820F003000749486008464068AA
:104C100040F00200486000BF0348406800F00C000C
:104C20000828F9D10CBD000000100240002002400D
:104C3000042808D14FF0E021096941F004014FF048
:104C4000E022116107E04FF0E021096921F0040141
:104C50004FF0E022116170477047000010B5134813
:104C6000006840F00100114908600846406810499A
:104C700008400E494860084600680E4908400B4944
:104C800008600846006820F48020086008464068F4
:104C900020F4FE0048604FF41F008860FFF753FFC8
:104CA0004FF000600449086010BD00000010024091
:104CB0000000FFF8FFFFF6FE08ED00E010B540F23F
:104CC00025511D4800F04AF810B31B4800F002F9C6
:104CD000C4B21A48008800F40040C8B917480088D8
:104CE00000F4804060B10A2C03D0002013490880F2
:104CF00020E01248008840F400401049088019E084
:104D00000D2C06D10D48008840F480400B490880E6
:104D100010E00A480088C0F30D0009490C54074808
:104D20000088401C0549088008460088C72801DD26
:104D30000020088010BD0000003801409C000020C9
:104D40001211002021B1828942F40052828104E0D4
:104D500082894DF6FF731A408281704770B5024612
:104D6000002400230025002040F66A16B14200D13D
:104D700000BFC1F3421501F01F03012606FA03F339
:104D8000012D02D19689334006E0022D02D1168A08
:104D9000334001E0968A33400C12012606FA04F4EF
:104DA0001688344013B10CB1012000E0002070BD22
:104DB000F0B50346002400260025002040F66A17BF
:104DC000B94200D100BF1846C1F3421401F01F06DA
:104DD000012707FA06F5012C01D10C3004E0022C62
:104DE00001D1103000E014301AB107682F4307607A
:104DF00002E00768AF430760F0BD00002DE9F0470F
:104E000086B005460E460024A24600BFA1460027F4
:104E1000B08900B100BF2F462C8A4CF6FF700440C9
:104E2000F08804432C82AC894EF6F3100440B0881D
:104E300031890843718908430443AC81AC8A4FF639
:104E4000FF400440B0890443AC8201A8FFF752FD43
:104E50001F48874202D1DDF810A001E0DDF80CA068
:104E6000A88900F4004040B10AEBCA0000EB0A1028
:104E700031684900B0FBF1F807E00AEBCA0000EB2B
:104E80000A1031688900B0FBF1F86420B8FBF0F03B
:104E900004012009642101FB1089A88900F4004065
:104EA00040B1322000EBC900B0FBF1F000F0070088
:104EB000044308E0322000EB09106421B0FBF1F05C
:104EC00000F00F0004432C8106B0BDE8F08700001D
:104ED0000038014001468888C0F30800704700BFD1
:104EE000FEE7000010B50446240300F007F900F0C7
:104EF0007FF800200B4908602020FFF7AFFDC4F3C6
:104F00000740FFF7ABFDC4F30720FFF7A7FDE0B2B2
:104F1000FFF7A4FD01200449C1F8B00100F068F8D2
:104F200010BD0000B08121420080214208B501215E
:104F30000820FFF7CFFC10208DF803000002ADF829
:104F4000000003208DF8020069460848FBF723FAA9
:104F5000012007490860FFF737FD4FF480510348EF
:104F6000FBF7ADFA0020FFF7A1FD08BD000C0140E2
:104F7000B081214210B500240020074908600520B7
:104F8000FFF76CFDFF20FFF769FD04460120034990
:104F9000C1F8B001204610BDB081214200802142FD
:104FA0002DE9F04106460C46174600200F490860DF
:104FB0000320FFF753FDC4F30740FFF74FFDC4F391
:104FC0000720FFF74BFDE0B2FFF748FD002505E0A5
:104FD000FF20FFF743FD7055681C85B2BD42F7DB2B
:104FE000012002490860BDE8F0810000B081214243
:104FF00010B500BFFFF7BEFF00F001000028F9D197
:1050000010BD00002DE9F04781460F4616464FEAD5
:105010001738C7F30B0ACAF58054B44200DB344694
:1050200042E04FEA08314FF480522148FFF7B8FFC1
:10503000002507E00AEB05001D49085CFF2800D0A9
:1050400002E06D1CA542F5D300BFA54215D2404633
:10505000FFF748FF002506E019F805000AEB0501F7
:10506000134A50546D1CA542F6D34FEA08314FF451
:1050700080520F4800F01EF804E0224639464846A8
:1050800000F018F8B44200D10FE0A1442744301BCF
:1050900086B208F101084FF0000AB6F5805F02DD24
:1050A0004FF4805400E03446BBE700BFBDE8F08712
:1050B000120100202DE9F04107460E461446F0B2D9
:1050C000C0F58075A54200DB254612E02A46314630
:1050D000384600F023F8A54200D10BE0601B84B2F3
:1050E0002E442F44B4F5807F02DD4FF4807500E03C
:1050F0002546EBE700BFBDE8F081000010B50020B9
:10510000044908600620FFF7A9FC01200249C1F804
:10511000B00110BDB0812142008021422DE9F04153
:1051200006460C461746FFF7E9FF00200F490860C6
:105130000220FFF793FCC4F30740FFF78FFCC4F392
:105140000720FFF78BFCE0B2FFF788FC002504E0A6
:10515000705DFFF783FC681C85B2BD42F8DB01205F
:1051600002490860FFF744FFBDE8F081B0812142A9
:10517000014600BF7047000008B501210820FFF775
:10518000A9FB10208DF803000001ADF800000320FA
:105190008DF8020069460348FBF7FDF8002002493C
:1051A000086008BD000C0140A081214210B56FF0DD
:1051B0000400FFF73DFD0A4800680A49B0FBF1F022
:1051C000094908700846007800EB4001C1EBC010A7
:1051D0004FF6FF7101EAC0000449088010BD0000CD
:1051E0000000002000127A009200002094000020AD
:1051F0000146114A12884A434FF0E0235A610022C7
:105200009A611A46126942F001021A6100BF4FF01A
:10521000E022106900F001021AB100F48032002A85
:10522000F5D04FF0E022126922F001024FF0E023A6
:105230001A6100229A617047940000200146114AC9
:1052400012784A434FF0E0235A6100229A611A46CD
:10525000126942F001021A6100BF4FF0E0221069AA
:1052600000F001021AB100F48032002AF5D04FF0AC
:10527000E022126922F001024FF0E0231A610022BD
:105280009A617047920000201CB5FFF74FFEFFF7B0
:105290008DFFFFF791FAFFF76FFFFBF77DF94FF4F2
:1052A000E13000F04DF8FBF769FB3FE00120FBF730
:1052B0000BF90446002C39D0012C06D0022C14D056
:1052C000032C22D0042C30D12BE064220521184875
:1052D000FFF798FE164818211023FA22CDE9001096
:1052E0009F216420FFF716FA1FE06422062111486F
:1052F000FFF756FE0F4818211023FA22CDE90010BF
:10530000C8216420FFF706FA0FE001200A4908606F
:105310004FF4FA70FFF76CFF00200849C1F8A001B4
:1053200003E000200449086000BF00BFBEE70000A2
:1053300014000020A0000020A08121420080214212
:1053400010B586B00446012144F20400FFF7C2FA0A
:105350004FF40070ADF8140003208DF816001820EB
:105360008DF8170005A91C48FBF715F84FF480606D
:10537000ADF8140004208DF8170005A91648FBF7B6
:105380000AF825208DF8000003208DF801008DF823
:10539000020001208DF803006846FFF741FA0194EE
:1053A0000020ADF80800ADF80A00ADF80C00ADF82B
:1053B00010000C20ADF80E0001A90848FFF71EFDF3
:1053C000012240F225510548FFF7F2FC0121034874
:1053D000FFF7B8FC06B010BD0008014000380140DE
:1053E0004FEA1153A3F58063D3F11E03A8BFD3F195
:1053F000200C08DB4FF0004242EAC12252EA505230
:1054000032FA03F0704709420BD4102BC4BF0020BE
:10541000704703F5787CBCF1FF3F05D04FF0FF30BB
:1054200070474FF00000704770B500F0C3F800BF40
:105430004992248000207047F0E7B0FA80F310FA18
:1054400003F10AD0C3F11D0303F580634FEA415015
:105450004FEA035202EBD12170474FF00000704732
:10546000DFF848C170B51CEA111E1EBF1CEA1315F7
:105470009EEA0C0F95EA0C0F00F06F8081EA03049E
:1054800023EA4C134EEAD47E21EA4C1141F48011F8
:1054900043F48013AE44A1FB024CA0FB0365AEF1C4
:1054A0007F7E361955EB0C05A1FB034C4CF1000334
:1054B000A0FB021C16EB0C06654153F100030942E8
:1054C00018BF46F0010613F4007F0BD14FEA0331F9
:1054D0004FEA0530340341EA155140EA16506FF0A7
:1054E00003020AE04FEAC3214FEAC520F40241EA71
:1054F000555140EA56506FF0020202EB2E4201EB8A
:10550000025585EACE710AD05FEA440C18BF24F038
:10551000004450F1000041F1000120EAD47040F253
:10552000FE7C624500D270BDA84214BF4FF080449B
:105530004FF04044002E08BF0024BEF1806FA8BF8A
:10554000A1F1C041BDE8704080F282804FF00000C0
:1055500001F1C04101F0004170479EEA0C0F0CEAD6
:10556000131518BF95EA0C0F06D04FF0000081EA22
:10557000030E0EF0004170BD00F01CF88900013EE2
:1055800000F007B800F009B84FEA430C5FEA5C5C32
:1055900008D081EA030100F05BB84FEA410C5FEAF2
:1055A0005C5CF6D14FF00000014970470000FF0736
:1055B0000000F87F0EF1020E2EF0030E5EF8046B71
:1055C000364205D4012A43EB030515F5001F12D816
:1055D000012841EB010C1CF5001F0CD80ED14FEA3D
:1055E000D17C15F5001F0CEB4C0C0CF1020C08BF24
:1055F0004CEBD37C04E04FF0080C01E04FEAD37C85
:105600000CEB4C0526FA05F606F00706B6F1040C7D
:1056100006D20EEB860CBDE870404CF0010C6047E2
:10562000DFE80CF0090B02024FF000414FF00000E0
:10563000A1F5002170BD19461046012851EB010467
:1056400018BFD4F5001484BF002001F0004170BDE4
:105650000808A0F500114FEA310170470000000072
:105660000000000000000000000000003F400000BB
:10567000000000000000300040003000400000004A
:1056800009000BC03D000BC03D00090018C02440BC
:105690007FE0224031800000180024C01B000D80F4
:1056A0003240018003801C4027401C80074000409E
:1056B000100060000000000000000000000000007A
:1056C00000001F80204040200000402020401F801C
:1056D00000000000090006001F800600090000000D
:1056E000040004003F80040004000000001000607B
:1056F000000000000000000004000400040004009A
:105700000400000000000040000000000000000055
:10571000002001C006003800400000001F8020402B
:10572000204020401F800000000010403FC000408B
:105730000000000018C02140224024401840000012
:1057400010802040244024401B80000002000D00F7
:1057500011003FC0014000003C8024402440244010
:10576000238000001F802440244034400380000038
:105770003000200027C03800200000001B8024409B
:10578000244024401B8000001C0022C022402240F4
:105790001F80000000000000084000000000000022
:1057A0000000000004600000000000000000040091
:1057B0000A0011002080404009000900090009008A
:1057C0000900000000004040208011000A00040091
:1057D0001800200023402400180000001F802040F3
:1057E000274029401F400000004007C039000F003B
:1057F00001C0004020403FC0244024401B800000E6
:105800001F802040204020403080000020403FC0CA
:10581000204020401F80000020403FC024402E40F8
:1058200030C0000020403FC024402E003000000067
:105830000F001080204022403380020020403FC0F3
:10584000040004003FC02040204020403FC02040D2
:10585000204000000060202020203FC020002000C9
:1058600020403FC024400B0030C0204020403FC0BB
:1058700020400040004000C03FC03C0003C03C004E
:105880003FC0000020403FC00C4023003FC020002C
:105890001F802040204020401F80000020403FC04B
:1058A00024402400180000001F802140214020E0F7
:1058B0001FA0000020403FC02440260019C0004027
:1058C00018C0244024402240318000003000204095
:1058D0003FC020403000000020003F8000400040DA
:1058E0003F80200020003E0001C00700380020005B
:1058F000380007C03C0007C038000000204039C015
:10590000060039C0204000002000384007C0384061
:1059100020000000304021C02640384020C0000058
:10592000000000007FE040204020000000007000E8
:105930000C000380004000000000402040207FE079
:1059400000000000000020004000200000000000D7
:1059500000100010001000100010001000000000E7
:1059600040000000000000000000028005400540EB
:1059700003C0004020003FC00440044003800000FA
:105980000000038004400440064000000000038043
:10599000044024403FC00040000003800540054013
:1059A00003400000000004401FC0244024402000A9
:1059B000000002E0055005500650042020403FC082
:1059C0000440040003C000400000044027C0004021
:1059D0000000000000100010041027E0000000008C
:1059E00020403FC00140070004C004402040204048
:1059F0003FC000400040000007C0040007C0040092
:105A000003C00000044007C00440040003C000407D
:105A1000000003800440044003800000041007F0ED
:105A20000450044003800000000003800440045040
:105A300007F00010044007C002400400040000000A
:105A4000000006400540054004C0000000000400BE
:105A50001F80044000400000040007800040044014
:105A600007C000400400070004C0018006000400D5
:105A7000060001C0070001C006000000044006C087
:105A8000010006C0044000000410071004E001807B
:105A9000060004000000044005C006400440000069
:105AA0000000000004007BE0402000000000000037
:105AB0000000FFF000000000000040207BE0040038
:105AC0000000000040008000400020002000400056
:105AD00000000000000000000000000000000000C6
