:020000040800F2
:1000000048070020CD010008D10600082B06000893
:10001000CD06000875020008DB090008000000009A
:100020000000000000000000000000007D07000844
:100030007902000800000000590700089108000834
:10004000E7010008E7010008E7010008E7010008F0
:10005000E7010008E70100087D020008E701000849
:10006000A9020008D502000801030008E701000802
:10007000E7010008E7010008E7010008E7010008C0
:10008000E7010008E7010008E7010008E7010008B0
:10009000E7010008E7010008E7010008E7010008A0
:1000A000E7010008E7010008E7010008E701000890
:1000B000E7010008E7010008E7010008E701000880
:1000C000E7010008E7010008E7010008E701000870
:1000D000E7010008F5080008E7010008E70100084B
:1000E000E7010008E7010008E7010008E701000850
:1000F000E7010008E7010008E7010008E701000840
:10010000E7010008E7010008E7010008E70100082F
:10011000E7010008E7010008E7010008E70100081F
:10012000E7010008E7010008E7010008E70100080F
:1001300000F002F800F03AF80AA090E8000C8244BF
:100140008344AAF10107DA4501D100F02FF8AFF29C
:10015000090EBAE80F0013F0010F18BFFB1A43F0A5
:10016000010318476409000084090000103A24BF05
:1001700078C878C1FAD8520724BF30C830C144BF0C
:1001800004680C607047000000230024002500264E
:10019000103A28BF78C1FBD8520728BF30C148BFEA
:1001A0000B6070471FB51FBD10B510BD00F033F8D0
:1001B0001146FFF7F7FF00F077FC00F051F803B4A9
:1001C000FFF7F2FF03BC00F00AFC0000094880477B
:1001D00009480047FEE7FEE7FEE7FEE7FEE7FEE729
:1001E000FEE7FEE7FEE7FEE704480549054A064B41
:1001F0007047000095080008310100084801002000
:10020000480700204803002048030020704770473B
:10021000704770477047754600F028F8AE460500F5
:100220006946534620F00700854618B020B5FFF711
:10023000DBFFBDE820404FF000064FF000074FF015
:1002400000084FF0000B21F00701AC46ACE8C009F4
:10025000ACE8C009ACE8C009ACE8C0098D467047FD
:100260000446AFF300802046FFF7A9FF004870471F
:10027000E800002000BFFEE77047000010B50A202C
:1002800000F0ECFB012000F061F828B104480068A0
:10029000C0430449C1F8A001012000F051F810BD8D
:1002A000A08121420080214210B50A2000F0D6FB37
:1002B000042000F04BF828B104480068C04304490A
:1002C000C1F89401042000F03BF810BD9481214254
:1002D0000080214210B50A2000F0C0FB082000F089
:1002E00035F828B104480068C0430449C1F89401B6
:1002F000082000F025F810BD94012342000023429D
:1003000010B50A2000F0AAFB102000F01FF860B121
:1003100008480068C0430849C1F894010748D0F86C
:100320009401C0430549C1F89401102000F008F879
:1003300010BD0000940123420000234200802142AE
:100340000149086070470000140401400146002084
:100350000022074B1B6803EA0102054B14331B689C
:100360000B4013B10AB1012000E0002070470000EB
:1003700000040140002123498279002A3AD00A462C
:10038000126803689A430B461A600A1D12680368D4
:100390009A430B1D1A60027911440A6803681A43D4
:1003A0000A60184A0832126803689A43154B0833EA
:1003B0001A601A1D126803689A43124B0C331A60B4
:1003C0004279102A0ED11A1F126803681A430D4B86
:1003D00008331A601A1D126803681A43094B0C335C
:1003E0001A600DE00749427911440A6803681A430C
:1003F0000A6005E0027911440A6803689A430A60BA
:1004000070470000000401400EB50121084600F0CD
:10041000A5F90021084600F05DF80221042000F053
:1004200059F80321042000F055F80421084600F093
:1004300051F81C20009001208DF8060000208DF856
:1004400004000C208DF805006846FFF793FF01209B
:1004500000908DF8060000208DF8040008208DF82B
:1004600005006846FFF786FF06208DF8080001208A
:100470008DF80B008DF809008DF80A0002A800F035
:1004800029F908208DF8080001208DF80B008DF85F
:1004900009008DF80A0002A800F01CF909208DF867
:1004A000080001208DF80B008DF809008DF80A0076
:1004B00002A800F00FF90A208DF8080001208DF83D
:1004C0000B008DF809008DF80A0002A800F002F96F
:1004D0000EBD000030B500228B071C0F0F2303FA5E
:1004E00004F20B4B8C1053F824309343084C8D10BE
:1004F00044F8253023468C1053F824308C07240F01
:1005000000FA04F42343024C8D1044F8253030BD2A
:10051000080001402DE9F041024600250026002098
:1005200000230024002791F803C00CF00F0591F878
:1005300003C00CF0100CBCF1000F03D091F802C006
:100540004CEA050591F800C0BCF1000F31D01468E9
:1005500000202BE04FF0010C0CFA00F3B1F800C0C2
:100560000CEA03069E4220D183004FF00F0C0CFAD8
:1005700003F7BC4305FA03FC4CEA040491F803C0FA
:10058000BCF1280F06D14FF0010C0CFA00FCC2F8A8
:1005900014C00AE091F803C0BCF1480F05D14FF038
:1005A000010C0CFA00FCC2F810C0401C0828D1D382
:1005B0001460B1F800C0BCF1FF0F34DD54680020B6
:1005C0002EE000F1080C4FF0010808FA0CF3B1F826
:1005D00000C00CEA03069E4221D183004FF00F0CAD
:1005E0000CFA03F7BC4305FA03FC4CEA040491F847
:1005F00003C0BCF1280F05D100F1080C08FA0CF873
:10060000C2F8148091F803C0BCF1480F07D100F183
:10061000080C4FF0010808FA0CF8C2F81080401CD2
:100620000828CED35460BDE8F08100BFFEE700008B
:1006300008B50121442000F091F848208DF803000E
:100640001C20ADF8000069460648FFF763FF28202C
:100650008DF803000120ADF8000069460248FFF75D
:1006600059FF08BD00180140000801401448806986
:1006700040F00800124988610846806940F0400057
:1006800088611048006820F470000E490860084630
:10069000006840F4401008600B48006820F47000C7
:1006A000094908600846006840F4401008602020AE
:1006B0000449103108600449103108607047000097
:1006C00000100240000C01400018014000BFFEE78E
:1006D0007047000070B5002100230F22C47804B3D6
:1006E000154C246804F4E064C4F5E064210AC1F107
:1006F0000403CA40447804FA03F184781440214387
:1007000009010E4C0678A155047804F01F05012458
:10071000AC4005786D11AD0005F1E025C5F800414C
:1007200009E0047804F01F050124AC40044D06786C
:10073000761145F8264070BD0CED00E000E400E0C5
:1007400080E100E002490143024A11607047000065
:100750000000FA050CED00E07047000029B1064AE0
:1007600092690243044B9A6104E0034A926982430E
:10077000014B9A617047000000100240704710B5AD
:1007800000F002F810BD00000CB5002001900090B0
:100790003348006840F480303149086000BF304879
:1007A000006800F4003000900198401C019000980F
:1007B00018B90198B0F5A06FF1D12948006800F48C
:1007C000003010B10120009001E00020009000985E
:1007D000012843D12348006840F0100021490860F7
:1007E0000846006820F0030008600846006840F0F2
:1007F000020008601A484068194948600846406885
:1008000048600846406840F4806048600846406898
:1008100020F47C1048600846406840F4E8104860C6
:100820000846006840F08070086000BF0C4800680F
:1008300000F000700028F9D00948406820F003005B
:10084000074948600846406840F00200486000BF21
:100850000348406800F00C000828F9D10CBD0000E6
:100860000010024000200240042808D14FF0E0218F
:10087000096941F004014FF0E022116107E04FF0F7
:10088000E021096921F004014FF0E0221161704775
:100890007047000010B51348006840F0010011498E
:1008A000086008464068104908400E4948600846FC
:1008B00000680E4908400B4908600846006820F4AB
:1008C000802008600846406820F4FE0048604FF42D
:1008D0001F008860FFF753FF4FF000600449086075
:1008E00010BD0000001002400000FFF8FFFFF6FE00
:1008F00008ED00E010B540F225511D4800F03EF82B
:1009000010B31B4800F064F8C4B21A48008800F421
:100910000040C8B91748008800F4804060B10A2C34
:1009200003D000201349088020E01248008840F4DA
:1009300000401049088019E00D2C06D10D480088B0
:1009400040F480400B49088010E00A480088C0F35A
:100950000D0009490C5407480088401C05490880CF
:1009600008460088C72801DD0020088010BD00006F
:10097000003801401C0000202000002070B5024615
:10098000002400230025002040F66A16B14200D161
:1009900000BFC1F3421501F01F03012606FA03F35D
:1009A000012D02D19689334006E0022D02D1168A2C
:1009B000334001E0968A33400C12012606FA04F413
:1009C0001688344013B10CB1012000E0002070BD46
:1009D00001468888C0F30800704700BFFEE7014663
:1009E00000BF704708B501210820FFF7B7FE1020AF
:1009F0008DF803000001ADF8000003208DF802001F
:100A000069460348FFF786FD00200249086008BDDB
:100A1000000C0140A081214210B56FF00400FFF7E7
:100A200023FF0A4800680A49B0FBF1F00949087041
:100A30000846007800EB4001C1EBC0104FF6FF7193
:100A400001EAC0000449088010BD00000000002039
:100A500000127A0014000020160000200146114AFE
:100A600012884A434FF0E0235A6100229A611A46E5
:100A7000126942F001021A6100BF4FF0E0221069D2
:100A800000F001021AB100F48032002AF5D04FF0D4
:100A9000E022126922F001024FF0E0231A610022E5
:100AA0009A617047160000204FF4A060FFF74AFEDD
:100AB000FFF7B2FFFFF7DAFDFFF794FFFFF7B8FD8E
:100AC000FFF7A2FC00BFFEE7E80A000800000020D4
:100AD000200000006C010008080B00082000002026
:100AE000280700008801000800A24A040000000056
:100AF00000000000010203040607080900000000CE
:080B00000000000000000000ED
:0400000508000131BD
:00000001FF
