:020000040800F2
:1000000078070020ED010008655900082D1600084A
:10001000615900087F120008B36200080000000068
:10002000000000000000000000000000655B000808
:100030008312000800000000ED590008795C0008F8
:10004000070200080702000807020008070200086C
:10005000070200080702000807020008070200085C
:10006000070200080702000807020008070200084C
:10007000070200080702000807020008070200083C
:10008000070200080702000807020008070200082C
:10009000070200080702000807020008070200081C
:1000A000070200080702000807020008070200080C
:1000B00007020008070200080702000807020008FC
:1000C00007020008070200080702000807020008EC
:1000D00007020008916000080702000807020008F4
:1000E00007020008070200080702000807020008CC
:1000F00007020008070200080702000807020008BC
:1001000007020008070200080702000807020008AB
:100110000702000807020008DD5C0008070200086B
:10012000070200080702000807020008070200088B
:1001300000F002F800F04AF80AA090E8000C8244AF
:100140008344AAF10107DA4501D100F03FF8AFF28C
:10015000090EBAE80F0013F0010F18BFFB1A43F0A5
:1001600001031847E085000000860000103A24BF14
:1001700078C878C1FAD8520724BF30C830C144BF0C
:1001800004680C607047000000230024002500264E
:10019000103A28BF78C1FBD8520728BF30C148BFEA
:1001A0000B607047662906F08D86782900F0808004
:1001B000002070471FB500F023FB04000020002141
:1001C00006F0C8F9E0601FBD10B510BD00F030FCAE
:1001D0001146FFF7EFFF06F001F900F04EFC03B403
:1001E000FFF7F2FF03BC06F07AF8000009488047E9
:1001F00009480047FEE7FEE7FEE7FEE7FEE7FEE709
:10020000FEE7FEE7FEE7FEE704480549054A064B20
:10021000704700007D5C0008310100087801002073
:100220007807002078030020780300207047000042
:100230000FB4044910B503AA029800F0CFFA10BC1D
:100240005DF814FB380000202DE9F0410E4604460D
:10025000002020622046E168884730B3252805D079
:10026000D4E901219047206A401CF2E7E16820466A
:1002700000278847050018D0A5F14100192802D8A9
:1002800020354FF400673246294620462760FFF7A5
:1002900089FF40B1012804D0F61D26F00706083674
:1002A000D8E7361DD6E72846DAE7206ABDE8F081B0
:1002B00070B504460D4621461068AFF300802188D2
:1002C000090502D50F4A7A4402E00E4A7A440E32FA
:1002D000002104F1240305E000F00F060009965DFB
:1002E0005E54491C0028F7D120780023000704D56C
:1002F000702D02D009B1022311322046BDE87040B2
:1003000000F006B8BE830000704770477047704722
:100310002DE9F0470D4699469246044600F124081F
:100320000168880604D5E06921F01001216000E031
:100330000120A84201DD471B00E00027A1697A19CE
:1003400002EB0900081AA0612078C00602D42046FA
:10035000AFF30080002608E0D4E901211AF8060076
:100360009047206A401C761C20624E45F4DB2078C2
:10037000C0060AD52046AFF3008006E0D4E901218B
:1003800030209047206A401C2062381EA7F10107E8
:10039000F4DC07E0D4E9012118F805009047206A51
:1003A000401C2062281EA5F10105F3DC2046AFF3B6
:1003B00000802078000602D50220BDE8F0870120E9
:1003C000FBE770472DE9FF4F0C461E464FF0FF3705
:1003D0008BB0D2E90001DDF860800A908A46C1F353
:1003E0000A5505B93D46002108464FF00000BAF114
:1003F000000F00F4400005DA00EB80004FF44001EC
:1004000001EA50004FEA9059B9F1010F00DDB946F9
:100410000A9850EA4A000ED044F61050A5F2FF3573
:1004200045432F14B8F1000F1ED07542291E1EDD62
:10043000C9F100021CE0B8F1010F4FF0000001D03B
:10044000302103E0F24305E02154401CB042FBDBC5
:1004500030460022002121540B99C1F80880C1E9DF
:1004600000200FB0BDE8F08FBD1B6D1CDEE74A46D3
:1004700000DA694206A800F065FA06AB93E80700C7
:1004800003AB83E8070050460A9900F03DFB8DE876
:100490000700A0F500501F3800900398002D09DDDB
:1004A00042F21F014A46084403A90390684600F03F
:1004B0009CFD08E0A0F500504A461F3803A90390B0
:1004C000684600F0A6FD8DE807000004000C03D08C
:1004D0004FF0FF30410800E01046B8F1000F03D0A4
:1004E0000022009215461EE0751E05D400F08CF91E
:1004F000303262556D1EF9D5B3460122084302D051
:1005000000227F1C04E02078302801D100227F1EC9
:10051000002A099786D01DE0112D07DA00F074F942
:10052000303262556D1C50EA0102F5D1084302D009
:100530000098C8B10EE00021681E05E0235C625CF3
:1005400063542254401E491C8142F7DBAB46A81B72
:10055000401E0990002004F80B000B98099AC0F87F
:100560000880C0E9002B7CE711264FF0000859E70E
:100570002DE9F04F88460446D21D22F0070191B0C4
:10058000D1E90001CDE90A0105F095FE02460B987C
:10059000C00F01D02D2007E02068810701D52B2056
:1005A00002E0202101EAC000032A099001D0072AB5
:1005B00005DB03464146204600F084F90BE1207834
:1005C000800601D5E06900E00620B8F1650F81469C
:1005D00006D0B8F1660F18D0B8F1670F70D131E0CE
:1005E0000020B9F1110F009001DB112301E009F1A6
:1005F00001030AAA01A90CA8FFF7E4FEDDE90C70CB
:10060000002609F10105834647E001204B46009092
:100610004FF000470AAA01A90CA8FFF7D3FEDDE9B5
:100620000DB00C995D46002610B909F101000D18B6
:10063000B9EB050003D4C0F1FF3609F10105A5EBC4
:1006400009002BE0B9F1010F01DA4FF00109002098
:10065000B9F1110F0090484601DD112300E0034677
:100660000AAA01A90CA8FFF7ADFEDDE90C704D4602
:1006700000268346207800070AD4AB4500DA5D46A1
:1006800001A8012D04DD411911F8011C302907D002
:100690004F4502DA17F1040F04DA012082460FE019
:1006A0006D1EEEE7002F02DCED1B3E4403E0781CDC
:1006B000A84200DD7D1CB81B00F1010A4FF0004785
:1006C0002078000703D4AA4501DB4FF0FF3A002150
:1006D000B7F1004F0DF143088DF8431024D00220EC
:1006E0002B23002F01DA7F422D230A21021EA0F1C5
:1006F000010000DC5FB197FBF1FC97FBF1F201FB1D
:100700001C7C17460CF1300C08F801CDEEE7A8F17F
:10071000010003702188090501D5452100E065210C
:10072000A0F1010800F8011C09980FA9A1EB080726
:10073000FF1D00B10120411901EBEA70A1693844A5
:10074000081A401EA0612078C00602D42046AFF3EC
:100750000080099828B1D4E901219047206A401C03
:1007600020622078C00622D52046AFF300801EE02C
:10077000002E04DBB34502DD01A8805D00E03020DF
:10078000D4E901219047206A401C2062761CAAF11E
:1007900001005FEA000A0AD100F032F8C06801687F
:1007A000405CD4E901219047206A401C2062281E49
:1007B000A5F10105DCDC07E0D4E9012118F8010B03
:1007C0009047206A401C2062381EA7F10107F3DC25
:1007D0002046AFF30080032011B043E6074B70B50D
:1007E0000D467B4400F05BF80446284600F018F9FB
:1007F00010B14FF0FF3070BD204670BDDB5B0000D4
:10080000004870473801002030B5B0F10A024FEAC5
:10081000900E71F100034EEA817EB0EB0E0061EBA9
:1008200091014FEA101E4EEA017E10EB0E0041EBE3
:1008300011114FEA102E4EEA016E10EB0E0041EB43
:1008400011214FEA104E4EEA014E10EB0E0041EB23
:100850001141401841F100014FEAD00040EA4170D7
:100860004FEAD10110EB80054FEA810444EA90740D
:1008700044EB01046D1944EB0404521BA3414FF0F7
:10088000000348BF0A3200D530BD401C41F10001D1
:1008900030BD000001694A1C02610878704700B54C
:1008A0008FB0CDE901310021059105497944CDE9A9
:1008B000031011466846FFF7C7FC0FB000BD0000EB
:1008C000E5FFFFFF2DE9F0411F46044603260168BE
:1008D000072A01F4006004DB08B116A505E016A59F
:1008E00003E008B115A500E015A521F01000206077
:1008F000A069C01EA0610FB1401EA0612046AFF3E9
:1009000000804FB1D4E9012138469047206A401C4D
:100910002062C01C206206E0206AFAE7D4E90121C7
:1009200015F8010B9047761EF8D22046AFF30080F1
:10093000BDE8F0814E414E006E616E00494E4600AA
:10094000696E66002DE9F047814616468AB0334845
:1009500078440DC88DE80D0030487844801C03AC05
:100960000DC884E80D0041F69B300844372190FB08
:10097000F1F290FBF1F5A5F1800501FB12041B3C9F
:1009800002D56442012000E00020DFF890A08046FC
:100990000027FA44AAF1BE0A0DE0E00709D032466A
:1009A000684607EB47010AEB810100F032FB8DE856
:1009B000070064107F1C002CEFD1184F7F44AC3F20
:1009C00018E0E80714D007EB04100DF1180A90E8BE
:1009D0000E008AE80E00C068F04201D19819089014
:1009E000324606A903A800F014FB03AB83E8070016
:1009F0006D10641C002DE4D132466946B8F1000F39
:100A000003A802D000F0F1FA01E000F002FBC9E90E
:100A10000001C9F808200AB0BDE8F087D87D0000C1
:100A2000007B00F0800070470048704718010020EC
:100A30007546FFF7F9FFAE4605006946534620F0BC
:100A40000700854618B020B5FFF7DEFBBDE8204063
:100A50004FF000064FF000074FF000084FF0000B7A
:100A600021F00701AC46ACE8C009ACE8C009ACE82D
:100A7000C009ACE8C0098D4670470446AFF300805A
:100A80002046FFF7ACFB00004FF0013C50F8042B70
:100A900051F8043B9A4221D1A2EB0C03934313EA91
:100AA000CC1317D150F8042B51F8043B9A4215D1BE
:100AB000A2EB0C03934313EACC130BD150F8042B95
:100AC00051F8043B9A4209D1A2EB0C03934313EA79
:100AD000CC13DBD04FF00000704700BFD01A01BA32
:100AE000B1FA81F101F0180122FA01F0CB40C1F115
:100AF0002001DBB2C0B2C01A2CFA01F3D11A914323
:100B000011EAC311E6D170475FEA400C08BF91F0CB
:100B1000000F4FEA8C234FEAC12243EA51514FEABA
:100B20001C5018BF00F5F0404FEA300018BF41F0EC
:100B300000415FEA6C5C00F02980BCF1FF3F08BF18
:100B400040F080407047130C06BF12044FF0100CA9
:100B50004FF0000C130E04BF12020CF1080C130F1F
:100B600004BF12010CF1040C930F04BF92000CF1AE
:100B7000020CD30F04BF52000CF1010C11464FF0D0
:100B80000002A0F11F00A0EB0C00704711F0004F15
:100B900008BF704731F000413FF4D5AF0B0C06BFE2
:100BA00009044FF0100C4FF0000C0B0E04BF0902AB
:100BB0000CF1080C0B0F04BF09010CF1040C8B0F96
:100BC00004BF89000CF1020CCB0F04BF49000CF1EB
:100BD000010CCCF12003A0EB0C0022FA03F302FA83
:100BE0000CF241EA030100F10100704720F07F4C54
:100BF00080EA030023F07F47ACEB070303F57C5347
:100C000000F0004003F1FF032DE980494FEA154B46
:100C100009B44FEA144325EA0B4E24EA03480FF2C5
:100C2000042606EB132749083E785FEA320203FBED
:100C30000667C7F5000707FB06F64FEA54374FEA89
:100C4000D64606F1020607FB066CCCF1005C4FEAC3
:100C50001C472CEA074C07FB06F40CFB06F504EBDB
:100C600015464FEA961634BF00204FF000404FEA79
:100C7000D13706FB07FC4FEA1C4C0CFB0BF7D21BD1
:100C800003FB0CF761EB07010CFB0EF7B0EB074021
:100C900072EB17420CFB08F734BFA2EB0742B2EB32
:100CA000074261EB17414FEA0C444FEA910706FBFC
:100CB00007FC4FEA1C4C0CFB0BF7B0EBC74072EB88
:100CC000573203FB0CF734BFA2EBC742B2EBC7426B
:100CD00061EB57310CFB0EF7B0EBC70072EB5772AC
:100CE0000CFB08F734BFA2EBC702B2EBC70261EB03
:100CF0005771039F4FEA816141EA921104EBCC04E2
:100D00004FEAD1374FEA826206FB07FC42EA9012B3
:100D10004FEA80604FEA1C4C0CFB0BF7D21B03FB25
:100D20000CF761EB07010CFB0EF7B0EB074072EB21
:100D300017420CFB08F734BFA2EB0742B2EB0742A5
:100D400061EB17414FEA8C554FEA910704EB9C2465
:100D500006FB07FC4FEA1C4C0CFB0BF7B0EBC74043
:100D600072EB573203FB0CF734BFA2EBC742B2EB76
:100D7000C74261EB57310CFB0EF7B0EBC70072EBCB
:100D800057720CFB08F734BFA2EBC702B2EBC702E5
:100D900061EB577115EB4C254FEA816141EA9211E5
:100DA0004FEA82624FEAD13742EA901206FB07FC13
:100DB00044F100044FEA80604FEA1C4C0CFB0BF737
:100DC000D21B03FB0CF761EB07010CFB0EF7B0EB3A
:100DD000074072EB17420CFB08F734BFA2EB074247
:100DE000B2EB074261EB174115EB1C154FEA81315D
:100DF00041EA92414FEA823242EA90424FEA803021
:100E00004FEA0C7644F1000448EA03434EEA0B48EB
:100E10004FF0000EB2EB080C71EB030724BF6246E3
:100E200039464EEB0E0E4FF0000B0018524149416F
:100E30004BEB0B0BB2EB080C71EB03077BF1000BD8
:100E400024BF624639464EEB0E0E4FF0000B0018E1
:100E5000524149414BEB0B0BB2EB080C71EB030712
:100E60007BF1000B24BF624639464EEB0E0E51EA71
:100E7000020718BF46F0010616EB0E7655F1000288
:100E800054F1000103D5BDE88901BDE80088BDE843
:100E90008901BDE80048B619524141EB0101A3F1B7
:100EA0000103704780807F7E7D7C7B7A79787776BE
:100EB00076757473727171706F6E6E6D6C6C6B6A37
:100EC0006A696868676666656464636362616160D5
:100ED000605F5F5E5E5D5D5C5C5B5B5A5A59595852
:100EE00058575756565555555454535352525251BC
:100EF000515050504F4F4F4E4E4D4D4D4C4C4C4B12
:100F00004B4B4A4A4A494949484848474747474658
:100F10004646454545444444444343434342424294
:100F200042414141002B26D4770021D01CB54FEA25
:100F3000370703B44FF010004FF010014FF00000DE
:100F40000FBCBDE810400BF1010BBBF1010F08BF56
:100F50005FEA170722BF12F1010211F101014FF000
:100F6000004143F1000300F0004043EA00007047F5
:100F7000F9D35708DAE746EA064613F1400F4FEA7D
:100F800016461FDD13F1200FDFBF16430A4600216E
:100F900020335B42C8D0C3F1200746EA064602FA76
:100FA00007F74FEA164646EA0706C3F1200722FA7A
:100FB00003F201FA07F721FA03F14FF0000342EAC6
:100FC0000702B1E746EA020646EA06464FEA164637
:100FD00046EA0106BCBF46EA0646360C4FF000035F
:100FE0004FF000024FF000019EE72DE9C048934604
:100FF00030B491E8380007C831EA400C48BF34EA01
:10100000430C03D5FFF7F2FDFFF78CFFF0BCBDE802
:1010100000882DE9C048934630B491E8380007C8ED
:1010200010F0804F08BF13F0804F03D100F005F897
:10103000FFF778FFF0BCBDE8008820F07F4780EA2A
:10104000030023F07F4C07EB0C03A3F57C5300F067
:101050000040A3F1FE0392F0000F00F0B38095F082
:10106000000F00F077802DE901494FEA11404FEA67
:10107000144621EA004800FB06FC24EA064708FB68
:1010800006F607FB08F800FB07F718EB06484CEBE1
:10109000164C4FEA124B18EB07484FEA15464CEB3B
:1010A000174022EA0B4E0BFB06FC25EA06470EFB17
:1010B00006F607FB0EFE0BFB07F71EEB064E4CEB8E
:1010C000164C4FF000061EEB074E4CEB174B18EB7F
:1010D0000B0840F1000018EB0E0B58EB000840F134
:1010E00000008F1A4FF000013CBFC943661B14BFBC
:1010F000B5EB040C00213CBFC943F61B4FEA174473
:101100004EEA8E0E27EA04454FEA1C4704FB0762AD
:101110002CEA074C05FB07F70CFB05F604FB0CFC5F
:1011200016EB074642EB174216EB0C4642EB1C420D
:101130001BEB060658EB0202414146EA9E0601D52A
:10114000BDE80189B619524141EB0101A3F1010348
:10115000BDE801894FEA14454FEA114724EA0546E4
:1011600021EA074C05FB07F406FB07F70CFB06F129
:1011700005FB0CFC11EB074144EB17444FEA124707
:1011800011EB0C4144EB1C4422EA074C05FB07F22F
:1011900006FB07F70CFB06F605FB0CFC16EB0746F7
:1011A00042EB174216EB0C4642EB1C456A1854F111
:1011B000000148BF7047B619524141EB0101A3F14C
:1011C0000103704795F0000F37D04FEA11424FEA04
:1011D000144721EA024624EA074C02FB07F106FB0A
:1011E00007F70CFB06F402FB0CFC14EB074441EB85
:1011F00017414FEA154714EB0C4441EB1C4125EA1B
:10120000074C02FB07F506FB07F70CFB06F602FB93
:101210000CFC16EB074645EB174516EB0C4645EB69
:101220001C42121951F1000148BF7047B6195241D2
:1012300041EB0101A3F1010370474FEA14454FEA66
:10124000114724EA054621EA074C05FB07F106FB96
:1012500007F70CFB06F24FF0000605FB0CFC12EB47
:10126000074241EB174112EB0C4251EB1C4148BFC6
:101270007047921841EB0101A3F10103704700BFD1
:10128000FEE770477FB504460D460121202004F09B
:10129000DFFB0121022004F0BBFB04208DF80300DA
:1012A000ADF8000003208DF802006946104800F0F8
:1012B000B0F8104804F032FD0523002211460D4815
:1012C00004F020FE0020ADF80A00ADF80600ADF8ED
:1012D0000850ADF8044001A9064804F051FE002171
:1012E000044804F04AFE0121024804F00AFD7FBDD3
:1012F000001401400004004051B18200A2F1C0423C
:10130000126842F001038200A2F1C042136009E0BA
:101310008200A2F1C0421268034B1A408300A3F17D
:10132000C0431A6070470000FEFF0F00D0E90112B1
:101330001143C26811430269114342691143826932
:101340001143C2691143026A1143426A1143826A1E
:101350001143C26A1143026B114302689200A2F169
:10136000C0421160816808290BD101688900A1F190
:10137000C041096841F0400201688900A1F1C04103
:101380000A60416B0968426B526841EA0211426B84
:10139000926841EA0221426B928941EA0241426B22
:1013A000128A41EA0251426B127D41EA0261426BAC
:1013B000926911430268521C9200A2F1C04211606E
:1013C000C16AB1F5804F1BD1816B0968826B52688D
:1013D00041EA0211826B926841EA0221826B128A11
:1013E00041EA0251826B127D41EA0261826B92698D
:1013F000114302689200A2F1C042C2F8041107E052
:101400006FF0704201688900A1F1C041C1F8042168
:1014100070472DE9F04102460025002600200023F8
:101420000024002791F803C00CF00F0591F803C0C9
:101430000CF0100CBCF1000F03D091F802C04CEA84
:10144000050591F800C0BCF1000F31D014680020F0
:101450002BE04FF0010C0CFA00F3B1F800C00CEADD
:1014600003069E4220D183004FF00F0C0CFA03F7C5
:10147000BC4305FA03FC4CEA040491F803C0BCF138
:10148000280F06D14FF0010C0CFA00FCC2F814C072
:101490000AE091F803C0BCF1480F05D14FF0010CF0
:1014A0000CFA00FCC2F810C0401C0828D1D314600C
:1014B000B1F800C0BCF1FF0F34DD546800202EE00D
:1014C00000F1080C4FF0010808FA0CF3B1F800C065
:1014D0000CEA03069E4221D183004FF00F0C0CFA58
:1014E00003F7BC4305FA03FC4CEA040491F803C07B
:1014F000BCF1280F05D100F1080C08FA0CF8C2F86D
:10150000148091F803C0BCF1480F07D100F1080C1A
:101510004FF0010808FA0CF8C2F81080401C0828A7
:10152000CED35460BDE8F081016170472DE9FC47DE
:101530000021364804F0E5FB0021354804F0E1FBCA
:10154000334804F0FDFC3349088000201821CDE920
:101550000010304802880323FA21A22004F053F936
:1015600000212B4804F009FD2A49088805F0BFF93D
:1015700080460022284B05F035F80646274A284BBE
:1015800005F0C8F9044604F0FBFF82464FF08041A5
:10159000504605F0CBFB0446224905F0E5FA1D490B
:1015A0004860486805F0A2FBC4B20020182102235D
:1015B0002246CDE90010C821A22004F024F91549E3
:1015C0004868194905F0B2FB054605F08FFBC0B22B
:1015D0004FF47A7190FBF1F201FB12040020182104
:1015E00003232246CDE90010C821C62004F00BF9E0
:1015F0000121064804F082FB0121044804F081FB2C
:101600000121034804F07DFBBDE8FC870010004089
:10161000000400402800002000003440D7A3703DA3
:101620000AD732400000C84200007A4400BFFEE7FB
:1016300070B504460026174805884088454315487C
:10164000808846F60401884216D112488079012824
:1016500012D100200F4988712A2048812B208881CF
:101660000021084603F034FF01200A4988712B202D
:1016700048812A20888103E00021084603F028FFE2
:1016800004F02CF9002602E003480480761CAE42E8
:10169000FAD370BD400000200008006C10B504466D
:1016A000002C66D16C498871F02008804FF4A0703E
:1016B00048800846808849F2413188420BD066480C
:1016C000808846F60401884205D06348808845F248
:1016D000103188421AD12C205F4908812A20488184
:1016E0002B2088810846808846F60401884205D070
:1016F0005948808845F21031884206D14FF4A070D5
:10170000554908804FF4F0704880A1E05248808825
:1017100045F21051884210D14FF430504E490881A3
:101720004FF4285048814FF42C5088814FF4F070CA
:1017300008804FF4487048808AE04748808841F626
:10174000631188420DD12C20434908812B20488108
:101750002A2088814FF4F07008804FF44870488048
:1017600076E022203C490881202048812120888180
:101770006EE00120384988714FF4A0700880F02095
:1017800048800846808849F24131884205D0324875
:10179000808845F21031884207D12C202E490881DB
:1017A0002A2048812B2088813FE02B48808846F6FC
:1017B0000401884207D12C20274908812B20488129
:1017C0002A20888131E02448808845F210518842DF
:1017D00010D14FF43050204908814FF428504881EF
:1017E0004FF42C5088814FF4487008804FF4F0700B
:1017F00048801AE01848808841F6631188420DD16C
:101800002C20154908812A2048812B2088814FF4FB
:10181000487008804FF4F070488006E022200E499E
:10182000088121204881202088810B48808846F645
:101830000401884205D00848808845F2103188426A
:1018400006D14FF4F070044908804FF4A07048802E
:10185000002003F0C7FC10BD4000002030B5034657
:101860000C4615465A48808849F24131884205D0D5
:101870005748808845F21031884214D1544948892C
:1018800004F026F8181204F01DF8D8B204F01AF883
:101890004F49888904F01CF8201204F013F8E0B2D4
:1018A00004F010F88CE04A48808845F210518842D4
:1018B00020D14749488904F00BF8181204F002F8C7
:1018C00043494989491C88B204F002F8D8B203F0B0
:1018D000F9FF3F49888903F0FBFF201203F0F2FF74
:1018E0003B498989491C88B203F0F2FFE0B203F05A
:1018F000E9FF65E03648808841F66311884228D1C7
:101900003348807920B932480088401EC01A83B21B
:101910002F49488903F0DCFF181203F0D3FFD8B237
:1019200003F0D0FF181203F0CDFFD8B203F0CAFFC6
:101930002749888903F0CCFF201203F0C3FFE0B2EF
:1019400003F0C0FF201203F0BDFFE0B203F0BAFFC6
:1019500036E01F48808846F6040188421DD11C48A5
:101960008079012804D11A480088401EC01A83B229
:101970001749488903F0ACFF181203F0A3FFD8B24F
:1019800003F0A0FF1249888903F0A2FF201203F0A0
:1019900099FFE0B203F096FF12E00D48807901282C
:1019A00004D10B480088401EC01A83B208494889F8
:1019B000194603F09DFF06498889214603F098FFE8
:1019C0000348008903490880881C058030BD000059
:1019D00040000020FE07006C00B59FB00121080206
:1019E00004F006F801214FF4B47004F031F801203E
:1019F000ADF8780010208DF87B0003208DF87A0078
:101A00001EA9FE48FFF705FD4CF23370ADF87800D3
:101A100018208DF87B0003208DF87A001EA9F84865
:101A2000FFF7F7FC4FF68070ADF8780018208DF8BE
:101A30007B0003208DF87A001EA9F248FFF7E9FC2D
:101A400041F20100ADF8780018208DF87B000320EA
:101A50008DF87A001EA9EC48FFF7DBFC0120089006
:101A6000002009900F200A9000200B900C900D9000
:101A70000E900190029003200390002004900590A6
:101A80000690079006200F900020109011901020D3
:101A900012900020139015901490169017904FF408
:101AA00080501890002019904FF480401A90002028
:101AB0001B9008A81C9001A81D900FA8FFF736FCEA
:101AC00001210620FFF718FC322004F02DFC002035
:101AD00003F052FBCD49888008468088FF280ADB46
:101AE000084680884FF6FF71884204D0C748808836
:101AF000B0F5134F7ED1D32003F0EAFE03F032FBA2
:101B0000C249888003F02EFBC049888003F02AFB7D
:101B1000BE498880084680884FF6FF7101EA0020A0
:101B2000BA49888003F01EFBB84989880843B74941
:101B300088800846808849F2413188425AD0BF20C7
:101B400003F0C6FE03F00EFBB049888003F00AFBE9
:101B5000AE49888003F006FBAC49888003F002FBA5
:101B6000AA498880084680884FF6FF7101EA002064
:101B7000A649888003F0F6FAA44989880843A34956
:101B800088800846808846F6040188427AD0D420AE
:101B900003F09EFE03F0E6FA9C49888003F0E2FA27
:101BA0009A49888003F0DEFA984988800846808840
:101BB0004FF6FF7101EA00209449888003F0D2FAC1
:101BC000924989880843914988800846808845F26F
:101BD0001031884256D04FF45A4003F079FE03F09A
:101BE000C1FA8A4988804FF45B4003F071FE03F02C
:101BF000B9FA00E046E085498880084680884FF6BB
:101C0000FF7101EA0020814988804FF45C4003F0B5
:101C10005FFE03F0A7FA7D49898808437B498880E5
:101C200008468088B0F5004F02D145F210508880F8
:101C30007648808845F21051884223D0A12003F0D5
:101C400047FE03F08FFA7149888003F08BFA6F49E1
:101C50008880084680884FF6FF7101EA00206B49B2
:101C6000888003F07FFA694989880843674988803A
:101C70000846808845F26171884203D141F66310BD
:101C8000624988806148818861A0FEF7D1FA5F4887
:101C9000808849F2413188427ED1CF2003F018FE7E
:101CA000002003F00FFEC12003F00CFE302003F0F3
:101CB00009FEED2003F00CFE642003F003FE032078
:101CC00003F000FE122003F0FDFD812003F0FAFD79
:101CD000E82003F0FDFD852003F0F4FD102003F063
:101CE000F1FD7A2003F0EEFDCB2003F0F1FD392069
:101CF00003F0E8FD2C2003F0E5FD002003F0E2FDF9
:101D0000342003F0DFFD022003F0DCFDF72003F0B8
:101D1000DFFD202003F0D6FDEA2003F0D9FD0020EE
:101D200003F0D0FD002003F0CDFDC02003F0D0FD76
:101D30001B2003F0C7FDC12003F0CAFD012003F002
:101D4000C1FDC52003F0C4FD302003F0BBFD3020F1
:101D500003F0B8FDC72003F0BBFDB72003F0B2FDD0
:101D6000362003F0B5FD482003F0ACFD3A2003F027
:101D7000AFFD552003F0A6FDB12003F0A9FD002022
:101D800003F0A0FD1A2003F09DFDB62003F0A0FD96
:101D90000A2003F097FD00E0AAE0A22003F092FDE4
:101DA000F22003F095FD002003F08CFD262003F0C7
:101DB0008FFD012003F086FDE02003F089FD0F2058
:101DC00003F080FD2A2003F07DFD282003F07AFD3A
:101DD000082003F077FD0E2003F074FD082003F0C7
:101DE00071FD542003F06EFDA92003F06BFD43202C
:101DF00003F068FD0A2003F065FD11E0000C0140CE
:101E00000014014000180140002001404000002063
:101E1000204C43442049443A25780D0A0000000034
:101E20000F2003F04FFD002003F04CFD002003F0D5
:101E300049FD002003F046FD002003F043FDE120B2
:101E400003F046FD002003F03DFD152003F03AFDB0
:101E5000172003F037FD072003F034FD112003F0B5
:101E600031FD062003F02EFD2B2003F02BFD562024
:101E700003F028FD3C2003F025FD052003F022FDA2
:101E8000102003F01FFD0F2003F01CFD3F2003F086
:101E900019FD3F2003F016FD0F2003F013FD2B204A
:101EA00003F016FD002003F00DFD002003F00AFDF5
:101EB000012003F007FD3F2003F004FD2A2003F07A
:101EC00007FD002003F0FEFC002003F0FBFC0020D7
:101ED00003F0F8FCEF2003F0F5FC112003F0F8FC10
:101EE000782004F021FA292003F0F2FC03F01DB958
:101EF000FE48808846F6040188427CD1112003F018
:101F0000E7FC142004F010FAD02003F0E1FC0720D5
:101F100003F0D8FC422003F0D5FC1D2003F0D2FCD6
:101F2000D12003F0D5FC002003F0CCFC1A2003F0F4
:101F3000C9FC092003F0C6FCD22003F0C9FC012033
:101F400003F0C0FC222003F0BDFCC02003F0C0FC65
:101F5000102003F0B7FC3B2003F0B4FC002003F09A
:101F6000B1FC022003F0AEFC112003F0ABFCC52055
:101F700003F0AEFC032003F0A5FCC82003F0A8FC8E
:101F8000002003F09FFC252003F09CFC212003F09F
:101F900099FC052003F096FC002003F093FC0A2036
:101FA00003F090FC652003F08DFC252003F08AFCF3
:101FB000772003F087FC502003F084FC0F2003F00F
:101FC00081FC002003F07EFCF82003F081FC01205E
:101FD00003F078FCFE2003F07BFC002003F072FC91
:101FE000022003F06FFC202003F072FC362003F087
:101FF0006FFC082000E02CE003F064FC3A2003F0C2
:1020000067FC552003F05EFC2B2003F061FC0020F0
:1020100003F058FC002003F055FC012003F052FCB3
:102020003F2003F04FFC2A2003F052FC002003F075
:1020300049FC002003F046FC012003F043FCDF20B4
:1020400003F040FC782004F06FF9292003F040FCF5
:102050004CE7A648808845F21031884240F07C87E2
:10206000ED2003F035FC012003F02CFCFE2003F0F2
:1020700029FCEE2003F02CFCDE2003F023FC2120C1
:1020800003F020FCF12003F023FC012003F01AFCF4
:10209000DF2003F01DFC102003F014FCC42003F02B
:1020A00017FC8F2003F00EFCC62003F011FC00206B
:1020B00003F008FCE22003F005FCE22003F002FC40
:1020C000E22003F0FFFBBF2003F002FCAA2003F094
:1020D000F9FBB02003F0FCFB0D2003F0F3FB002024
:1020E00003F0F0FB0D2003F0EDFB002003F0EAFB12
:1020F000112003F0E7FB002003F0E4FB192003F0BC
:10210000E1FB002003F0DEFB212003F0DBFB0020DD
:1021100003F0D8FB2D2003F0D5FB002003F0D2FB09
:102120003D2003F0CFFB002003F0CCFB5D2003F04B
:10213000C9FB002003F0C6FB5D2003F0C3FB0020B9
:1021400003F0C0FBB12003F0C3FB802003F0BAFB17
:10215000002003F0B7FB8B2003F0B4FB002003F05A
:10216000B1FB962003F0AEFB002003F0ABFBB220E6
:1021700003F0AEFB002003F0A5FB002003F0A2FB60
:10218000022003F09FFB002003F09CFB032003F0E0
:1021900099FB002003F096FBB32003F099FB00208D
:1021A00003F090FB002003F08DFB002003F08AFB7E
:1021B000002003F087FB002003F084FB002003F0E5
:1021C00081FB002003F07EFB002003F07BFB00205E
:1021D00003F078FB002003F075FB002003F072FB96
:1021E000002003F06FFB002003F06CFB002003F0E5
:1021F00069FB002003F066FB002003F063FB002076
:1022000003F060FB002003F05DFB002003F05AFBAD
:10221000002003F057FB002003F054FB002003F0E4
:1022200051FB002003F04EFB002003F04BFBB420D9
:1022300003F04EFB8B2003F045FB002003F042FB34
:10224000962003F03FFB002003F03CFBA12003F0AD
:1022500039FB002003F036FBB52003F039FB0220E8
:1022600003F030FB002003F02DFB032003F02AFBDA
:10227000002003F027FB042003F024FB002003F0E0
:1022800021FBB62003F024FB002003F01BFB002001
:1022900003F018FBB72003F01BFB002003F012FB38
:1022A000002003F00FFB3F2003F00CFB002003F0A5
:1022B00009FB5E2003F006FB002003F003FB642013
:1022C00003F000FB002003F0FDFA8C2003F0FAFA83
:1022D000002003F0F7FAAC2003F0F4FA002003F03A
:1022E000F1FADC2003F0EEFA002001E040000020CB
:1022F00003F0E8FA702003F0E5FA002003F0E2FAB8
:10230000902003F0DFFA002003F0DCFAEB2003F06A
:10231000D9FA002003F0D6FADC2003F0D3FA00202B
:1023200003F0D0FAB82003F0D3FA002003F0CAFA81
:10233000002003F0C7FA002003F0C4FA002003F0E5
:10234000C1FA002003F0BEFA002003F0BBFA00201F
:1023500003F0B8FA002003F0B5FABA2003F0B8FA97
:10236000242003F0AFFA002003F0ACFA002003F0C1
:10237000A9FA002003F0A6FAC12003F0A9FA202050
:1023800003F0A0FA002003F09DFA542003F09AFA1B
:10239000002003F097FAFF2003F094FA002003F0E6
:1023A00091FAC22003F094FA0A2003F08BFA00207D
:1023B00003F088FA042003F085FA002003F082FA83
:1023C000C32003F085FA3C2003F07CFA002003F0E0
:1023D00079FA3A2003F076FA002003F073FA3920F4
:1023E00003F070FA002003F06DFA372003F06AFA68
:1023F000002003F067FA3C2003F064FA002003F0A9
:1024000061FA362003F05EFA002003F05BFA322016
:1024100003F058FA002003F055FA2F2003F052FA87
:10242000002003F04FFA2C2003F04CFA002003F0B8
:1024300049FA292003F046FA002003F043FA262047
:1024400003F040FA002003F03DFA242003F03AFAAA
:10245000002003F037FA242003F034FA002003F0C0
:1024600031FA232003F02EFA002003F02BFA3C204F
:1024700003F028FA002003F025FA362003F022FAB0
:10248000002003F01FFA322003F01CFA002003F0B2
:1024900019FA2F2003F016FA002003F013FA2C206B
:1024A00003F010FA002003F00DFA292003F00AFAD5
:1024B000002003F007FA262003F004FA002003F0BE
:1024C00001FA242003F0FEF9002003F0FBF9242098
:1024D00003F0F8F9002003F0F5F9232003F0F2F9F6
:1024E000002003F0EFF9C42003F0F2F9622003F0BA
:1024F000E9F9002003F0E6F9052003F0E3F90020F4
:1025000003F0E0F9842003F0DDF9002003F0DAF9AC
:10251000F02003F0D7F9002003F0D4F9182003F0DD
:10252000D1F9002003F0CEF9A42003F0CBF900206C
:1025300003F0C8F9182003F0C5F9002003F0C2F930
:10254000502003F0BFF9002003F0BCF90C2003F089
:10255000B9F9002003F0B6F9172003F0B3F9002011
:1025600003F0B0F9952003F0ADF9002003F0AAF9CB
:10257000F32003F0A7F9002003F0A4F9E62003F00C
:10258000A1F9002003F09EF9C52003F0A1F9322043
:1025900003F098F9002003F095F9442003F092F934
:1025A000002003F08FF9652003F08CF9002003F080
:1025B00089F9762003F086F9002003F083F988205A
:1025C00003F080F9002003F07DF9C62003F080F9C4
:1025D000202003F077F9002003F074F9172003F0AE
:1025E00071F9002003F06EF9012003F06BF900206F
:1025F00003F068F9C72003F06BF9002003F062F9DB
:10260000002003F05FF9002003F05CF9002003F0E4
:1026100059F9C82003F05CF9002003F053F90020B9
:1026200003F050F9002003F04DF9002003F04AF9BF
:10263000C92003F04DF9002003F044F9002003F015
:1026400041F9002003F03EF9002003F03BF900209F
:1026500003F038F9002003F035F9002003F032F9D7
:10266000002003F02FF9002003F02CF9002003F0E4
:1026700029F9002003F026F9002003F023F90020B7
:1026800003F020F9002003F01DF9002003F01AF9EF
:10269000002003F017F9E02003F01AF9162003F0E8
:1026A00011F9002003F00EF91C2003F00BF90020B3
:1026B00003F008F9212003F005F9002003F002F9E6
:1026C000362003F0FFF8002003F0FCF8462003F06A
:1026D000F9F8002003F0F6F8522003F0F3F8002098
:1026E00003F0F0F8642003F0EDF8002003F0EAF8BE
:1026F0007A2003F0E7F8002003F0E4F88B2003F0E1
:10270000E1F8002003F0DEF8992003F0DBF8002068
:1027100003F0D8F8A82003F0D5F8002003F0D2F891
:10272000B92003F0CFF8002003F0CCF8C42003F068
:10273000C9F8002003F0C6F8CA2003F0C3F800204F
:1027400003F0C0F8D22003F0BDF8002003F0BAF87F
:10275000D92003F0B7F8002003F0B4F8E02003F02C
:10276000B1F8002003F0AEF8F32003F0ABF800203E
:1027700003F0A8F8E12003F0ABF8162003F0A2F86C
:10278000002003F09FF81C2003F09CF8002003F0C9
:1027900099F8222003F096F8002003F093F83620F1
:1027A00003F090F8002003F08DF8452003F08AF83C
:1027B000002003F087F8522003F084F8002003F093
:1027C00081F8642003F07EF8002003F07BF87A2083
:1027D00003F078F8002003F075F88B2003F072F80E
:1027E000002003F06FF8992003F06CF8002003F04C
:1027F00069F8A82003F066F8002003F063F8B92018
:1028000003F060F8002003F05DF8C42003F05AF8EC
:10281000002003F057F8CA2003F054F8002003F01A
:1028200051F8D22003F04EF8002003F04BF8D820E6
:1028300003F048F8002003F045F8E02003F042F8E8
:10284000002003F03FF8F32003F03CF8002003F0F1
:1028500039F8E22003F03CF8052003F033F80020BB
:1028600003F030F80B2003F02DF8002003F02AF8D5
:102870001B2003F027F8002003F024F8342003F095
:1028800021F8002003F01EF8442003F01BF800207C
:1028900003F018F84F2003F015F8002003F012F8A9
:1028A000612003F00FF8002003F00CF8792003F00A
:1028B00009F8002003F006F8882003F003F8002050
:1028C00003F000F8972002F0FDFF002002F0FAFF6D
:1028D000A62002F0F7FF002002F0F4FFB72002F07C
:1028E000F1FF002002F0EEFFC22002F0EBFF00201B
:1028F00002F0E8FFC72002F0E5FF002002F0E2FF4F
:10290000D12002F0DFFF002002F0DCFFD62002F031
:10291000D9FF002002F0D6FFDD2002F0D3FF002017
:1029200002F0D0FFF32002F0CDFF002002F0CAFF3A
:10293000E32002F0CDFF052002F0C4FF002002F0EA
:10294000C1FF0A2002F0BEFF002002F0BBFF1C20E6
:1029500002F0B8FF002002F0B5FF332002F0B2FF12
:10296000002002F0AFFF442002F0ACFF002002F094
:10297000A9FF502002F0A6FF002002F0A3FF622072
:1029800002F0A0FF002002F09DFF782002F09AFFE5
:10299000002002F097FF882002F094FF002002F050
:1029A00091FF972002F08EFF002002F08BFFA620FF
:1029B00002F088FF002002F085FFB72002F082FFBE
:1029C000002002F07FFFC22002F07CFF002002F016
:1029D00079FFC72002F076FF002002F073FFD120BC
:1029E00002F070FF002002F06DFFD52002F06AFFB8
:1029F000002002F067FFDD2002F064FF002002F0FB
:102A000061FFF32002F05EFF002002F05BFFE42094
:102A100002F05EFF012002F055FF002002F052FF9D
:102A2000012002F04FFF002002F04CFF022002F0D4
:102A300049FF002002F046FF2A2002F043FF002059
:102A400002F040FF3C2002F03DFF002002F03AFF80
:102A50004B2002F037FF002002F034FF5D2002F02F
:102A600031FF002002F02EFF742002F02BFF002027
:102A700002F028FF842002F025FF002002F022FF50
:102A8000932002F01FFF002002F01CFFA22002F0A2
:102A900019FF002002F016FFB32002F013FF002000
:102AA00002F010FFBE2002F00DFF002002F00AFF2E
:102AB000C42002F007FF002002F004FFCD2002F046
:102AC00001FF002002F0FEFED32002F0FBFE0020FA
:102AD00002F0F8FEDD2002F0F5FE002002F0F2FE2A
:102AE000F32002F0EFFE002002F0ECFEE52002F001
:102AF000EFFE002002F0E6FE002002F0E3FE0020E0
:102B000002F0E0FE002002F0DDFE022002F0DAFE1C
:102B1000002002F0D7FE292002F0D4FE002002F0AF
:102B2000D1FE3C2002F0CEFE002002F0CBFE4B2076
:102B300002F0C8FE002002F0C5FE5D2002F0C2FED9
:102B4000002002F0BFFE742002F0BCFE002002F064
:102B5000B9FE842002F0B6FE002002F0B3FE9320FE
:102B600002F0B0FE002002F0ADFEA22002F0AAFEAC
:102B7000002002F0A7FEB32002F0A4FE002002F025
:102B8000A1FEBE2002F09EFE002002F09BFEC420AB
:102B900002F098FE002002F095FECD2002F092FE99
:102BA000002002F08FFED32002F08CFE002002F005
:102BB00089FEDC2002F086FE002002F083FEF32076
:102BC00002F080FE002002F07DFEE62002F080FE92
:102BD000112002F077FE002002F074FE342002F093
:102BE00071FE002002F06EFE562002F06BFE002007
:102BF00002F068FE762002F065FE002002F062FE20
:102C0000772002F05FFE002002F05CFE662002F0FA
:102C100059FE002002F056FE882002F053FE0020EC
:102C200002F050FE992002F04DFE002002F04AFE14
:102C3000BB2002F047FE002002F044FE992002F083
:102C400041FE002002F03EFE662002F03BFE002026
:102C500002F038FE552002F035FE002002F032FE70
:102C6000552002F02FFE002002F02CFE452002F03D
:102C700029FE002002F026FE432002F023FE002061
:102C800002F020FE442002F01DFE002002F01AFE99
:102C9000E72002F01DFE322002F014FE002002F0B8
:102CA00011FE552002F00EFE002002F00BFE7620F1
:102CB00002F008FE002002F005FE662002F002FE8F
:102CC000002002F0FFFD672002F0FCFD002002F072
:102CD000F9FD672002F0F6FD002002F0F3FD8720E9
:102CE00002F0F0FD002002F0EDFD992002F0EAFD77
:102CF000002002F0E7FDBB2002F0E4FD002002F01E
:102D0000E1FD992002F0DEFD002002F0DBFD7720DE
:102D100002F0D8FD002002F0D5FD442002F0D2FDE3
:102D2000002002F0CFFD562002F0CCFD002002F082
:102D3000C9FD232002F0C6FD002002F0C3FD3320B0
:102D400002F0C0FD002002F0BDFD452002F0BAFDFA
:102D5000002002F0B7FDE82002F0BAFD002002F0EA
:102D6000B1FD002002F0AEFD992002F0ABFD002085
:102D700002F0A8FD872002F0A5FD002002F0A2FDD0
:102D8000882002F09FFD002002F09CFD772002F0D9
:102D900099FD002002F096FD662002F093FD0020D0
:102DA00002F090FD882002F08DFD002002F08AFDE7
:102DB000AA2002F087FD002002F084FDBB2002F073
:102DC00081FD002002F07EFD992002F07BFD0020B5
:102DD00002F078FD662002F075FD002002F072FD21
:102DE000552002F06FFD002002F06CFD552002F02E
:102DF00069FD002002F066FD442002F063FD002022
:102E000002F060FD442002F05DFD002002F05AFD5A
:102E1000552002F057FD002002F054FDE92002F099
:102E200057FDAA2002F04EFD002002F04BFD0020CD
:102E300002F048FD002002F045FD002002F048FDB0
:102E4000AA2002F03FFDCF2002F042FD002002F058
:102E500039FD002002F036FD002002F033FD002095
:102E600002F030FD002002F02DFD002002F02AFDCE
:102E7000002002F027FD002002F024FD002002F0D7
:102E800021FD002002F01EFD002002F01BFD0020AD
:102E900002F018FD002002F015FD002002F012FDE6
:102EA000002002F00FFD002002F00CFD002002F0D7
:102EB00009FDF02002F00CFD002002F003FD50207F
:102EC00002F000FD002002F0FDFC002002F0FAFC00
:102ED000002002F0F7FCF32002F0FAFC002002F0E0
:102EE000F1FCF92002F0F4FC062002F0EBFC1020CB
:102EF00002F0E8FC292002F0E5FC002002F0E2FCF0
:102F00003A2002F0E5FC552002F0DCFC112002F032
:102F1000DFFC642003F008FA292002F0D9FC3520F8
:102F200002F0D6FC002002F0CDFC512002F0D0FCD3
:102F3000FF2002F0C7FC532002F0CAFC2C2002F054
:102F4000C1FC552002F0C4FC822002F0BBFC2C2006
:102F500002F0BEFC02F0E9B8FE48808845F210514C
:102F600088427DD155214FF4704002F0C1FCAA2166
:102F70004FF2010002F0BCFC52214FF2020002F0BD
:102F8000B7FC08214FF2030002F0B2FC01214FF21E
:102F9000040002F0ADFC0D214FF4304002F0A8FC1B
:102FA0000D214BF2010002F0A3FC0D214BF20200B7
:102FB00002F09EFC34214FF4364002F099FC34219B
:102FC0004BF2016002F094FC34214BF2026002F0FB
:102FD0008FFC0D214FF4314002F08AFC0D214BF2A1
:102FE000011002F085FC0D214BF2021002F080FC72
:102FF00034214FF4374002F07BFC34214BF2017056
:1030000002F076FC34214BF2027002F071FC0021D8
:103010004FF4324002F06CFC00214BF2012002F030
:1030200067FC00214BF2022002F062FC24214FF4E5
:10303000384002F05DFC24214BF6010002F058FC00
:1030400024214BF6020002F053FC01214FF43F40D3
:1030500002F04EFC0F214FF4334002F049FC00E037
:10306000FDE30F214BF2013002F042FC0F214BF245
:10307000023002F03DFC34214FF4394002F038FCBC
:1030800034214BF6011002F033FC34214BF60210D0
:1030900002F02EFC08214FF4354002F029FC0821F3
:1030A0004BF2015002F024FC08214BF2025002F0D6
:1030B0001FFC03214FF4424002F01AFC24214FF47C
:1030C0003A4002F015FC24214BF6012002F010FCDE
:1030D00024214BF6022002F00BFC00214FF43C406F
:1030E00002F006FC78214BF6014002F001FC0021C1
:1030F0004BF6024002F0FCFB00214FF43D4002F091
:10310000F7FB78214BF6015002F0F2FB00214BF661
:10311000025002F0EDFB00214FF43E4002F0E8FBCC
:1031200064214BF6016002F0E3FB00214FF45140B3
:1031300002F0DEFB33214DF2011002F0D9FB002139
:103140004DF2021002F0D4FB34214DF2031002F0D4
:10315000CFFB00214DF2041002F0CAFB3A214DF2E0
:10316000051002F0C5FB00214DF2061002F0C0FB75
:103170004A214DF2071002F0BBFB00214DF208106E
:1031800002F0B6FB5C214DF2091002F0B1FB002108
:103190004DF20A1002F0ACFB81214DF20B1002F04F
:1031A000A7FB00214DF20C1002F0A2FBA6214DF26C
:1031B0000D1002F09DFB00214DF20E1002F098FB65
:1031C000E5214DF20F1002F093FB01214DF210109A
:1031D00002F08EFB13214DF2111002F089FB012148
:1031E0004DF2121002F084FB54214DF2131002F044
:1031F0007FFB01214DF2141002F07AFB82214DF287
:10320000151002F075FB01214DF2161002F070FB53
:10321000CA214DF2171002F06BFB02214DF218107B
:1032200002F066FB00214DF2191002F061FB022151
:103230004DF21A1002F05CFB01214DF21B1002F05E
:1032400057FB02214DF21C1002F052FB34214DF2CB
:103250001D1002F04DFB02214DF21E1002F048FB42
:1032600067214DF21F1002F043FB02214DF22010A6
:1032700002F03EFB84214DF2211002F039FB0221C5
:103280004DF2221002F034FBA4214DF2231002F083
:103290002FFB02214DF2241002F02AFBB7214DF240
:1032A000251002F025FB02214DF2261002F020FB32
:1032B000CF214DF2271002F01BFB02214DF2281006
:1032C00002F016FBDE214DF2291002F011FB022163
:1032D0004DF22A1002F00CFBF2214DF22B1002F0FD
:1032E00007FB02214DF22C1002F002FBFE214DF2F1
:1032F0002D1002F0FDFA03214DF22E1002F0F8FA23
:1033000010214DF22F1002F0F3FA03214DF230108C
:1033100002F0EEFA33214DF2311002F0E9FA032106
:103320004DF2321002F0E4FA6D214DF2331002F04A
:10333000DFFA00214FF4524002F0DAFA33214DF265
:10334000012002F0D5FA00214DF2022002F0D0FA5D
:10335000342101E0400000204DF2032002F0C8FAC1
:1033600000214DF2042002F0C3FA3A214DF205206B
:1033700002F0BEFA00214DF2062002F0B9FA4A210D
:103380004DF2072002F0B4FA00214DF2082002F0BD
:10339000AFFA5C214DF2092002F0AAFA00214DF2A9
:1033A0000A2002F0A5FA81214DF20B2002F0A0FACA
:1033B00000214DF20C2002F09BFAA6214DF20D20C7
:1033C00002F096FA00214DF20E2002F091FAE5216A
:1033D0004DF20F2002F08CFA01214DF2102002F084
:1033E00087FA13214DF2112002F082FA01214DF2E9
:1033F000122002F07DFA54214DF2132002F078FAE7
:1034000001214DF2142002F073FA82214DF21520B1
:1034100002F06EFA01214DF2162002F069FACA217B
:103420004DF2172002F064FA02214DF2182002F04A
:103430005FFA00214DF2192002F05AFA02214DF2F2
:103440001A2002F055FA01214DF21B2002F050FA29
:1034500002214DF21C2002F04BFA34214DF21D20C6
:1034600002F046FA02214DF21E2002F041FA6721D5
:103470004DF21F2002F03CFA02214DF2202002F012
:1034800037FA84214DF2212002F032FA02214DF266
:10349000222002F02DFAA4214DF2232002F028FA76
:1034A00002214DF2242002F023FAB7214DF225200B
:1034B00002F01EFA02214DF2262002F019FACF2165
:1034C0004DF2272002F014FA02214DF2282002F0DA
:1034D0000FFADE214DF2292002F00AFA02214DF204
:1034E0002A2002F005FAF2214DF22B2002F000FA18
:1034F00002214DF22C2002F0FBF9FE214DF22D208D
:1035000002F0F6F903214DF22E2002F0F1F910211C
:103510004DF22F2002F0ECF903214DF2302002F0A1
:10352000E7F933214DF2312002F0E2F903214DF2A7
:10353000322002F0DDF96D214DF2332002F0D8F98E
:1035400000214FF4534002F0D3F933214DF2013002
:1035500002F0CEF900214DF2023002F0C9F9342117
:103560004DF2033002F0C4F900214DF2043002F0B4
:10357000BFF93A214DF2053002F0BAF900214DF2BF
:10358000063002F0B5F94A214DF2073002F0B0F9E9
:1035900000214DF2083002F0ABF95C214DF2093008
:1035A00002F0A6F900214DF20A3002F0A1F98121C2
:1035B0004DF20B3002F09CF900214DF20C3002F07C
:1035C00097F9A6214DF20D3002F092F900214DF24B
:1035D0000E3002F08DF9E5214DF20F3002F088F93E
:1035E00001214DF2103002F083F913214DF2113018
:1035F00002F07EF901214DF2123002F079F95421E6
:103600004DF2133002F074F901214DF2143002F042
:103610006FF982214DF2153002F06AF901214DF265
:10362000163002F065F9CA214DF2173002F060F948
:1036300002214DF2183002F05BF900214DF21930F1
:1036400002F056F902214DF21A3002F051F901212F
:103650004DF21B3002F04CF902214DF21C3002F009
:1036600047F934214DF21D3002F042F902214DF2AA
:103670001E3002F03DF967214DF21F3002F038F99B
:1036800002214DF2203002F033F984214DF2213035
:1036900002F02EF902214DF2223002F029F9A42184
:1036A0004DF2233002F024F902214DF2243002F0D1
:1036B0001FF9B7214DF2253002F01AF902214DF21F
:1036C000263002F015F9CF214DF2273002F010F923
:1036D00002214DF2283002F00BF9DE214DF22930A3
:1036E00002F006F902214DF22A3002F001F9F2212E
:1036F0004DF22B3002F0FCF802214DF22C3002F09A
:10370000F7F8FE214DF22D3002F0F2F803214DF2D0
:103710002E3002F0EDF810214DF22F3002F0E8F8D3
:1037200003214DF2303002F0E3F833214DF2313015
:1037300002F0DEF803214DF2323002F0D9F86D21AB
:103740004DF2333002F0D4F800214FF4544002F02F
:10375000CFF833214DF2014002F0CAF800214DF2BA
:10376000024002F0C5F834214DF2034002F0C0F8E7
:1037700000214DF2044002F0BBF83A214DF2054021
:1037800002F0B6F800214DF2064002F0B1F84A21ED
:103790004DF2074002F0ACF800214DF2084002F073
:1037A000A7F85C214DF2094002F0A2F800214DF289
:1037B0000A4002F09DF881214DF20B4002F098F88A
:1037C00000214DF20C4002F093F8A6214DF20D407D
:1037D00002F08EF800214DF20E4002F089F8E5214A
:1037E0004DF20F4002F084F801214DF2104002F03A
:1037F0007FF813214DF2114002F07AF801214DF2C9
:10380000124002F075F854214DF2134002F070F8A6
:1038100001214DF2144002F06BF882214DF2154067
:1038200002F066F801214DF2164002F061F8CA215B
:103830004DF2174002F05CF802214DF2184002F000
:1038400057F800214DF2194002F052F802214DF2D2
:103850001A4002F04DF801214DF21B4000E006E352
:1038600002F046F802214DF21C4002F041F83421EA
:103870004DF21D4002F03CF802214DF21E4002F0D4
:1038800037F867214DF21F4002F032F802214DF265
:10389000204002F02DF884214DF2214002F028F85A
:1038A00002214DF2224002F023F8A4214DF22340E0
:1038B00002F01EF802214DF2244002F019F8B7215F
:1038C0004DF2254002F014F802214DF2264002F09C
:1038D0000FF8CF214DF2274002F00AF802214DF2F5
:1038E000284002F005F8DE214DF2294002F000F8F0
:1038F00002214DF22A4001F0FBFFF2214DF22B4054
:1039000001F0F6FF02214DF22C4001F0F1FFFE2103
:103910004DF22D4001F0ECFF03214DF22E4001F05D
:10392000E7FF10214DF22F4001F0E2FF03214DF29D
:10393000304001F0DDFF33214DF2314001F0D8FF7E
:1039400003214DF2324001F0D3FF6D214DF233409F
:1039500001F0CEFF00214FF4554001F0C9FF3321A3
:103960004DF2015001F0C4FF00214DF2025001F070
:10397000BFFF34214DF2035001F0BAFF00214DF298
:10398000045001F0B5FF3A214DF2055001F0B0FFAF
:1039900000214DF2065001F0ABFF4A214DF20750D5
:1039A00001F0A6FF00214DF2085001F0A1FF5C21BB
:1039B0004DF2095001F09CFF00214DF20A5001F038
:1039C00097FF81214DF20B5001F092FF00214DF243
:1039D0000C5001F08DFFA6214DF20D5001F088FF33
:1039E00000214DF20E5001F083FFE5214DF20F5002
:1039F00001F07EFF01214DF2105001F079FF1321FB
:103A00004DF2115001F074FF01214DF2125001F0FE
:103A10006FFF54214DF2135001F06AFF01214DF266
:103A2000145001F065FF82214DF2155001F060FF46
:103A300001214DF2165001F05BFFCA214DF21750E3
:103A400001F056FF02214DF2185001F051FF002104
:103A50004DF2195001F04CFF02214DF21A5001F0C5
:103A600047FF01214DF21B5001F042FF02214DF2B0
:103A70001C5001F03DFF34214DF21D5001F038FF84
:103A800002214DF21E5001F033FF67214DF21F500D
:103A900001F02EFF02214DF2205001F029FF842178
:103AA0004DF2215001F024FF02214DF2225001F08D
:103AB0001FFFA4214DF2235001F01AFF02214DF205
:103AC000245001F015FFB7214DF2255001F010FFF1
:103AD00002214DF2265001F00BFFCF214DF227506D
:103AE00001F006FF02214DF2285001F001FFDE2116
:103AF0004DF2295001F0FCFE02214DF22A5001F056
:103B0000F7FEF2214DF22B5001F0F2FE02214DF2B0
:103B10002C5001F0EDFEFE214DF22D5001F0E8FE9B
:103B200003214DF22E5001F0E3FE10214DF22F50F3
:103B300001F0DEFE03214DF2305001F0D9FE3321B9
:103B40004DF2315001F0D4FE03214DF2325001F01C
:103B5000CFFE6D214DF2335001F0CAFE00214FF42B
:103B6000564001F0C5FE33214DF2016001F0C0FE68
:103B700000214DF2026001F0BBFE34214DF20360E2
:103B800001F0B6FE00214DF2046001F0B1FE3A21D1
:103B90004DF2056001F0ACFE00214DF2066001F02F
:103BA000A7FE4A214DF2076001F0A2FE00214DF26E
:103BB000086001F09DFE5C214DF2096001F098FE65
:103BC00000214DF20A6001F093FE81214DF20B605D
:103BD00001F08EFE00214DF20C6001F089FEA6215D
:103BE0004DF20D6001F084FE00214DF20E6001F0F7
:103BF0007FFEE5214DF20F6001F07AFE01214DF2CA
:103C0000106001F075FE13214DF2116001F070FE9D
:103C100001214DF2126001F06BFE54214DF2136050
:103C200001F066FE01214DF2146001F061FE822177
:103C30004DF2156001F05CFE01214DF2166001F0BD
:103C400057FECA214DF2176001F052FE02214DF2DB
:103C5000186001F04DFE00214DF2196001F048FEA0
:103C600002214DF21A6001F043FE01214DF21B606A
:103C700001F03EFE02214DF21C6001F039FE3421BC
:103C80004DF21D6001F034FE02214DF21E6001F084
:103C90002FFE67214DF21F6001F02AFE02214DF236
:103CA000206001F025FE84214DF2216001F020FE0C
:103CB00002214DF2226001F01BFEA4214DF223608F
:103CC00001F016FE02214DF2246001F011FEB72131
:103CD0004DF2256001F00CFE02214DF2266001F04C
:103CE00007FECF214DF2276001F002FE02214DF2C6
:103CF000286001F0FDFDDE214DF2296001F0F8FDA4
:103D000002214DF22A6001F0F3FDF2214DF22B6009
:103D100001F0EEFD02214DF22C6001F0E9FDFE21E3
:103D20004DF22D6001F0E4FD03214DF22E6001F013
:103D3000DFFD10214DF22F6001F0DAFD03214DF27D
:103D4000306001F0D5FD33214DF2316001F0D0FD3E
:103D500003214DF2326001F0CBFD6D214DF2336055
:103D600001F0C6FD55214FF4704001F0C1FDAA21BC
:103D70004FF2010001F0BCFD52214FF2020001F0B0
:103D8000B7FD08214FF2030001F0B2FD00214FF210
:103D9000040001F0ADFDCC214FF4314001F0A8FD4D
:103DA00000214BF2011001F0A3FD05214FF4364034
:103DB00001F09EFD70214FF4374001F099FD702114
:103DC0004BF2017001F094FD01214FF4384001F0F5
:103DD0008FFD03214BF6010001F08AFD03214BF614
:103DE000020001F085FD03214BF6030001F080FD88
:103DF00002214FF43C4001F07BFD00214BF60140D5
:103E000001F076FD00214BF6024001F071FDD0215A
:103E10004FF4494001F06CFD02214CF6011001F015
:103E200067FD50214CF6021001F062FD50214CF666
:103E3000031001F05DFD50214CF6041001F058FD17
:103E400000214FF4545001F053FD55214FF46850B8
:103E500001F04EFD4FF4885001F03AFD782002F059
:103E600089FA4FF4245001F033FD01F05EB9FE48A9
:103E7000808849F2253188427ED147F6F001E5205D
:103E800001F036FD4FF48071012001F031FD4FF457
:103E9000E061022001F02CFD41F23001032001F02D
:103EA00027FD0021042001F023FD40F2022108201B
:103EB00001F01EFD0021092001F01AFD00210A2059
:103EC00001F016FD00210C2001F012FD00210D2053
:103ED00001F00EFD00210F2001F00AFD002110204D
:103EE00001F006FD0721112001F002FD0021122042
:103EF00001F0FEFC0021132001F0FAFC0021072054
:103F000001F0F6FC41F29061102001F0F1FC40F26A
:103F10002721112001F0ECFC9D21122001F0E8FC8A
:103F20004FF4C851132001F0E3FC2521292001F0B2
:103F3000DFFC0D212B2001F0DBFC0721302001F0FC
:103F4000D7FC40F20331312001F0D2FC03213220B2
:103F500001F0CEFC40F20621352001F0C9FC082119
:103F6000362001F0C5FC40F20641372001F0C0FCCC
:103F70004FF44171382000E057E001F0B9FC07210F
:103F8000392001F0B5FC40F202613C2001F0B0FCA8
:103F900008213D2001F0ACFC0021502001F0A8FCDC
:103FA000EF21512001F0A4FC0021522001F0A0FCDF
:103FB00040F23F11532001F09BFC4FF42741602059
:103FC00001F096FC0121612001F092FC00216A20A1
:103FD00001F08EFC0021802001F08AFC002181206C
:103FE00001F086FC0021822001F082FC0021832068
:103FF00001F07EFC0021842001F07AFC0021852064
:1040000001F076FC1021902001F072FC4FF4C061A9
:10401000922001F06DFC40F23311072001F068FCA2
:104020002221002001F064FC1FE78F48808849F2BC
:10403000283188427ED141F28F01EC2001F058FCFA
:1040400041F23421EF2001F053FC4FF48071012044
:1040500001F04EFC4FF4E061022001F049FC41F216
:104060003001032001F044FC0021042001F040FC59
:1040700040F20221082001F03BFC0021092001F060
:1040800037FC00210A2001F033FC01210C2001F053
:104090002FFC00210D2001F02BFC00210F2001F04E
:1040A00027FC0021102001F023FC0721112001F042
:1040B0001FFC0021122001F01BFC0021132001F045
:1040C00017FC0121072001F013FC322002F02CF92B
:1040D00041F29041102001F00BFC40F22721112009
:1040E00001F006FC322002F01FF98A21122001F0B3
:1040F000FFFB322002F018F94FF4D051132001F0E9
:10410000F7FB0621292001F0F3FB0D212B2001F004
:10411000EFFB322002F008F90021202001F0E8FB3B
:104120000021212001F0E4FB322002F0FDF8002103
:10413000302000E074E001F0DBFB40F2046131204C
:1041400001F0D6FB40F20531322001F0D1FB002115
:10415000352001F0CDFB40F60941362001F0C8FBC7
:104160004FF40171372001F0C3FB40F201313820D8
:1041700001F0BEFB40F20771392001F0B9FB0021CC
:104180003C2001F0B5FB40F60A213D2001F0B0FBD8
:10419000322002F0C9F80021502001F0A9FBEF21E4
:1041A000512001F0A5FB0021522001F0A1FB40F2BB
:1041B0003F11532001F09CFB4FF42741602001F098
:1041C00097FB0121612001F093FB00216A2001F09F
:1041D0008FFB0021802001F08BFB0021812001F06A
:1041E00087FB0021822001F083FB0021832001F066
:1041F0007FFB0021842001F07BFB0021852001F062
:1042000077FB1021902001F073FB4FF4C0619220E6
:1042100001F06EFB40F23311072001F069FB24E648
:104220001148808849F2203188427DD1002108461A
:1042300001F05EFB4FF48071012001F059FB4FF457
:10424000E061022001F054FB41F23001032001F053
:104250004FFB0021042001F04BFB40F2022108201B
:1042600001F046FB002101E040000020092001F0A0
:104270003FFB00210A2001F03BFB01210C2001F053
:1042800037FB00210D2001F033FB00210F2001F04E
:104290002FFB322002F048F840F20111072001F014
:1042A00027FB322002F040F84FF48651102001F035
:1042B0001FFB0721112001F01BFB4FF48871122016
:1042C00001F016FB4FF43061132001F011FB0021C7
:1042D000292001F00DFB44F210012B2001F008FB16
:1042E0000021502001F004FBEF21512001F000FBE0
:1042F0000021522001F0FCFA40F23F11532001F05E
:10430000F7FA4FF41C51602001F0F2FA012161200C
:1043100001F0EEFA00216A2001F0EAFA0021802083
:1043200001F0E6FA002100E031E0812001F0E0FA3E
:104330000021822001F0DCFA0021832001F0D8FA6C
:104340000021842001F0D4FA0021852001F0D0FA68
:104350001021902001F0CCFA0021922001F0C8FA3F
:104360000121932001F0C4FA4FF48871952001F0E7
:10437000BFFA0021972001F0BBFA0021982001F03C
:10438000B7FA40F27311072001F0B2FA6DE5FE486A
:10439000808849F2313188427DD141F21401E72011
:1043A00001F0A6FA4FF48071012001F0A1FA4FF458
:1043B0000071022001F09CFA41F23801032001F063
:1043C00097FA40F20221082001F092FA0021092018
:1043D00001F08EFA00210A2001F08AFA00210C2057
:1043E00001F086FA00210D2001F082FA00210F2051
:1043F00001F07EFA0021102001F07AFA0721112045
:1044000001F076FA0021122001F072FA0021132047
:1044100001F06EFAC82001F087FF41F29061102090
:1044200001F066FA40F22721112001F061FA3220F2
:1044300001F07AFF0C21122001F05AFA322001F02B
:1044400073FF4FF40061132001F052FA112129206B
:1044500001F04EFA0B212B2001F04AFA322001F034
:1044600063FF0021202001F043FA40F23F11212098
:1044700001F03EFA0021302001F03AFA4FF4837146
:10448000312001F035FA0021322001F031FA4FF4E9
:104490000171352000E064E001F02AFA41F20A617E
:1044A000362001F025FA40F20771372001F020FA9A
:1044B0004FF48371382001F01BFA40F20771392064
:1044C00001F016FA40F202413C2001F011FA40F6E8
:1044D0000F413D2001F00CFA0021502001F008FAB4
:1044E000EF21512001F004FA0021522001F000FADE
:1044F00040F23F11532001F0FBF94FF41C516020B2
:1045000001F0F6F90121612001F0F2F900216A20A1
:1045100001F0EEF90021802001F0EAF9002181206C
:1045200001F0E6F90021822001F0E2F90021832068
:1045300001F0DEF90021842001F0DAF90021852064
:1045400001F0D6F91021902001F0D2F94FF4C061AA
:10455000922001F0CDF940F23311072001F0C8F9A3
:1045600083E48948808845F2084188427ED14FF42F
:104570008071012001F0BCF94FF4E061022001F0EC
:10458000B7F941F23001032001F0B2F90021042013
:1045900001F0AEF940F20721082001F0A9F900214D
:1045A000092001F0A5F900210A2001F0A1F900215C
:1045B0000C2001F09DF900210D2001F099F9002156
:1045C0000F2001F095F9142001F0AEFE41F2B06128
:1045D000102001F08DF90121112001F089F901214C
:1045E000172001F085F94FF49C71122001F080F939
:1045F0004FF40061132001F07BF90921292001F01B
:1046000077F909212A2001F073F90021A42001F093
:104610006FF90021502001F06BF9EF21512001F0DA
:1046200067F90021522001F063F940F23F11532055
:1046300001F05EF94FF41C51602001F059F901219D
:10464000612001F055F900216A2001F051F90021A3
:10465000802001F04DF90021812001F049F900216D
:10466000822001F045F90021832000E023E001F0E1
:104670003FF90021842001F03BF90021852001F061
:1046800037F91321902001F033F90021922001F035
:104690002FF90321932001F02BF94FF48871952015
:1046A00001F026F940F27311072001F021F93220C0
:1046B00001F03AFEB8E43448808841F2055188425E
:1046C0007ED10021072001F013F9322001F02CFEE9
:1046D0004FF48E71122001F00BF90121A42001F09A
:1046E00007F90F21082001F003F908210A2001F041
:1046F000FFF808210D2001F0FBF840F2077130208F
:1047000001F0F6F80721312001F0F2F840F20361E0
:10471000322001F0EDF84FF4E061332001F0E8F8C9
:1047200040F20221342001F0E3F80221352001F0AB
:10473000DFF841F60F71362001F0DAF840F2077128
:10474000372001F0D5F80021382001F0D1F8002100
:10475000392001F0CDF840F207713A2001F0C8F895
:1047600000213B2001F0C4F807213C2001F0C0F8F3
:1047700000213D2001F0BCF8322001F0D5FD0121DF
:10478000072001F0B5F801E04000002001211720CA
:1047900001F0AEF8322001F0C7FD4FF4BD511020FA
:1047A00001F0A6F840F21721112001F0A1F84FF412
:1047B0008F71122001F09CF84FF47061132000E01B
:1047C00097E001F095F800212A2001F091F80A21E4
:1047D000292001F08DF84FF49F71122001F088F824
:1047E0000021502001F084F8EF21512001F080F8E1
:1047F0000021522001F07CF840F23F11532001F0DB
:1048000077F84FF41C51602001F072F8012161200B
:1048100001F06EF800216A2001F06AF80021802082
:1048200001F066F80021812001F062F80021822069
:1048300001F05EF80021832001F05AF80021842065
:1048400001F056F80021852001F052F81321902044
:1048500001F04EF84FF44071922001F049F8052123
:10486000932001F045F80021952001F041F8002146
:10487000972001F03DF80021982001F039F84FF41D
:104880008071012001F034F84FF4E061022001F062
:104890002FF841F23801032001F02AF8002104200A
:1048A00001F026F800210C2001F022F800210F2051
:1048B00001F01EF80021202001F01AF8002121202B
:1048C00001F016F82121072001F012F8142001F060
:1048D0002BFD6121072001F00BF8142001F024FDCD
:1048E00040F27311072001F003F8142001F01CFDC1
:1048F00095E4FE4880884BF2055188427ED1002124
:10490000084600F0F5FF0021084600F0F1FF002105
:10491000084600F0EDFF0021084600F0E9FF012104
:10492000A42000F0E5FF142001F0FEFC4FF41C5120
:10493000602000F0DDFF40F20221082000F0D8FFE7
:104940004FF40571302000F0D3FF43F21571312090
:1049500000F0CEFF40F20461322000F0C9FF40F6C3
:104960001661332000F0C4FF42F21121342000F020
:10497000BFFF4FF4A851352000F0BAFF48F20751AD
:10498000362000F0B5FF41F20741372000F0B0FFBC
:1049900041F20341382000F0ABFF2021392000F024
:1049A000A7FF1A21902000F0A3FF0021102000F0A3
:1049B0009FFF0721112000F09BFF0021122000F033
:1049C00097FF0021132000F093FF142001F0ACFCAE
:1049D0004FF4E661102000F08BFF40F237111120F8
:1049E00000F086FF142001F09FFC4FF4DC711220D0
:1049F00000F07EFF142001F097FC00E083E04FF40C
:104A00007061132000F074FF80212A2000F070FFF5
:104A10004821292000F06CFF142001F085FC4FF4A0
:104A20008071012000F064FF4FF4E061022000F08B
:104A30005FFF41F23801032000F05AFF40F20221EB
:104A4000082000F055FF00210A2000F051FF00214E
:104A50000C2000F04DFF00210D2000F049FF302117
:104A60000E2000F045FF0021502000F041FFEF2113
:104A7000512000F03DFF0021522000F039FF40F2AC
:104A80003F11532000F034FF4FF41C51602000F020
:104A90002FFF0121612000F02BFF00216A2000F090
:104AA00027FF1121902000F023FF4FF4C0619220D6
:104AB00000F01EFF40F20241932000F019FF022196
:104AC000942000F015FF142001F02EFC0121072096
:104AD00000F00EFF142001F027FC6121072000F0F8
:104AE00007FF40F27311072000F002FF0021202091
:104AF00000F0FEFE0021212000F0FAFE222100201D
:104B000000F0F6FE11E3794880884CF205518842A6
:104B10007ED10021084600F0EBFE0021084600F09F
:104B2000E7FE142001F000FC0021084600F0E0FE42
:104B30000021084600F0DCFE0021084600F0D8FE07
:104B40000021084600F0D4FE0121A42000F0D0FE90
:104B5000142001F0E9FB4FF41C51602000F0C8FE66
:104B600040F60601082000F0C3FE40F20371302039
:104B700000F0BEFE0121312000F0BAFE04213220F7
:104B800000F0B6FE4FF48171332000F0B1FE4FF417
:104B90004071342000F0ACFE40F20311352000F0EB
:104BA000A7FE1F21362000F0A3FE40F2037137203C
:104BB00000F09EFE0121382000F09AFE04213920E9
:104BC00000F096FE1521902000F092FE4FF48261D5
:104BD000102000F08DFE40F24721112000F088FEE9
:104BE0004FF4DE71122000F083FE4FF46061132059
:104BF00000F07EFE782001F097FB4FF480710120D9
:104C000000F076FE4FF40071022000F071FE00E02B
:104C100050E041F23001032000F06AFE08210A2032
:104C200000F066FE00210C2000F062FE20210E2024
:104C300000F05EFE00210F2000F05AFE002120202F
:104C400000F056FE0021212000F052FE3D212A20D6
:104C500000F04EFE142001F067FB2D21292000F00A
:104C600047FE0021502000F043FE4DF2EF0151209D
:104C700000F03EFE0021522000F03AFE40F23F11CB
:104C8000532000F035FE0021612000F031FE0021AC
:104C90006A2000F02DFE4FF44071922000F028FEB3
:104CA0000521932000F024FE4FF48071072000F0CE
:104CB0001FFE3AE20D48808844F2315188427CD18F
:104CC0000121002000F014FE0A2001F02DFB41F22A
:104CD0002861102000F00CFE0E21122000F008FECA
:104CE00040F63921132000F003FE01E040000020CF
:104CF0000A2001F019FB4021112000F0F9FD50219C
:104D0000152000F0F5FD0A2001F00EFB1E211220F7
:104D100000F0EEFD0A2001F007FB4FF4B151102026
:104D200000F0E6FD42F63921132000F0E1FD0A20F3
:104D300001F0FAFA4FF48071012000F0D9FD4FF430
:104D40004071022000F0D4FD41F23801032000F050
:104D5000CFFD40F20221082000F0CAFD08210A2000
:104D600000F0C6FD0021302000F0C2FD40F20241FB
:104D7000312000F0BDFD4FF48371322000F0B8FD0A
:104D800040F20351332000F0B3FD4FF48271342020
:104D900000F0AEFD40F20131352000F0A9FD40F2F7
:104DA0000771362000F0A4FD40F20531372000F0F5
:104DB0009FFD4FF40271382000E040E000F098FDC4
:104DC00040F60B71392000F093FD0221412000F0E4
:104DD0008FFD4FF41C51602000F08AFD01216120FD
:104DE00000F086FD4FF40471902000F081FD4FF437
:104DF0008571922000F07CFD0421932000F078FD65
:104E00004FF48071A02000F073FD0121072000F015
:104E10006FFD2121072000F06BFD2321072000F00A
:104E200067FD3321072000F063FD40F233110720B6
:104E300000F05EFD0021A02000F05AFD75E1C148A0
:104E4000808844F2355188427ED13021152000F00F
:104E50004FFD10219A2000F04BFD2021112000F081
:104E600047FD43F22841102000F042FD02211220AC
:104E700000F03EFD41F23801132000F039FD2820FA
:104E800001F052FA1221084600F032FD282001F00C
:104E90004BFA43F22041102000F02AFD43F2380182
:104EA000132000F025FD462001F03EFA00213020BD
:104EB00000F01EFD40F20241312000F019FD40F2E9
:104EC0000731322000F014FD4FF44171332000F01F
:104ED0000FFD0421342000F00BFD40F2014135208C
:104EE00000F006FD40F20771362000F001FD40F2AF
:104EF0000531372000F0FCFC4FF4C261382000F08F
:104F0000F7FC4FF4C261392000F0F2FC4FF48071DD
:104F1000012000F0EDFC4FF44071022000F0E8FCAD
:104F200041F23001032000F0E3FC40F608010820C4
:104F300000F0DEFC08210A2000F0DAFC4FF41C51DE
:104F4000602000F0D5FC00E031E00121612000F09C
:104F5000CFFC4FF49F71902000F0CAFC4FF4807199
:104F6000922000F0C5FC4FF48071932000F0C0FC4B
:104F70004FF44051A02000F0BBFC1021A32000F012
:104F8000B7FC0121072000F0B3FC2121072000F02D
:104F9000AFFC2321072000F0ABFC3321072000F0F9
:104FA000A7FC40F23311072000F0A2FCBDE06548E9
:104FB000808841F663118842F8D1E22000F088FC35
:104FC0001D2000F07FFC022000F07CFC042000F09B
:104FD00079FC642001F0CEF9E02000F079FC01209A
:104FE00000F070FC0A2001F09FF9E02000F070FC56
:104FF000032000F067FC0C2001F096F9012000F07E
:1050000067FC0A2001F090F9E62000F061FC2F20F7
:1050100000F058FCFF2000F055FCFF2000F052FC8F
:10502000B02000F055FC202000F04CFC002000F0E7
:1050300049FC032000F046FC40F21F3000F042FC27
:10504000012000F03FFC40F2DF1000F03BFC0020AC
:1050500000F038FCB42000F03BFC042000F032FCEF
:1050600040F21F4000F02EFC002000F02BFC2E2010
:1050700000F028FC002000F025FC002000F022FCBD
:10508000002000F01FFC002000F01CFCB62000F007
:105090001FFC022000F016FC4FF4037000F012FC1D
:1050A000002000F00FFC172000F00CFC152000F091
:1050B00009FC002000F006FC002000F003FCF020BA
:1050C00000F006FC032000F0FDFB292000F000FCAE
:1050D000D02000F0FDFB002000F0F4FBBE2000F02B
:1050E000F7FB052000F0EEFBFE2000F0EBFB0120BB
:1050F00000F0E8FB002000F0E5FB002000F0E2FB00
:10510000002000F0DFFBB82000F0E2FB032000F0FD
:10511000D9FB012000F0D6FBBA2000F0D9FB01201A
:1051200000F0D0FB642000F033F80020FCF7B6FA62
:105130000120054908604FF6FF70FCF779FA1FB0AF
:1051400000BD0000400000208081214210B50246D1
:10515000012000E050430B00A1F10104E1B2F9D1BC
:1051600010BD000008B5034800880090BDF800009D
:1051700008BD00000008006C10B50446204600F091
:10518000A7FB052001F0F6F8FFF7ECFF10BD0000CB
:105190002DE9F0470446BE2000F09AFB052000F000
:1051A00091FB204601F0A3FB07464FF066320C4B03
:1051B00001F0B0FB054601F06DFB1FFA80F948468F
:1051C00000F080FB012000F07DFBFF2000F07AFB67
:1051D000002000F077FB002000F074FBBDE8F087B2
:1051E0006666044070B5044600230026B7488079FF
:1051F00001280BD1B548808846F60401884205D0C5
:10520000B248808841F66311884208D1AF4880795E
:10521000F0B9AE48808841F66311884218D1082C55
:1052200015D2DFE804F00406080A0C0E101206245A
:105230000DE007240BE0042409E0052407E0012425
:1052400005E0002403E0032401E0022400BF00BFC6
:105250009E48808849F24131884217D09B48808817
:1052600046F60401884211D09848808845F21031F2
:1052700088420BD09548808845F21051884205D06D
:105280009248808841F6631188427DD1082C1CD257
:10529000DFE804F00406090C0F12151800BF14E033
:1052A00043F0800311E043F040030EE043F0C003FD
:1052B0000BE043F0200308E043F0600305E043F017
:1052C000A00302E043F0E00300BF00BF7F488088F6
:1052D00045F21051884202D14FF4585600E036266C
:1052E0007A48808845F2103188420DD0774880880E
:1052F00045F21051884207D07448808841F6631106
:10530000884201D043F008037048808846F60401C3
:10531000884201D143F002031946304600F0E8FA12
:105320006A48808841F6631188421DD003F020004E
:1053300068B16648008865494988884214DA63483C
:105340000588408861490880084645800CE05F4830
:1053500000885E494988884206DD5C4805884088A7
:105360005A490880084645805848808845F21051BF
:10537000884254D15549488900F0AAFA002000F02B
:10538000A1FA5249498900E078E0491C88B200F04E
:105390009FFA002000F096FA4C494989891C88B28E
:1053A00000F096FA49490988491EC1F30F2000F020
:1053B00089FA46494989C91C88B200F089FA4349EB
:1053C0000978491EC8B200F07DFA4049888900F08A
:1053D0007FFA002000F076FA3C498989491C88B29E
:1053E00000F076FA002000F06DFA38498989891CAE
:1053F00088B200F06DFA35494988491EC1F30F2083
:1054000000F060FA31498989C91C88B200F060FA5D
:105410002E498978491EC8B200F054FA55E02B494C
:10542000488900F055FA002000F04CFA002000F006
:1054300049FA26490988491EC1F30F2000F042FAB3
:1054400022490978491EC8B200F03CFA1F498889F0
:1054500000F03EFA002000F035FA002000F032FAA9
:105460001A494988491EC1F30F2000F02BFA174949
:105470008978491EC8B200F025FA26E0082C1CD213
:10548000DFE804F004070A0D0F12151843F030038B
:1054900013E043F0100310E043F020030DE000BFE1
:1054A0000BE043F0380308E043F0280305E043F045
:1054B000180302E043F0080300BF00BF032643F4D3
:1054C00080531946304600F013FA70BD40000020AA
:1054D00010B503460C466748808849F2413188423E
:1054E00005D06448808845F21031884214D1614962
:1054F000488900F0EDF9181200F0E4F9D8B200F094
:10550000E1F95C49888900F0E3F9201200F0DAF94A
:10551000E0B200F0D7F9ABE05648808846F60401C7
:1055200088421DD153488079012804D15148008810
:10553000401EC01A83B24F49488900F0C9F91812B9
:1055400000F0C0F9D8B200F0BDF94A49888900F0EE
:10555000BFF9201200F0B6F9E0B200F0B3F987E02D
:105560004448808841F66311884247D14148807998
:10557000A8B940480088401EC01A83B23D494889F6
:1055800000F0A6F9002000F09DF9002000F09AF943
:10559000181200F097F9D8B200F094F916E03549E6
:1055A000488900F095F9181200F08CF9D8B200F093
:1055B00089F930490988491EC1F30F2000F082F9AA
:1055C0002C490978491EC8B200F07CF9294988891C
:1055D00000F07EF9201200F075F9E0B200F072F9E7
:1055E00024494988491EC1F30F2000F06BF9214975
:1055F0008978491EC8B200F065F939E01D488088F5
:1056000045F21051884220D11A49488900F060F9CA
:10561000181200F057F917494989491C88B200F05F
:1056200057F9D8B200F04EF91249888900F050F9C4
:10563000201200F047F90F498989491C88B200F00F
:1056400047F9E0B200F03EF912E00A4880790128FB
:1056500004D108480088401EC01A83B20549488911
:10566000194600F045F903498889214600F040F9C0
:1056700010BD0000400000202DE9F84F80460E4686
:1056800017461C46B3462046E31704EB5373DB1062
:1056900021464FEAE47C04EB5C7C4FEAEC0CA4EB83
:1056A000CC0CBCF1000F02D04FF0010C01E04FF028
:1056B000000C6344224604EBD27C4FEA6C0C03FBE3
:1056C0000CF3DBB20093A7F12000C7B2002556E02F
:1056D0000C2C07D107EB47002B4901EB800010F899
:1056E000059013E0102C05D1284800EB071010F8A6
:1056F00005900BE0182C07D107EBC700244901EBFC
:10570000800010F8059001E0BDE8F88F4FF0000A26
:105710002FE009F0800030B11E4802883146404633
:10572000FCF79CF807E00A9828B91B480288314624
:105730004046FCF793F84FEA49604FEA1069701C45
:1057400086B216484088B04200DCDDE7A6EB0B00CD
:10575000A0420AD15E4608F101001FFA80F80F4806
:105760000088404500DCCFE706E00AF1010000F0C8
:10577000FF0ABAF1080FCCDB00BF681CC5B2009865
:105780008542A5DB00BFBFE7C86E00083C73000878
:105790002C7900083000002032000020400000205A
:1057A0002DE9F84704460D4690469946DDE909671C
:1057B00004F0FF0A08EB04001FFA80F809EB05006B
:1057C0001FFA80F916E0444502DB5446A81985B259
:1057D0004D4500DB14E0002000903A78334629461E
:1057E0002046FFF749FF304606EBD07104EB61011C
:1057F0008CB27F1C38787E2802DC38782028E2DAE8
:1058000000BFBDE8F8872DE9FF4F82B006469246FB
:105810001F46DDE90F480020019000254DE0781B70
:10582000401EC1B20A20FFF791FCBAFBF0F00A213A
:10583000B0FBF1F201FB1209019850BB781EA8429F
:1058400027DDB9F1000F22D108F0800078B108F00F
:105850000100A34604EBDB71491001FB05610090D8
:1058600088B2234630220399FFF706FF0EE008F0C6
:105870000100A34604EBDB71491001FB05610090B8
:1058800088B2234620220399FFF7F6FE13E0012099
:10589000019008F00100A34604EBDB71491001FB05
:1058A0000561009088B209F13001CAB2234603991C
:1058B000FFF7E2FE00BF681CC5B2BD42AFDB06B019
:1058C000BDE8F08F01490880704700000008006CB7
:1058D0000149088070470000FE07006C02480089FB
:1058E000024908807047000040000020FE07006C5D
:1058F000024A1080921C118070470000FE07006C65
:1059000008B50121082000F0A3F80121402000F093
:105910009FF810208DF803002020ADF80000032030
:105920008DF8020069460C48FBF773FD20210A48F8
:10593000FBF7FAFD10208DF803002020ADF80000E1
:1059400003208DF8020069460448FBF762FD202120
:105950000248FBF7E9FD08BD000C014000180140BA
:1059600000BFFEE77047000070B5002100230F2242
:10597000C47804B3154C246804F4E064C4F5E0640E
:10598000210AC1F10403CA40447804FA03F184787F
:105990001440214309010E4C0678A155047804F007
:1059A0001F050124AC4005786D11AD0005F1E0251F
:1059B000C5F8004109E0047804F01F050124AC405B
:1059C000044D0678761145F8264070BD0CED00E0D8
:1059D00000E400E080E100E002490143024A116076
:1059E000704700000000FA050CED00E07047000071
:1059F00029B1064A52690243044B5A6104E0034A42
:105A000052698243014B5A61704700000010024006
:105A100029B1064AD2690243044BDA6104E0034A21
:105A2000D2698243014BDA617047000000100240E6
:105A300029B1064A12690243044B1A6104E0034A81
:105A400012698243014B1A61704700000010024046
:105A500029B1064A92690243044B9A6104E0034A61
:105A600092698243014B9A61704700000010024026
:105A700029B1064AD2680243044BDA6004E0034AC3
:105A8000D2688243014BDA60704700000010024088
:105A900030B500210022002400232D4D6D6805F053
:105AA0000C0121B1042905D0082923D105E0294D95
:105AB000056022E0274D05601FE0254D6D6805F467
:105AC0007012234D6D6805F48034022505EB924277
:105AD0001CB9214D554305600BE01D4D6D6805F463
